:02000004080AE8
:1000000000000A088C670A080000060006000501C7
:080010000402E70500000000F6
:04001800A05D0A08D5
:1000200009480A4908B5884205D0094A824202D0E7
:10003000121A05F0C1F90748074A0021121A05F003
:10004000E1F9064808BD00BF000000209C660A08D0
:10005000C8000020C8000020AC040020AC04002030
:1000600070B502F077FD074B074C1E46E41AA40852
:100070000025A54204D056F8253098470135F8E709
:1000800070BD00BF58660A0888660A0800F0E8B824
:1000900008B500F0CFFBBDE8084002F01DBD01F03F
:1000A0009DB801F0A3B8000008B5034A00210C2058
:1000B00000F0A8FFFEE700BFD10D0A080078B0FAF3
:1000C00080F0400970470123037070477047006A51
:1000D0000368DB681847000038B5064D002404F1BA
:1000E00090002844103C01F0E1F914F1A00FF6D182
:1000F00038BD00BF0801002038B5064D002404F1CA
:1001000090002844103C01F0D1F914F1A00FF6D171
:1001100038BD00BFC001002010B51DA3D3E90023E6
:100120001F4CD4E9000103F0A9FF1BA3D3E900236E
:10013000C4E900011B4CD4E9000103F09FFF1A4BF6
:10014000C4E90001188803F032FD01280BD110A387
:10015000D3E90023154CD4E9000103F08FFFC4E973
:100160000001134C0AE0134C09A3D3E90023D4E99E
:10017000000103F083FFC4E900010F4CD4E9000142
:1001800005A3D3E9002303F079FFC4E9000110BD02
:10019000000000607FD9C53F000000007CA9E33F5C
:1001A00070020020B801002004000020000100209F
:1001B000A0020020F8000020B001002010B5044685
:1001C000006808B101F012F8204610BD10B50446D1
:1001D000094B036001F092FC214601F0ACFE03F0F4
:1001E00073F803F065F82046044B40F8043B01F037
:1001F000A9FD204610BD00BFD45D0A08BC5D0A08F9
:1002000010B50446FFF7E2FF2046242103F048FD25
:10021000204610BD00221146406800F05FBF00225A
:100220001146406800F06ABF0EB400B58CB00DAA4C
:1002300052F8041B20238DE8060003920493016802
:10024000002304AA1E20059300F0E4FE0CB05DF824
:1002500004EB03B070470121084600F0D9BD00004F
:1002600013B5144B144C1888032103F08FFC0021A4
:10027000208803F08BFC03F027F84FF4165103F0AD
:1002800013F80E4802F03EFB03F01EF80C4901F093
:1002900087FA642002F0BEFB0023009320884FF011
:1002A000FF330222074903F065F802B0BDE81040B1
:1002B00000F064BF04000020000000200000204186
:1002C000E45D0A0819010A0870B58EB0194902A840
:1002D00001F033F900F05AFF002800F0F4811549CD
:1002E000154801F07CF91349144801F078F9144ECF
:1002F000144D002433689C4203D30024124E134D46
:100300000AE005EB04110C4801F0E4F910490A4831
:1003100001F0E4F90134EDE733689C421AD205EBB1
:100320000411064801F0D6F90949044801F0D6F94C
:100330000134F1E7405F0A08CC0000206002002091
:10034000A801002008010020E0000020C0010020DA
:10035000FB5D0A08B64A00231360B64AB6490AA8EC
:10036000136001F0EAF80AA902A801F0B3F90AA89B
:1003700001F09CF8B1490AA801F0DFF80324B04B62
:100380000094D3E9002306A801F077F906A90AA88A
:1003900001F0B3F9AB4901F0BCF9014602A801F044
:1003A00099F906A801F082F80AA801F07FF8A64999
:1003B0000AA801F0C2F8A54B0094D3E9002306A8CF
:1003C00001F05BF906A90AA801F097F99D4901F02F
:1003D000A0F9014602A801F07DF906A801F066F82F
:1003E0000AA801F063F89A490AA801F0A6F8994B07
:1003F0000094D3E9002306A801F03FF906A90AA852
:1004000001F07BF98F4901F084F9014602A801F05F
:1004100061F906A801F04AF80AA801F047F88E49E8
:100420000AA801F08AF802F0E1FA0A22014606A8B9
:1004300001F0E6F806A90AA801F05FF9814901F088
:1004400068F9014602A801F045F906A801F02EF866
:100450000AA801F02BF881490AA801F06EF802F011
:10046000BDFA0A22014606A801F0CAF806A90AA8A0
:1004700001F043F9734901F04CF9014602A801F07B
:1004800029F906A801F012F80AA801F00FF874493A
:100490000AA801F052F802F097FA0A22014606A8CB
:1004A00001F0AEF806A90AA801F027F9654901F0A4
:1004B00030F9014602A801F00DF906A800F0F6FF98
:1004C0000AA800F0F3FF67490AA801F036F802F025
:1004D0005DFA0A22014606A801F092F806A90AA8C8
:1004E00001F00BF9574901F014F9014602A801F097
:1004F000F1F806A800F0DAFF0AA800F0D7FF5A4981
:100500000AA801F01AF802F04BFA0A22014606A8DE
:1005100001F076F806A90AA801F0EFF8494901F0C0
:10052000F8F8014602A801F0D5F806A800F0BEFFD1
:100530000AA800F0BBFF4D490AA800F0FEFF02F038
:1005400039FA0A22014606A801F05AF806A90AA8B3
:1005500001F0D3F83B4901F0DCF8014602A801F0B4
:10056000B9F806A800F0A2FF0AA800F09FFF4049D2
:100570000AA800F0E2FF0A22114606A801F040F89E
:1005800006A90AA801F0B9F82E4901F0C2F80146FF
:1005900002A801F09FF806A800F088FF0AA800F062
:1005A00085FF34490AA800F0C8FF0AA902A801F093
:1005B00091F80AA800F07AFF2F490AA800F0FCFF82
:1005C0002E490AA801F0A5F8014602A801F082F818
:1005D0000AA800F06BFF2A490AA800F0AEFF0AA99A
:1005E00002A801F077F80AA800F060FF25490AA8E0
:1005F00000F0E2FF21490AA801F08BF8014602A8A9
:1006000001F068F80AA800F051FF1F4902A801F0A4
:1006100065F802A90AA800F0CFFF1C4B0A9A1B78C4
:100620001B498DF8003006A83C2302F001FC31E0A4
:10063000A8010020E0000020FD5D0A08005E0A0815
:1006400070020020455E0A08065E0A0800010020CC
:100650000C5E0A08F8000020125E0A08185E0A08FC
:100660001E5E0A08245E0A082A5E0A08305E0A082E
:10067000365E0A083C5E0A08CC000020445E0A0888
:10068000485E0A0860020020505E0A08DC00002074
:10069000615E0A08079C7CB16368013B63605BB9DB
:1006A000236820469B689847A368013BA3601BB959
:1006B00023682046DB6898470AA800F0F7FE4FF44D
:1006C0007A7002F0A7F902F0FFFD064901F068F820
:1006D00002F0FAFD029901F063F802A800F0E6FECC
:1006E0000EB070BD695E0A0830B589B002F07EF9BF
:1006F0000446494904A800F020FF0A222146684622
:1007000000F07EFF694604A800F0F7FF0168434847
:10071000FFF78AFD684600F0C9FE04A800F0C6FE97
:1007200002F0E2F805463E4904A800F006FF0A225E
:100730002946684600F077FF694604A800F0DDFF0F
:1007400001683648FFF770FD684600F0AFFE04A868
:1007500000F0ACFE40F2E4739C420FDDA4F2E570C1
:100760008010013003F0D6FD03F0FAFB26A3D3E995
:10077000002303F035FE04F0CDF800E00020294B03
:10078000A4F2E37403FB0400274C2849044404A8A2
:1007900000F0D3FE0A222146684600F044FF694675
:1007A00004A800F0AAFF01681C48FFF73DFD684659
:1007B00000F07CFE04A800F079FE281B03F0AAFDDF
:1007C00013A3D3E9002303F035FF04F0EBF804464C
:1007D000174904A800F0B1FE06222146684600F041
:1007E00035FF694604A800F088FF01680B48FFF751
:1007F0001BFD684600F05AFE04A800F057FE204694
:1008000009B030BDAFF30080000000000018F540D3
:10081000000000000020AC407F5E0A08EC020020CF
:10082000915E0A088033E10180AD2A5CA85E0A0867
:10083000C85E0A082DE9F0479B4C9C4D8EB020887D
:100840002E7803F0B4F98642994E36D0208803F012
:10085000AEF900280CBF002301232B70208804BFB1
:100860000123337003F0A3F9012808D1914C02F061
:100870002BFD914900F094FF2768904B0AE002F0AD
:1008800023FD8F4C8F4900F08BFF0A2002F0C2F845
:1008900027688D4B03EB0717FFF726FF042201465D
:1008A0000AA800F0D3FE0AA9384600F090FE0AA874
:1008B00000F0FCFD23680133236002F097F840F25A
:1008C000CF739842814B1CBF01221A701C7844B927
:1008D00000F05CFC28B100F059FC10B1204600F09B
:1008E00065FC02F0F1FC062479498146DFF81882A4
:1008F00006A800F022FE0094D8E9002302A800F028
:10090000BCFE02A906A800F0F8FE724900F001FF43
:100910008246714F0094D7E900230AA800F0ADFE8B
:100920000AA9504600F0E9FE6C4900F0F2FE0168A9
:10093000484600F035FF0AA800F0B8FD02A800F014
:10094000B5FD06A800F0B2FD3378002B00F0A580BD
:1009500002F0BAFC624900F023FF02F0B5FC2A78ED
:10096000604B6149D342614B08BF194600F018FF44
:1009700002F0AAFC5649054606A800F0DEFD0094E8
:10098000D8E9002302A800F078FE02A906A800F02A
:10099000B4FE504900F0BDFE80460094D7E9002324
:1009A0000AA800F06AFE0AA9404600F0A6FE4B49DC
:1009B00000F0AFFE0168284600F0F2FE0AA800F041
:1009C00075FD02A800F072FD06A800F06FFD02F0B0
:1009D0007BFC4749054606A800F0AFFD454B009457
:1009E000D3E9002302A800F048FE02A906A800F0FF
:1009F00084FE384900F08DFE07463F4B0094D3E952
:100A000000230AA800F039FE0AA9384600F075FE56
:100A1000324900F07EFE0168284600F0C1FE0AA8B7
:100A200000F044FD02A800F041FD06A800F03EFDE4
:100A300002F04AFC3149054606A800F07EFD304B25
:100A40000094D3E9002302A800F017FE02A906A82B
:100A500000F053FE1F4900F05CFE0746294B00944E
:100A6000D3E900230AA800F008FE0AA9384600F0DE
:100A700044FE1A4900F04DFE0168284600F090FE41
:100A80000AA800F013FD02A800F010FD06A800F06F
:100A90000DFDFFF719FC002333704FF47A7001F05D
:100AA000B9FF0EB0BDE8F08704000020F000002080
:100AB000F1000020E0000020E15E0A08C0010020F3
:100AC000A8010020EA5E0A0808010020A802002010
:100AD000F25E0A08035F0A0870020020065F0A0837
:100AE0000A5F0A08245F0A08DA5E0A08DD5E0A085F
:100AF0002E5F0A08A002002000010020415F0A08C2
:100B0000B0010020F8000020B801002070B50546B3
:100B100004684368142606FB0346A64204D0204618
:100B200000F0C4FC1434F8E7286800F05FFB2846A6
:100B300070BD8842F8B506460C46154616D9904257
:100B400015D2A2F114056C1AA1F114070444AF42A6
:100B50001CD02CB12946204600F098FC2B7C237435
:100B6000284600F0A3FC143D143CF0E70ED0AC4244
:100B70000CD02EB12146304600F088FC237C337423
:100B8000204600F093FC14341436F0E7F8BD2DE94C
:100B9000F04100230360436083604E6804469E4238
:100BA0000F4624DD4FF0140808FB06F000F016FB9A
:100BB0000546E0B194E8060008FB0212FFF7B9FF12
:100BC000206800F013FB2560A6603E687B6808FB88
:100BD0000368464509D02DB13146284600F0ECFCAB
:100BE000337C2B7414361435F3E77B68636020463E
:100BF000BDE8F08170B5414B8CB000241C7000F052
:100C00009FF84FF6FF733E4D02206B812C60AC8045
:100C1000AC712C8100F01EFA3A4A3B49284603F099
:100C200031F8FFF718FB00940194029402F04CFB9A
:100C30000646694603A8FFF7AAFF03A906A8334D95
:100C4000FFF7A5FF324B06A92B6009A8FFF79FFF0E
:100C500009AA1E21281D01F0D4FA09A8FFF756FFA2
:100C600006A8FFF753FF2B4B2E622B6003A8FFF75C
:100C70004DFF294B2B6002F027FB4FF4165102F079
:100C800013FB00F03BFF294601F04FFA6846FFF7DF
:100C90003DFF28461B4A214902F0F4FF204D281948
:100CA0002049103400F049FCA02CF8D1154A1E4907
:100CB000002002F0E7FF1D4D0024281919491034C7
:100CC00000F03BFCA02CF8D10E4A1949002002F09C
:100CD000D9FF1449174800F030FC0A4A1649154854
:100CE00002F0D0FF0F49154800F027FC054A1249D1
:100CF000124802F0C7FF0CB070BD00BFDC0000203E
:100D0000E4000020C8000020BD010A08780200208D
:100D1000BC5D0A08A8620A08D45D0A08CD010A0869
:100D2000C0010020405F0A08F9000A0808010020FD
:100D3000D9000A0860020020AD140A08CC00002087
:100D400008B5024B1B681B68019308BDB00106087B
:100D500008B5024B1B689B68019308BDB0010608EB
:100D600008B5024B1B68DB68019308BDB00106089B
:100D700008B5024B1B685B69019308BDB00106080A
:100D800008B5024B1B689B69019308BDB0010608BA
:100D900008B5024B1B68DB69019308BDB00106086A
:100DA00008B5024B1B68DB69019308BDB401060856
:100DB00008B5024B1B681B6A019308BDB401060805
:100DC00008B5024B1B685B68019308BD9C010608CF
:100DD00008B5024B1B68DB68019308BD9C0106083F
:100DE00008B5024B1B685B69019308BD9C010608AE
:100DF00008B5024B1B68DB69019308BD9C0106081E
:100E000008B5024B1B689B6D019308BD9C01060849
:100E100008B5024B1B685B6E019308BDB80106085C
:100E200008B5024B1B685B6C019308BDD001060836
:100E300008B5024B1B689B6C019308BDD0010608E6
:100E400008B5024B1B68DB6C019308BDD001060896
:100E500008B5024B1B685B6D019308BDD001060805
:100E600008B5024B1B689B69019308BDC4010608C5
:100E700008B5024B1B681B6A019308BDC401060834
:100E800008B5024B1B685B6A019308BDC4010608E4
:100E900008B5024B1B689B6A019308BDC401060894
:100EA00008B5024B1B68DB6A019308BDC401060844
:100EB00008B5024B1B681B6B019308BDC4010608F3
:100EC00008B5024B1B685B6B019308BDC4010608A3
:100ED00008B5024B1B689B6B019308BDC401060853
:100EE00008B5024B1B681B6C019308BDC4010608C2
:100EF00008B5024B1B68DB6C019308BDC4010608F2
:100F000008B5024B1B681B6E019308BDAC010608B7
:100F100008B5024B1B685B6E019308BDAC01060867
:100F200008B5024B1B689B6E019308BDAC01060817
:100F300008B5024B1B68DB6E019308BDAC010608C7
:100F400008B5024B1B681B6F019308BDAC01060876
:100F500008B5024B1B685B6F019308BDAC01060826
:100F600008B5034B1B68D3F88030019308BD00001F
:100F7000AC01060808B5024B1B681B68019308BD4D
:100F8000D801060808B5024B1B685B68019308BDD1
:100F9000D801060808B5024B1B689B68019308BD81
:100FA000D801060808B5024B1B681B69019308BDF0
:100FB000D801060808B5024B1B685B69019308BDA0
:100FC000D801060808B5024B1B689B69019308BD50
:100FD000D801060808B5024B1B68DB69019308BD00
:100FE000D801060808B5024B1B681B6A019308BDAF
:100FF000D801060808B5024B1B689B6C019308BD1D
:10100000C001060808B5024B1B685B6B019308BD65
:10101000A801020808B5024B1B685B6D019308BD6F
:10102000A801020808B5024B1B68DB6E019308BDDE
:10103000A801020808B5024B1B681B6F019308BD8D
:10104000A801020808B5024B1B681B68019308BD84
:10105000A401060808B5024B1B685B68019308BD34
:10106000A401060808B5024B1B685B69019308BD23
:10107000A401060808B5024B1B68DB6C019308BD90
:10108000A401060808B5024B1B685B6D019308BDFF
:10109000A401060808B5024B1B689B6D019308BDAF
:1010A000A401060808B5034B1B68D3F890300193E0
:1010B00008BD0000A401060808B5034B1B68D3F85F
:1010C0009C30019308BD0000A401060808B5024B3E
:1010D0001B685B68019308BDC801060808B5024B90
:1010E0001B689B68019308BDC801060808B5024B40
:1010F0001B68DB68019308BDC801060808B5024BF0
:101100001B681B69019308BDC801060808B5024B9E
:101110001B685B69019308BDC801060808B5024B4E
:101120001B689B69019308BDC801060808B5024BFE
:101130001B68DB69019308BDC801060808B5024BAE
:101140001B681B6A019308BDC801060808B5024B5D
:101150001B681B6B019308BDC801060808B5024B4C
:101160001B685B6B019308BDC801060808B5024BFC
:101170001B689B68019308BDCC01060808B5024BAB
:101180001B68DB68019308BDCC01060808B5024B5B
:101190001B685B69019308BDCC01060808B5024BCA
:1011A0001B681B6A019308BDCC01060808B5024BF9
:1011B0001B68DB6A019308BDCC01060808B5024B29
:1011C0001B681B6B019308BDCC01060808B5024BD8
:1011D0001B68DB6B019308BDCC01060808B5024B08
:1011E0001B681B68019308BDA001060808B5024BE7
:1011F0001B685B68019308BDA001060808B5024B97
:101200001B689B68019308BDA001060808B5024B46
:101210001B689B69019308BDA001060808B5024B35
:101220001B685B6A019308BDA001060808B5024B64
:101230001B68DB6A019308BDA001060808B5024BD4
:101240001B681B6B019308BDA00106080068FFF72F
:10125000F7BD70B504460E46002540F8085FFFF75D
:10126000DFFD30462670FFF79BFD6560204670BDB0
:101270000078FFF79DBD00004FF6FF7310B5084CD6
:1012800000202060A080A07120816381FFF7E2FE32
:101290002046BDE81040034A034902F0F3BC00BFFA
:1012A000AC020020C8000020BD010A0810B50446A9
:1012B00004F01DF9013823182046984206D202781E
:1012C000197800F8011B03F80129F6E710BD931EF9
:1012D000232B2DE9F041154634BF15460A258CB065
:1012E00000230A2D0C468DF82C3007D1984205DAE0
:1012F0002D2301F101080B70404201E0A8B1A04686
:101300000DF12B0601272A46014601A804F040F8FA
:10131000029A0198092ACCBF37233023134406F8D8
:10132000013901370028EED106E0A04630238DF8C0
:101330002B300DF12A0602273A46711C404604F074
:101340003BF820460CB0BDE8F08170B50C46911E0C
:10135000222920D82546294610B9234430220EE000
:10136000B0FBF2F602FB1600C1B2092805F8011B1A
:1013700094BF3031573105F8011C3046EBE79942F4
:1013800002D201F8012BFAE7002320460B70FFF789
:101390008DFF204670BD002070BD38B5031E0C4681
:1013A00015460BDAB3F1004F4FF02D0214BF58422F
:1013B000184601230A702A46194400E00123FFF76A
:1013C000C4FF204638BD00002DE9F14F80460D4690
:1013D00017461E46002200234046294603F072FAB3
:1013E00020B12D23337005F100450136002301247F
:1013F0000A22D9B28F4202D954430133F9E7204679
:1014000002F088FF42462B4602F0EAFF82468B46F6
:1014100003F01CFD8046894602F0ACFF02460B46F5
:101420005046594602F028FE0022174B03F05EFAA0
:1014300018B118F1010849F10009E51722462B46B9
:101440004046494603F0EAFC01230A223146FFF7F1
:101450007CFFAFB1304604F04AF82E2333540130FC
:10146000064422462B464046494603F0D7FC3B46FD
:10147000104631460A2201B0BDE8F04FFFF765BFC4
:1014800001B0BDE8F08F00BF0000E03F0023036023
:1014900043608360037310B50C6804604C6844605B
:1014A0008C6884600B604B608B6010BD10B5044687
:1014B0000068FFF79BFE204610BD10B5044600688B
:1014C00008B1FFF793FE00232360A360636010BDA3
:1014D00038B504460D4600680131FFF78FFE10B1A4
:1014E00084E82100012038BD10B50368044613B11B
:1014F00043688B4207D22046FFF7EAFF20B1A3687A
:101500000BB922681370012010BD70B50E4611464C
:1015100004461546FFF7E8FF18B92046FFF7CDFF50
:1015200009E02A463146A560206803F045FF22689D
:10153000A3680021D154204670BD38B5002304466D
:1015400003604360836003730D4639B1084603F0BE
:10155000CEFF294602462046FFF7D7FF204638BD7A
:1015600038B5054600680C4660B16A688B689A42D7
:1015700006D3096803F098FFA368AB6000230AE074
:10158000FFF734FE23682B6063686B60A368AB6071
:10159000002323606360A36038BD884210B50B460A
:1015A000044607D0096819B19A68FFF7AEFF01E059
:1015B000FFF783FF204610BD10B5044600230360EB
:1015C000436083600373FFF7E8FF204610BD884245
:1015D00010B5044601D0FFF7C3FF204610BD38B553
:1015E00005460C4641B1084603F081FF21460246FC
:1015F0002846FFF78AFF01E0FFF75FFF284638BD66
:1016000010B5044600238AB023606360A36023738F
:10161000084601A9FFF7C1FE01A92046FFF7DFFF39
:1016200020460AB010BD10B5044600238AB02360DE
:101630006360A3602373084601A9FFF748FE01A970
:101640002046FFF7CCFF20460AB010BD30B5044657
:1016500000238BB00360436083600373D5B20846F8
:1016600002F06AFE01AB2A46FFF7AEFE01A9204652
:10167000FFF7B5FF20460BB030BD10B504468AB069
:1016800019460023104623606360A36023739DF80E
:10169000302001ABFFF798FE01A92046FFF79FFF1E
:1016A00020460AB010BD70B504460E4609B90020A8
:1016B00070BD6AB18368D5182946FFF715FF002869
:1016C000F5D02068A3683146184403F0EDFEA5600C
:1016D000012070BD8A680968FFF7E5BF38B5054687
:1016E0000C46084641B103F002FF21460246284657
:1016F000BDE83840FFF7D7BF38BD10B58A68096824
:101700000446FFF7D0FF10B92046FFF7D6FE20466B
:1017100010BD38B504460D4641B1084603F0E7FE5A
:10172000294602462046FFF7BEFF10B92046FFF7C4
:10173000C4FE204638BDF8B506460D468F18002475
:10174000BD420CD0336815F8011B9B6830469847A2
:10175000002801DB0444F3E7002C08BF04462046C0
:10176000F8BD70B505460C46084649B103F0BFFE0A
:101770002B68024621462846BDE87040DB681847C2
:1017800070BD03689B68184738B50D210546FFF703
:10179000F8FF0A2104462846FFF7F3FF204438BD2E
:1017A00038B50546FFF7DDFF04462846FFF7ECFF96
:1017B000204438BD012A98BF0A2230B50B468BB0B1
:1017C00000218DF824100DF12304B3FBF2F505FB85
:1017D0001233DBB2092B94BF30333733DBB22146EF
:1017E00004F801392B46002DEFD1FFF7BAFF0BB0FB
:1017F00030BD0CB42DE9F04387B000AF07F13804D9
:1018000054F8049B05460E4623464A461421381DCB
:101810003C60FFF703FD132805D8391D2846FFF764
:10182000A0FF044613E000F1080323F00703E84695
:10183000ADEB030D411C23464A4668463C60FFF76A
:10184000EDFC69462846FFF78CFF0446C5461EB1ED
:101850002846FFF799FF044420461C37BD46BDE8E3
:10186000F04302B0704700231A4619464068FFF75C
:101870004DBC80680368DB681847704719B10B6876
:1018800008465B681847704719B10B6808465B68E3
:101890001847704770477047704738B504460D4683
:1018A00000682E2103F0ECFD2368C31A2B6023B1DE
:1018B000037803B1013023682060184638BD10B5A5
:1018C00004460C2102F0ECF9204610BD10B5044688
:1018D000042102F0E5F9204610BD10B504460421AC
:1018E00002F0DEF9204610BD38B50C46054601F081
:1018F000EBFC844202D101F0E7FC05E001F012FDAF
:10190000844205D101F00EFDBDE8384001F0D0BCA5
:1019100001F0BEFD844205D101F0BAFDBDE83840BA
:1019200001F0AFBD21462846FFF7AEFF38BD08B530
:1019300003F0B0FDB0FA80F0400908BD38B50546A7
:1019400008460C4603F0D3FD214602462846BDE872
:10195000384002F05CB870B5044608460D4603F006
:10196000C6FD2368024629462046BDE87040DB6874
:10197000184713B5026802AB03F8011DD468194675
:101980000122A04702B010BD2DE9F04F07688B4639
:101990003C46456891461422554385B00193AB10EF
:1019A000184D02925D430123002D039323DD029B1A
:1019B0006E1003FB06F004EB0008B8F804A04A46DA
:1019C000D14528BF52465946205803F098FD039B45
:1019D00048B9D14503D1019A13703546E4E78CBF6D
:1019E0000120002000E0C00F0028F6D0AE1B08F157
:1019F0001404013EF1E7E41B0248A410604305B063
:101A0000BDE8F08FCDCCCCCCF0B5036985B00191A9
:101A1000067E13B309B300231D4604AF00F10C0486
:101A200047F8043D394601A8FFF737FF0146A0B14A
:101A300004AB03F8055D039A2046FFF7A5FF9DF868
:101A40000B3053B12368142404FB0034B4F906307E
:101A50000834002BA8BFDEB2E4E7304605B0F0BD85
:101A600010B5094C2368DB070BD42046FEF726FB94
:101A700038B12046FEF727FB044A0549054802F025
:101A800001F9044810BD00BFB8020020C8000020C2
:101A900097180A080C00002010B5094C2368DB07D2
:101AA0000BD42046FEF70AFB38B12046FEF70BFBAD
:101AB000044A0549054802F0E5F8044810BD00BF96
:101AC000E8020020C800002095180A08080000203D
:101AD00038B50025044605604560856005614561AF
:101AE000856140F8245FFFF79BF9FFF7B9FFE061DC
:101AF000FFF7D2FF25732062204638BD10B50A4C8F
:101B00002368DB070ED42046FEF7D8FA50B1074809
:101B1000FFF7DEFF2046FEF7D6FA054A05490348DF
:101B200002F0B0F8014810BDBC020020C002002045
:101B3000C8000020C11F0A080023024A02490348C6
:101B4000FFF778BAA51E0A08351E0A08BD1D0A0847
:101B500000231A4619461846FFF76CBA38B50468D0
:101B600005467CB16368013B63605BB9236820462E
:101B70009B689847A368013BA3601BB92368204674
:101B8000DB689847284638BD0B68036013B15A6874
:101B900001325A60704773B505468E6851F8043BB0
:101BA00002AC44F8083D01A8FFF7EEFF224631469B
:101BB000284601F079FF01A8FFF7D0FF284602B0C0
:101BC00070BD73B505460E6951F8043B02AC44F88C
:101BD000083D01A8FFF7D8FF22463146284601F00C
:101BE0007EFF01A8FFF7BAFF284602B070BD73B5AB
:101BF0000546CE6851F8043B02AC44F8083D01A804
:101C0000FFF7C2FF22463146284601F025FF01A812
:101C1000FFF7A4FF284602B070BD000030B58BB0BE
:101C20000D46014604A8FFF7B6FF04A801F031FEF7
:101C3000E8B104A96846FFF7DAFF0F490298FFF7F9
:101C400076FE044610B12C1C18BF012401A8FFF732
:101C500085FF002CE9D004A96846FFF7B2FF68466B
:101C600001F0F7FD286001A8FFF778FFDDE705A880
:101C7000FFF774FF0BB030BDC0610A0837B50C46E2
:101C80001A492046154603F005FC40B901F01CFB3B
:101C90004FF4165101F008FB01F016FB23E0144944
:101CA000204603F0F7FB40B901F03CFB4FF416511E
:101CB00001F0FAFA01F036FB15E00E49204603F078
:101CC000E9FB78B902A94FF4165341F8043D2846C0
:101CD000FFF7A4FF01F0DCFB019901F0CFFB01F05D
:101CE000D7FB00E0002003B030BD00BFC5610A088B
:101CF000CC610A08CF610A0870B5054604684368DC
:101D0000142606FB0346A64205D004F10800FFF79F
:101D1000F3FF1434F7E72868FFF768FA284670BD28
:101D200070B505460468436804EB0316A64204D068
:101D30002046FFF7BBFB1034F8E72868FFF756FA98
:101D4000284670BD10B504460C30FFF7D5FF20467D
:101D5000FFF7E6FF204610BD10B50446034B40F8E0
:101D6000043BFFF7EFFF204610BD00BFBC5D0A0833
:101D700010B50446FFF7F0FF2046242101F090FF44
:101D8000204610BD10B50446024B0360FFF7E4FF88
:101D9000204610BDB0610A0810B50446FFF7F2FFF7
:101DA0002046242101F07CFF204610BD10B50446DA
:101DB00003681868FFF74CF8204610BD2DE9F04F76
:101DC0009B461B4B85B05B688246C3F308030E46F7
:101DD000904653BBFFF792FE044624300390FFF772
:101DE00035FA237BF3B90123237325686368F6B2C0
:101DF00005EB83094D4513D055F8047B4146381D4A
:101E0000FFF702FE8642F5D33B68CDF800B09B6831
:101E100038469E463246434651467746B847E9E73C
:101E20000023237303A8FFF7C1FF05B0BDE8F08FBF
:101E300000ED00E02DE9F74F9946194B07465B6826
:101E40008846C3F30803164633BBFFF757FE044624
:101E500024300190FFF7FAF9237BD3B901232373D0
:101E6000256863685FFA86FB05EB830A55450ED04B
:101E700055F8046B4946301DFFF7C6FD8345F5D381
:101E800033684246DB68394630469847EEE7002320
:101E9000237301A8FFF78AFF03B0BDE8F08F00BFEE
:101EA00000ED00E02DE9F341154B04465B688846E0
:101EB000C3F30803FBB9FFF721FE06462430019067
:101EC000FFF7C4F996E8A000462605EB8707AF4266
:101ED00007D101A8FFF76AFFB442B4BF0020012078
:101EE0000AE055F8040B41460430FFF78DFD8642A9
:101EF000A8BF0646EBE7002002B0BDE8F08100BFB6
:101F000000ED00E070B504460368426803EB82020E
:101F10009A4218460DD006680D680433AE42F7D1D8
:101F2000011D521A03F053FA63680120013B6360FC
:101F300070BD002070BD1FB5044624300191039090
:101F4000FFF784F901A92046FFF7DCFF20B903A8B9
:101F5000FFF72CFF04B010BD6368002BF7D1FFF72B
:101F6000F7FDF4E770B5044605694369182606FBDA
:101F70000356AE4215D005F110012046FFF7C2FF0F
:101F800063680BB9FFF7E4FDE06929690368DB6862
:101F90009847696919B1206A0368DB689847183562
:101FA000E7E725696369182606FB0356B54204D0A6
:101FB0002846FFF77BFA1835F8E70023636170BD08
:101FC00073B5044602ADFFF7C3FD04F1240045F8E4
:101FD000040DFFF73BF92046FFF7C4FF2846FFF743
:101FE000E5FE606A08B1FEF723FF256963691826DC
:101FF00006FB0356B54204D02846FFF757FA1835BA
:10200000F8E72069FFF7F2F82068FFF7EFF82046BD
:1020100002B070BD03680A6802600B6043684A68DA
:1020200042604B6083688A6882608B60704710B53D
:1020300004460023036043608360FFF7EBFF204604
:1020400010BD8842F8B50446164625D9904224D2E0
:10205000551A143D2C44A1F11407A2F10C050026D9
:10206000A5F108039F4237D084B155F8083C2946B2
:10207000236035F8043C04F10800A38035F9023CE4
:10208000A660E380E6602661FFF7C4FF2846FFF7FD
:1020900033FE143C143DE3E71ED001F10805002790
:1020A000A5F108039E4217D084B155F8083C294693
:1020B000236035F8043C04F10800A38035F9023CA4
:1020C000A760E380E7602761FFF7A4FF2846FFF7DA
:1020D00013FE14341435E3E7F8BDF8B5456883689A
:1020E00004469D420E4617460EDB0135002D05DDE8
:1020F000A9000068FFF782F820B9F8BD0068FFF773
:1021000075F800202060A5602568626805EB8601EF
:1021100005EB8202521A081D03F059F945F82670A2
:102120006368012001336360F8BD37B5044624308D
:102130000D460190FFF78AF82368616803EB810080
:1021400083421A4608D012680433AA42F8D101A883
:10215000FFF72CFE00250EE02A462046FFF7BDFFC4
:1021600005460028F3D06368012B01D1FFF7E4FC9A
:1021700001A8FFF71BFE284603B030BD8842F8B522
:1021800006460C46154614D9904213D2A2F110050A
:102190006C1AA1F110070444AF4218D01CB12946B3
:1021A0002046FFF773F92846FFF780F9103D103CF1
:1021B000F2E70CD0AC420AD01EB121463046FFF700
:1021C00065F92046FFF772F910341036F2E7F8BDD2
:1021D00070B50E1E05460BDD3001FEF7FFFF04460D
:1021E00070B195E8060001EB0212FFF7C7FF00E0AF
:1021F00000242868FEF7FAFF2C60AE60012070BD55
:1022000070BD2DE9F04F92460023462295B0036041
:1022100043608360C3600361436102760291DAF830
:10222000041005469942089309930A9340F39D8050
:1022300008A8FFF7CDFF002840F097808EE02146E8
:102240000BA8FFF723F90BA90FA8099EFFF71EF9AA
:1022500009990A9B9942C0F2CE80013108A8FFF784
:10226000B7FF002840F0C7800FA8FFF71FF90BA8A1
:10227000FFF71CF91434A742E1D10026B1460B96B2
:102280000C960D96099B9E4280F2A880089A330115
:10229000D3580693002B00F09F8014237343CDF88E
:1022A0001C9001930BAC07A906A8FFF7F6FA0746A6
:1022B000002800F0918014AB014603F8399D079A7D
:1022C0002046FFF761FB9DF817800090B8F1000FE2
:1022D00053D1BDF81C300F97ADF840304FF6FF7367
:1022E000CDF84480ADF84230CDF84880CDF84C8030
:1022F0006768A3689F424FDA009B14225343D4F8C7
:1023000000B061680BEB030702FB01B207F1140098
:1023100039460393FFF795FEA7B10F9A039B11A9C6
:102320004BF80320BDF8403007F10800BB80BDF931
:102330004230C7F80890FB80C7F80C90C7F810909F
:10234000FFF768FE63680133636011A8FFF7D4FCF0
:10235000B8F1000F11D00BA8FFF7CEFC08A8FFF7CB
:10236000DFFC284615B0BDE8F08FDAF80040DAF857
:102370000430142707FB03477DE72368009A1424E1
:1023800004FB0234069B1B7823BBDAF80030019A69
:1023900013441B7CE3801DE00137002F0FDD142365
:1023A00003FB07F00393FEF719FF834678B194E827
:1023B0000600039B03FB0212FFF743FE00E0C34647
:1023C0002068FEF713FFC4F800B0A76094E74FF051
:1023D0000108BAE7083466E7013653E708A928463A
:1023E000FFF718FE0BA905F10C00FFF713FE9DF88F
:1023F00008302B76AFE7089B099A03EB061603EB30
:102400000212314606F11000FFF7B8FE1EB10FA907
:102410003046FFF73BF8099B0133099324E700009E
:102420007FB504460E460546084B114644F8043B6A
:1024300001A8FEF7ACFB01AA31462046FFF7E1FEFA
:1024400001A8FEF763FB284604B070BDBC5D0A0816
:10245000F0B50F468BB02B49384616461D46109CEA
:1024600003F018F828BB002C49D0294601A8FFF733
:10247000DEFD2549242001F017FC0546B8B101A96D
:1024800004A8FFF7D4FD04A907A8FEF780FB07AA5C
:1024900031462846FFF7C4FF07A8FEF737FB1B4B62
:1024A0002C622B6004A8FEF731FB194B2B6001A8AE
:1024B0001FE01849384602F0EDFFF0B9FCB129469B
:1024C00004A8FFF7B4FD1049242001F0EDFB0546F8
:1024D00070B104A907A8FEF75AFB07AA314628469F
:1024E000FFF79EFF07A8FEF711FB084B2C622B603D
:1024F00004A8FEF70BFB284602E0002000E020467F
:102500000BB0F0BD21620A0856640A08A8620A08E6
:10251000B0610A0825620A08014A024B1A60704736
:1025200036620A08EC0200202DE9F047089DD0F839
:10253000209004460E461746984600F0C5FE814599
:1025400005D15A4801F0B9F8002840F0AC802B7949
:102550001B0705D56B69564A0021206AFFF749F928
:10256000B8F1000F0DD05B212046FFF702FA41467B
:102570002046FFF7F0F923680222DB684D49204628
:1025800098472B79D90725D5D5F808802F214046C3
:1025900002F0CAFF08B100F1010841462046FFF7EA
:1025A000DAF92B799A0709D53A212046FFF7E1F9A4
:1025B000EB68414A0021206AFFF71BF92B790222C0
:1025C00013F0040F236818BF3C49DB6808BF3C497F
:1025D000204698472B795B0718D529690A46134688
:1025E00013F8010B38B1202801D1194601E0282841
:1025F00001D01A46F3E72368521ADB682046984751
:1026000023680422DB682F4920469847002138467A
:10261000FEF708FD01462046FFF79DF923680222D8
:10262000DB682749204698471EB131462046FFF710
:1026300092F92B7913F0300F2DD023682046DB68F8
:102640000222214998472B79D8060BD52368072207
:10265000DB681E4920469847AB691D4A0021206A65
:10266000FFF7C7F82B79990611D5DA0605D5236847
:102670000222DB6811492046984723681549204605
:10268000DB680A229847E9692046FFF764F95D2173
:102690002046FFF76EF923682046BDE8F047DB6867
:1026A00002220D491847BDE8F08700BF94030020BF
:1026B0003A620A0841620A0844620A08455E0A084A
:1026C00049620A0847620A084C620A084F620A080F
:1026D00057620A085A620A0865620A082DE9F0433F
:1026E00085B0D0F8208006460F4691461D460C9CCA
:1026F00000F0EAFD804505D14A4800F0DEFF0028E1
:1027000040F08C80336A484A4FF0000801A80192DB
:1027100003938DF8088001F0E6F841464846FEF73D
:1027200081FC80464149012201A801F061F941463E
:10273000FFF704F93FB13E49012201A801F058F921
:102740003946FFF7FBF83DB13A49012201A801F0F3
:102750004FF92946FFF7F2F82379DF070ED5A56870
:102760002F21284602F0E0FE00B1451C324901222B
:1027700001A801F03DF92946FFF7E0F823799D070C
:1027800007D52E49022201A801F032F9E16801F0D3
:10279000B7F82379580716D525692F463B4613F815
:1027A000012B3AB1202A01D11D4601E0282A01D08F
:1027B0001F46F3E70222224901A801F019F97A1B0A
:1027C000294601F024F92379190707D51D4901226B
:1027D00001A801F00DF9616901F0A4F82379DA0686
:1027E00008D5042218490DEB020001F001F9A16996
:1027F00001F086F823799B0607D51449062201A823
:1028000001F0F6F8E169FFF799F801A801F055F831
:10281000306A022203680E49DB68984705B0BDE8BC
:10282000F08300BF9403002098610A08CA610A0877
:10283000E0610A0899620A08DF5E0A0868620A080D
:102840006B620A08F5610A086E620A0873620A0878
:1028500065620A08F0B5144B144F1E68144B064409
:1028600018683B6806449E428BB01BD00AA840F80B
:10287000286D02F095FC0446436901AD03F26C73C8
:1028800043610FCC0FC50FCC0FC5D4F800E0094C45
:10289000C5F800E001AD0FCD0FC40FCD0FC43E60F1
:1028A000C4F800E00BB0F0BD200300201C030020A2
:1028B00018030020F002002008B50020FEF77EFC7F
:1028C00028B1FEF763FC80F00100C0B208BD012012
:1028D00008BD000008B5FFF7BDFF024B18690130C5
:1028E00008BD00BFF002002008B5FEF781FA034BD7
:1028F0001B681844024B1B68184408BD20030020C5
:102900001803002010B50949044602F039FA60B9ED
:102910000749204602F052FA38B90649204602F02B
:1029200091F802F055FA044B186010BD000040C148
:1029300000006041000061452003002010B5002028
:10294000FEF75EFA044668B9FEF77CFB01280BD15E
:102950002046FEF79FFB38B9FFF7AEFF30B9FEF710
:1029600005FCF9E7012010BD002010BDFFF7A4FF12
:102970000020FEF745FA003018BF012010BD08B551
:10298000FFF7DCFFBDE80840FEF732BA08B5FFF7F5
:10299000F6FFFFF75FFF014B986808BDF0020020CB
:1029A00008B5FFF7ECFFFFF755FF014B586808BD6E
:1029B000F002002008B5FFF7E2FFFFF74BFF014BE5
:1029C000186808BDF002002008B5FFF7D8FFFFF730
:1029D00041FF014BD86808BDF002002008B5FFF7A1
:1029E000CEFFBDE80840FFF775BF000008B5FFF750
:1029F000C6FFFFF72FFF014B586908BDF00200200A
:102A0000024B1A68024B1A60704700BF100000208A
:102A1000140300200021FEF725BB10B5836804468F
:102A200013B1032201469847204610BD10B5044655
:102A3000FFF7F3FF204610BD13B50B46044603C84D
:102A40008DE8030093E8030084E803009DE8030099
:102A500083E8030002B010BD034800238360034AEB
:102A6000034901F00FB900BF24030020C800002073
:102A70002D2A0A0808B5144B33B100F025FC036871
:102A80001B699847002816DC104B33B100F000FD9D
:102A900003681B699847002810DC0D4B0BB1AFF39E
:102AA00000800C4B7BB100F03DFC03681B6998472C
:102AB000002806DC08BDAFF30080E5E7AFF3008037
:102AC000EBE7AFF3008008BD00000000000000004D
:102AD000000000000000000008B5FFF7CBFFFEF784
:102AE0007FF9014B186008BDAC0300200248034A7F
:102AF0000349121A02F060BC004002400440024048
:102B000098660A0807B5002300931A466FF077010C
:102B1000FEF7D2FA03B05DF804FB000007B5438866
:102B20000A2B08D0502B09D1094B1B683BB103B0CD
:102B30005DF804EB1847FFF7E5FF06E0002300937C
:102B40001A466FF07701FEF7B7FA03B05DF804FBA1
:102B50003403002038B5104C104D2368AB42104BA5
:102B60000CBF012200221A7002D0FFF7BFFF2560C0
:102B7000FEF726F9044602F04DFC0A4B13B120463D
:102B8000AFF3008000210748FEF720FBBDE8384086
:102B900000210548FEF786BA004002401E1C279A15
:102BA00038030020000000001D2B0A087047002099
:102BB000704710B50446102101F072F8204610BD90
:102BC00008B508B1FFF7F5FF08BD002202604FF617
:102BD0009C72828010B5B1F9044084808A800268BA
:102BE0000C6804600A6010BD10B504460068FEF76A
:102BF000FDFA204610BD38B5C468F4B12378022B25
:102C000003D104F10C00FFF7EFFF656835B12846EA
:102C1000FFF703FF1021284601F042F8A56835B1FF
:102C20002846FFF7FAFE1021284601F039F8204621
:102C3000BDE83840142101F033B838BD13B504465F
:102C400091E8050000234B600B602060626001A8E2
:102C500001930093FEF782FF204602B010BDF7B546
:102C60000C4606460F4654F8043B02AD45F8083DB5
:102C7000214601A8FEF788FF29463046FFF7DEFF10
:102C800001A8FEF76BFF2046FEF768FF38460821D3
:102C900001F006F8304603B0F0BD000038B500235F
:102CA0000446036010200D46FDF7F9F928B1012311
:102CB00043608360024BC56003602060204638BDDE
:102CC00018630A08826810B50AB900F0FCFFC368EF
:102CD000BDE81040184708B5006800F11001FFF783
:102CE000F1FF08BD826810B50AB900F0ECFFC368B7
:102CF000BDE81040184708B5006800F11001FFF763
:102D0000F1FF08BD38B5002383608B6804460D468B
:102D10002BB102229847EB68E360AB68A3602046C2
:102D200038BD0000F0B589B004686846FFF74DFF74
:102D30004FF0020200238DF80830D4E84F3F002BFB
:102D400003D1C4E8412F0029F7D102D08DF8083013
:102D500063E014F10C0503D069462846FFF735FF00
:102D6000BFF35F8F01236370BFF35F8F04F108032C
:102D7000002053E8006F43E80002002AF9D1BFF3B6
:102D80005F8F002E49D0FEF775F920B129463046F5
:102D9000FFF798FF3AE0314602A8FFF7B3FFE0687B
:102DA000B4F9105008B102F087FB06901020ADF87E
:102DB0001C50FDF774F90546E8B10027876018201C
:102DC000FDF76DF9044688B10146876002A8FFF758
:102DD00033FE049BA268A360059B0492E26806A9E7
:102DE000E36004F110000592FFF7EFFE0D4B2C603D
:102DF000EB600D4BAB6006A8FFF7F6FE02A8FFF7ED
:102E00000CFE002229460948FEF73CF93046FFF740
:102E100004FE1021304600F043FF6846FFF7E4FE51
:102E200009B0F0BDD72C0A084D2F0A0811350A0841
:102E30002DE9F04F8BB006460F46904699469DF817
:102E400050A0FEF7A3F907AD834630BB4FF62E73B3
:102E5000059005A92846ADF81830FFF7B6FE1420F6
:102E6000FDF71DF9044658B1022303700123437096
:102E7000C0F804B0C0F808B029460C30FFF7A5FE32
:102E80003046214640F8044BFFF708FF2846FFF77D
:102E9000ABFE05A8FFF7A8FE52E000240C23142087
:102EA0006C60AC600793FDF7FAF8014618B1047046
:102EB00044704460846004A80391FFF7EFFE224B46
:102EC00008200893FDF7EBF8044628B1039B04A9FA
:102ED00040F8043BFEF758FE00955FFA8AF34A4635
:102EE000414638460994FEF759F920B9039B5B78AF
:102EF00003F0FF0283B1039B04A906A80593FEF724
:102F000043FE05A93046FFF799FE06A8FEF726FE08
:102F100004A8FEF723FE13E04FF69C7305A903A84F
:102F20000592ADF81830FFF7FDFE05A8FFF75CFE2F
:102F300005A80999FFF793FE06A8FEF70FFEDAE74A
:102F400030460BB0BDE8F08FBD300A08022AF8B554
:102F5000044606D0032A17D0012A22D10B68036049
:102F60001FE018200E68FDF79AF8054650B131466B
:102F7000FFF7C8FE3069B6F9147008B102F09CFA88
:102F80002861AF8225600CE0046854B104F11000A0
:102F9000FFF72AFE2046FFF740FD1821204600F0EB
:102FA0007FFE0020F8BD38B5002383608B6804469F
:102FB0000D462BB102229847EB68E360AB68A36033
:102FC000204638BD022A70B5044606D0032A11D027
:102FD000012A18D10B68036015E014200E68FDF774
:102FE0005EF8054620B13146FFF7DDFF337C2B74D8
:102FF000256008E0046834B12046FFF70EFD142177
:10300000204600F04DFE002070BD0000F0B50C46DB
:10301000BFF35F8F87B0002350E8006F40E80032B5
:10302000002AF9D1BFF35F8F002E3FD01846FEF77C
:1030300021F8074620B121463046FFF753FE2EE027
:10304000314601A8FFF7AFFF237810208DF8143028
:10305000FDF725F80546D0B187601420FDF71FF86D
:10306000044678B18760014601A8FFF7E5FC039BA1
:10307000A268A360049B0392E268E3609DF81430A9
:10308000049223740A4B2C60EB600A4BAB6001A8DE
:10309000FFF7C3FC002229460748FDF7F3FF30463F
:1030A000FFF7BBFC1021304600F0FAFD07B0F0BD81
:1030B000F72C0A08C52F0A0811350A0830B504464E
:1030C00085B00D4668461146FFF7C9FD7CB124B2B4
:1030D00028460DB102F0F0F9029002A96846ADF859
:1030E0000C40FFF71FFE02A8FFF77EFD1DE04FF02A
:1030F000010200988DF80840D0E84F3FA34203D169
:10310000C0E8412F0029F7D102D08DF808300CE03B
:1031100010F10C014FF0010318BF0373BFF35F8F71
:10312000043000F8033CFFF771FF01A8FEF716FD1D
:1031300005B030BD704710B50446182100F0B0FD51
:10314000204610BDF8B50F4600F10806051D002405
:1031500016F8011D0A223846FEF72CFBAE42044445
:1031600007D0002CF4D02E213846FEF70AFB044489
:10317000EEE72046F8BD000010B50446044B1122CE
:1031800040F8043B002102F03DF9204610BD00BF8D
:1031900034630A080346074A10B543F8042B01F1CB
:1031A000100251F8044B914243F8044BF9D10A78CC
:1031B0001A7010BD34630A08024A4160026004229A
:1031C0000275704734630A0810B59DF8084044EA58
:1031D000032343EA024242EA01610423416003758A
:1031E00010BD000037B5044D05609DF818500095DE
:1031F000FFF7EAFF03B030BD34630A08417470473B
:10320000704708B50021007CFDF7DCFE30EA2000A5
:1032100028BF4FF0FF3008BD08B50121007CFDF745
:10322000D1FE30EA200028BF4FF0FF3008BD08B5BE
:10323000007CFDF7BFFE20EAE07008BD08B5007C09
:10324000FDF7B0FE20EAE07008BD007CFDF7CABEC5
:1032500010B50446142100F023FD204610BD38B5FA
:103260000446007C0D46FDF7A5FE002801DC607CCD
:1032700028B12946207CFDF7ADFE20EAE07038BD7C
:1032800010B50446002363604FF47A73A360054BC6
:10329000084623600123217463741146FDF76AFE1A
:1032A000204610BD48630A080022007CFDF76ABE74
:1032B000007CFDF76FBE10B504461422002102F019
:1032C000A1F8204610BD000030B50E4D87B001A812
:1032D000FFF7F1FF296811F0010410D12846FCF72F
:1032E000EDFE60B101AA21460748FFF7C9FF284655
:1032F000FCF7E9FE054A0649034800F0C3FC024812
:1033000007B030BD3C03002044030020C80000206B
:1033100001320A0810B504461422002102F072F8A6
:10332000204610BD10B50E4C86B001A8FFF7F2FF85
:103330002368DB0710D42046FCF7C0FE60B101AA69
:1033400001210848FFF79CFF2046FCF7BCFE064A17
:103350000649044800F096FC024806B010BD00BFC4
:103360004003002058030020C800002001320A0852
:1033700000470000F0B51C4685B00E4617460546CE
:10338000FDF706FD002084424FF0040303908DF802
:103390000C30B4BF03469DF828303246A4BF8DF8E8
:1033A0000E3003AB009306493B462846A8BF8DF874
:1033B0000D40FDF7E5FCB0FA80F0400905B0F0BD26
:1033C00071330A0870474174704708B5007CFDF7F7
:1033D00087FD20EAE07008BD08B5007CFDF758FDC8
:1033E00020EAE07008BD08B5007CFDF761FD30EA19
:1033F000200028BF4FF0FF3008BD08B5007CFDF766
:103400004FFD30EA200028BF4FF0FF3008BD007CA0
:10341000FDF756BD10B50446142100F041FC2046CE
:1034200010BD70B5457C04460E4625B9007CFDF7FD
:1034300057FD002805DD3146207CBDE87040FDF7D2
:103440001FBD284670BD000010B504460846114651
:10345000002262604FF47A72A260054A20742260F2
:10346000012262741A46FDF7FBFC204610BD00BF26
:1034700078630A080023007CFDF73ABD0022FFF7BD
:10348000F9BF007CFDF7F4BC007CFDF721BD000016
:10349000F8B5194C25684DB98420FCF700FE0646A6
:1034A00018B18422294601F0ADFF2660134D2E6825
:1034B0004EB98420FCF7F3FD074618B1842231464B
:1034C00001F0A0FF2F600E4F396811F0010611D1F5
:1034D0003846FCF7F3FD68B1226831462B6809488D
:1034E000FFF7B2FF3846FCF7EEFD074A07490548EB
:1034F00000F0C8FB0348F8BD8803002080030020CB
:10350000840300206C030020C8000020C5330A0893
:1035100010B5836804460BB900F0D5FBC368984723
:10352000A3681BB103222146204698472046BDE8E8
:103530001040102100F0B4BB7047F8B506461546A0
:103540000C468F18BC4206D0336814F8011B9B68E8
:1035500030469847F6E72846F8BD0022007CFDF784
:10356000CFBC0021007CFDF7D3BC0021007CFDF71F
:10357000D7BC0021007CFDF7DBBC0021007CFDF7FF
:10358000DFBC10B50446142100F08AFB204610BDB4
:1035900010B50446002363604FF47A73A360044BB4
:1035A0002174084623601146FDF7DAFC204610BD61
:1035B000A8630A080021007CFDF7CABCF0B51646D6
:1035C00089B011220F460446002103A801F01AFF1A
:1035D000304601F08CFF0025009581B27B6803AA7C
:1035E0003046FDF707FD20B129462046FFF7E4FDF0
:1035F00003E003A92046FFF7CDFD204609B0F0BD4A
:10360000002211464068FDF799BD0022114640682E
:10361000FDF7A4BD00224068FDF798BD002281F0AF
:1036200001014068FDF782BD00231A461946406833
:10363000FDF774BD002202214068FDF757BD00234D
:103640001A464068FDF742BD024B04225A60024A06
:103650001A6070478C030020D0630A0800231A46C2
:103660004068FDF733BD002202214068FDF73EBDF2
:10367000002211464068FDF731BD00221146406826
:10368000FDF73CBD00231A4619464068FDF73EBDD4
:1036900000231A4619464068FDF740BD002281F01C
:1036A00001014068FDF742BD00224068FDF74EBDB4
:1036B000002211464068FDF751BD002211464068C6
:1036C000FDF73CBD70B516468EB0044608A8FFF75E
:1036D00053FD1122002103A801F094FE304601F0B1
:1036E00006FF00250A4B009581B25B6803AA3046AD
:1036F000FDF780FC20B129462046FFF75DFD03E081
:1037000003A92046FFF746FD20460EB070BD00BF5E
:103710008C030020024B034A1A6000225A60704753
:103720009403002004640A0800F11002012312F837
:10373000101C1046012904D152F8041C03EB41036C
:1037400004E0022904BF52F8041C5B18013B02F19B
:103750001002ECD170470EB42DE9F04187B000AFF4
:1037600007F1340454F8046B054623463246102111
:1037700007F108007C60FDF751FD0F2816D900F114
:10378000080323F00703E846ADEB030D3246411C66
:10379000234668467C60FDF741FD021E04DD2B6870
:1037A00069469B6828469847C54607E030B12B68B4
:1037B00002469B6807F10801284698471C37BD461A
:1037C000BDE8F04103B0704710B5044603689B683C
:1037D0009847A368013BA3602BB923682046BDE846
:1037E0001040DB68184710BD13B5026802AB03F840
:1037F000011D946819460122A04702B010BD8368DC
:10380000FBB11A78032A1AD8DFE802F00417021D68
:103810000520704702685B685268D05C2D2814D080
:10382000A0F13003092B10D9742810D066280ED0CF
:10383000A0F16E035842584170470620704700209F
:1038400070471846704704207047032070470220D5
:10385000704710B50446FFF7D2FF02280DD016D3EB
:10386000042814D82268A36850685B680A220021E3
:103870001844BDE8104001F0F1BE2268A368526808
:103880005B68D05CA0F174035842584110BD002021
:1038900010BD10B5436904465BB18068013BE06030
:1038A0001030A060206163612BB1FFF73DFFA06085
:1038B00001E0184610BD012010BD10B504467D2161
:1038C000FFF792FF01232371204610BD08B503794D
:1038D000012B02D0022B02D008BD2C2100E03A219E
:1038E000FFF782FF08BD10B50446FFF7EFFF204643
:1038F0007B21FFF779FF00232371204610BD0000D4
:1039000038B504460D46FFF7E1FF23682046DB6823
:103910002A460349984701232371204638BD00BF3A
:1039200044620A0838B504460D46FFF7CFFF236806
:103930002046DB682A460349984701232371204625
:1039400038BD00BF3F640A08F8B50D46174622216E
:103950000446FFF749FF2A4629462F44BA4238D089
:10396000164616F8015B222D03D05C2D01D01F2DC9
:103970002DD82368521A9B68204698475C21204620
:10398000FFF732FF0C2D19D007D8092D0FD00A2DC3
:1039900012D0082D14D162210AE0222D05D05C2D11
:1039A00003D00D2D0CD1722102E0294600E07421D4
:1039B0002046FFF719FF09E06E21F9E76621F7E7D6
:1039C00023682A46DB680949204698473146324633
:1039D000C4E7914204D02368521A9D682046A84744
:1039E00022212046FFF700FFF8BD00BF50640A08FF
:1039F00070B504460D461646FFF768FF204632466E
:103A00002946FFF7A1FF02232371204670BD70B540
:103A100004460D461646FFF759FF20463246294612
:103A2000FFF792FF01232371204670BD38B50C6863
:103A3000036805469C420CD014B16368013363608F
:103A4000286828B14368013B43600BB9FFF7BCFE0F
:103A50002C60284638BD000010B5044600230360E2
:103A600043601048E360A060D1B10B78032B06D00F
:103A7000B3B9136858684B68C35C6E2B08D01368E1
:103A800058684B680344A3608B6849685B1AE3601D
:103A90001146204651F8043B40F8043BFFF7C6FFAF
:103AA000204610BD405F0A08002310B5044603609D
:103AB00043608360C3600361436171B10B78012B84
:103AC0000BD101F110038360CB681146436151F8BB
:103AD000043B40F8043BFFF7A9FF204610BD00233C
:103AE00010B5044603604360816031B1114651F85E
:103AF000043B40F8043BFFF799FF204610BD10B58A
:103B00000446806808B1FDF793F9204610BD000017
:103B100070B51A4E0446316811F001050FD13046D8
:103B2000FCF7CCFA58B129461548FDF792FB304610
:103B3000FCF7C9FA134A1449114800F0A3F81048D9
:103B4000FDF796FB28B1A4F10D03022B01D800204C
:103B500070BD00F071F8FFF72DFD08B1012CF6D90A
:103B6000FFF796FCFFF790FC18B1A4F11203012BAC
:103B7000EDD9172C8CBF0020012070BD9C030020C4
:103B8000A0030020C8000020FF3A0A08172838B513
:103B900004460D460AD8FF2908D0FFF7B9FF28B11F
:103BA00029462046BDE83840FDF7D2B838BD10B5EB
:103BB0000446FDF7D5F80438C0B2012808D92046DC
:103BC000FFF7A6FF20B12046BDE81040FDF7D0B8B2
:103BD000002010BD13B5084C00231A461946009367
:103BE0002046FFF7FFFA2046044A054902B0BDE827
:103BF000104000F047B800BFB0030020C80000200C
:103C000035310A0870B5044614252A46094E0021AC
:103C100001F0F8FB258020253146A5602561284666
:103C200000F040F831466060284600F03BF8E06064
:103C3000204670BD56640A0830B50E4D87B029681D
:103C400011F0010413D12846FCF738FA78B101A825
:103C5000FFF7D8FF01AA21460748FFF799FC28463D
:103C6000FCF731FA054A0649034800F00BF8024810
:103C700007B030BDC8030020CC030020C8000020DE
:103C800039350A080B460146184601F07BBA000098
:103C9000024B1868BFF35F8F704700BFE00300203E
:103CA000FCF7FFB900F000B810B5002814BF0446B7
:103CB00001242046FDF792FA20B9FFF7E9FF08B189
:103CC0008047F6E710BD08B5FDF7B0FA184B1A6843
:103CD000D1075CBF01221A60164B1A68D2075CBF7D
:103CE00001221A60144B1A68D0075CBF01221A60C7
:103CF000124B1A68D1075CBF01221A60104B1A6878
:103D0000D2075CBF01221A600E4B1A68D0075CBF55
:103D100001221A600C4B1A68D1075CBF01221A609D
:103D20000A4B1A68D2075CBF01221A60704700BFB5
:103D300000040020FC030020F8030020F40300200E
:103D4000F0030020EC030020E8030020E40300203F
:103D5000244B1A68D0075CBF01221A60224B1A68F4
:103D6000D1075CBF01221A60204B1A68D2075CBFE2
:103D700001221A601E4B1A68D0075CBF01221A602C
:103D80001C4B1A68D1075CBF01221A601A4B1A68D3
:103D9000D2075CBF01221A60184B1A68D0075CBFBB
:103DA00001221A60164B1A68D1075CBF01221A6003
:103DB000144B1A68D2075CBF01221A60124B1A68B2
:103DC000D0075CBF01221A60104B1A68D1075CBF94
:103DD00001221A600E4B1A68D2075CBF01221A60DA
:103DE000704700BF300400202C040020280400206D
:103DF00024040020200400201C04002018040020BB
:103E000014040020100400200C04002008040020EA
:103E100004040020244B1A68D0075CBF01221A60FA
:103E2000224B1A68D1075CBF01221A60204B1A6826
:103E3000D2075CBF01221A601E4B1A68D0075CBF14
:103E400001221A601C4B1A68D1075CBF01221A605C
:103E50001A4B1A68D2075CBF01221A60184B1A6805
:103E6000D0075CBF01221A60164B1A68D1075CBFED
:103E700001221A60144B1A68D2075CBF01221A6033
:103E8000124B1A68D0075CBF01221A60104B1A68E7
:103E9000D1075CBF01221A600E4B1A68D2075CBFC3
:103EA00001221A60704700BF600400205C040020FB
:103EB0005804002054040020500400204C0400202A
:103EC0004804002044040020400400203C0400205A
:103ED0003804002034040020184B1A68D1075CBF56
:103EE00001221A60164B1A68D2075CBF01221A60C1
:103EF000144B1A68D0075CBF01221A60124B1A6873
:103F0000D1075CBF01221A60104B1A68D2075CBF50
:103F100001221A600E4B1A68D0075CBF01221A609A
:103F20000C4B1A68D1075CBF01221A600A4B1A6851
:103F3000D2075CBF01221A60704700BF80040020D6
:103F40007C04002078040020740400207004002009
:103F50006C040020680400206404002000000000BD
:103F6000C1F30A522DE9F843A2F2FF36132E0B4695
:103F700004460D46884607461CDC002E3FDB3A4AC5
:103F8000864642FA06F901EA0902024317D034A331
:103F9000D3E9002300F072F80022002300F0B0FC07
:103FA00020B1002D40DB28EA0905002738462946C4
:103FB000BDE8F883332E06DDB6F5806F2FD020469E
:103FC0001946BDE8F883A2F213424FF0FF3929FAEF
:103FD00002F910EA090FF2D021A3D3E9002300F07F
:103FE0004DF80022002300F08BFC0028DED0002DCD
:103FF00020DB454627EA090738462946D8E718A3B3
:10400000D3E9002300F03AF80022002300F078FC06
:104010000028CBD0002D18DB00273D46C6E702461E
:104020000B4600F02BF8CCE74FF4801343FA06F66A
:10403000B044B8E7142E10D00123C6F1340603FAB9
:1040400006F6371928BF9844D3E725F00042074BFE
:10405000224318BF1D460027A8E705F10108C8E75D
:104060009C7500883CE4377EFFFF0F000000F0BF26
:1040700081F0004102E000BF83F0004330B54FEA19
:1040800041044FEA430594EA050F08BF90EA020F86
:104090001FBF54EA000C55EA020C7FEA645C7FEA19
:1040A000655C00F0E2804FEA5454D4EB5555B8BF3C
:1040B0006D420CDD2C4480EA020281EA030382EAAD
:1040C000000083EA010180EA020281EA0303362D3F
:1040D00088BF30BD11F0004F4FEA01314FF4801C12
:1040E0004CEA113102D0404261EB410113F0004F24
:1040F0004FEA03334CEA133302D0524263EB4303DB
:1041000094EA050F00F0A780A4F10104D5F1200E78
:104110000DDB02FA0EFC22FA05F2801841F10001D3
:1041200003FA0EF2801843FA05F359410EE0A5F1A7
:1041300020050EF1200E012A03FA0EFC28BF4CF0D8
:10414000020C43FA05F3C01851EBE37101F000458E
:1041500007D54FF0000EDCF1000C7EEB00006EEB9B
:104160000101B1F5801F1BD3B1F5001F0CD3490825
:104170005FEA30004FEA3C0C04F101044FEA44527C
:1041800012F5800F80F09A80BCF1004F08BF5FEA03
:10419000500C50F1000041EB045141EA050130BDE3
:1041A0005FEA4C0C404141EB010111F4801FA4F186
:1041B0000104E9D191F0000F04BF01460020B1FADB
:1041C00081F308BF2033A3F10B03B3F120020CDA13
:1041D0000C3208DD02F1140CC2F10C0201FA0CF0F1
:1041E00021FA02F10CE002F11402D8BFC2F1200C56
:1041F00001FA02F120FA0CFCDCBF41EA0C0190400C
:10420000E41AA2BF01EB0451294330BD6FEA040454
:104210001F3C1CDA0C340EDC04F11404C4F120023F
:1042200020FA04F001FA02F340EA030021FA04F351
:1042300045EA030130BDC4F10C04C4F1200220FAA8
:1042400002F001FA04F340EA0300294630BD21FAE6
:1042500004F0294630BD94F0000F83F4801306BFAC
:1042600081F480110134013D4EE77FEA645C18BFA0
:104270007FEA655C29D094EA050F08BF90EA020F37
:1042800005D054EA000C04BF1946104630BD91EA2F
:10429000030F1EBF0021002030BD5FEA545C05D132
:1042A0004000494128BF41F0004130BD14F5800471
:1042B0003CBF01F5801130BD01F0004545F0FE41E5
:1042C00041F470014FF0000030BD7FEA645C1ABF1A
:1042D000194610467FEA655C1CBF0B46024650EA51
:1042E000013406BF52EA033591EA030F41F400217D
:1042F00030BD00BF90F0000F04BF0021704730B503
:104300004FF4806404F132044FF000054FF00001D7
:1043100050E700BF90F0000F04BF0021704730B598
:104320004FF4806404F1320410F0004548BF40426D
:104330004FF000013EE700BF42004FEAE2014FEAC2
:1043400031014FEA02701FBF12F07F4393F07F4F9D
:1043500081F06051704792F0000F14BF93F07F4FCF
:10436000704730B54FF4607401F0004521F0004112
:1043700020E700BF50EA010208BF704730B54FF098
:1043800000050AE050EA010208BF704730B511F09D
:10439000004502D5404261EB41014FF4806404F1D5
:1043A00032045FEA915C3FF4DCAE4FF003025FEA57
:1043B000DC0C18BF03325FEADC0C18BF033202EBDF
:1043C000DC02C2F1200300FA03FC20FA02F001FA39
:1043D00003FE40EA0E0021FA02F11444C1E600BFD8
:1043E00070B54FF0FF0C4CF4E06C1CEA11541DBF8B
:1043F0001CEA135594EA0C0F95EA0C0F00F0DEF856
:104400002C4481EA030621EA4C5123EA4C5350EA3A
:10441000013518BF52EA033541F4801143F480138B
:1044200038D0A0FB02CE4FF00005E1FB02E506F01C
:104430000042E0FB03E54FF00006E1FB03569CF071
:10444000000F18BF4EF0010EA4F1FF04B6F5007F77
:1044500064F5407404D25FEA4E0E6D4146EB0606E9
:1044600042EAC62141EA55514FEAC52040EA5E5072
:104470004FEACE2EB4F1FD0C88BFBCF5E06F1ED81C
:10448000BEF1004F08BF5FEA500E50F1000041EB53
:10449000045170BD06F0004646EA010140EA020000
:1044A00081EA0301B4EB5C04C2BFD4EB0C0541EA22
:1044B000045170BD41F480114FF0000E013C00F337
:1044C000AB8014F1360FDEBF002001F0004170BD5B
:1044D000C4F10004203C35DA0C341BDC04F1140474
:1044E000C4F1200500FA05F320FA04F001FA05F200
:1044F00040EA020001F0004221F0004110EBD370CD
:1045000021FA04F642EB06015EEA430E08BF20EAF8
:10451000D37070BDC4F10C04C4F1200500FA04F39B
:1045200020FA05F001FA04F240EA020001F000412D
:1045300010EBD37041F100015EEA430E08BF20EAA0
:10454000D37070BDC4F1200500FA05F24EEA020EE8
:1045500020FA04F301FA05F243EA020321FA04F017
:1045600001F0004121FA04F220EA020000EBD370CE
:104570005EEA430E08BF20EAD37070BD94F0000FCE
:104580000FD101F00046400041EB010111F4801F02
:1045900008BF013CF7D041EA060195F0000F18BFB3
:1045A000704703F00046520043EB030313F4801FEF
:1045B00008BF013DF7D043EA0603704794EA0C0FA9
:1045C0000CEA135518BF95EA0C0F0CD050EA4106BF
:1045D00018BF52EA4306D1D181EA030101F000413C
:1045E0004FF0000070BD50EA410606BF1046194664
:1045F00052EA430619D094EA0C0F02D150EA013670
:1046000013D195EA0C0F05D152EA03361CBF1046B0
:1046100019460AD181EA030101F0004141F0FE414F
:1046200041F470014FF0000070BD41F0FE4141F4D3
:10463000780170BD70B54FF0FF0C4CF4E06C1CEAD3
:1046400011541DBF1CEA135594EA0C0F95EA0C0F88
:1046500000F0A7F8A4EB050481EA030E52EA033543
:104660004FEA013100F088804FEA03334FF0805564
:1046700045EA131343EA12634FEA022245EA111591
:1046800045EA10654FEA00260EF000419D4208BF42
:10469000964244F1FD0404F5407402D25B084FEAEF
:1046A0003202B61A65EB03055B084FEA32024FF49B
:1046B00080104FF4002CB6EB020E75EB030E22BFF8
:1046C000B61A754640EA0C005B084FEA3202B6EBB8
:1046D000020E75EB030E22BFB61A754640EA5C0067
:1046E0005B084FEA3202B6EB020E75EB030E22BFF7
:1046F000B61A754640EA9C005B084FEA3202B6EBF8
:10470000020E75EB030E22BFB61A754640EADC00B6
:1047100055EA060E18D04FEA051545EA16754FEA18
:1047200006164FEAC30343EA52734FEAC2025FEA36
:104730001C1CC0D111F4801F0BD141EA00014FF0C5
:1047400000004FF0004CB6E711F4801F04BF014396
:104750000020B4F1FD0C88BFBCF5E06F3FF6AFAEB2
:10476000B5EB030C04BFB6EB020C5FEA500C50F142
:10477000000041EB045170BD0EF0004E4EEA1131C5
:1047800014EB5C04C2BFD4EB0C0541EA045170BDCC
:1047900041F480114FF0000E013C90E645EA060E10
:1047A0008DE60CEA135594EA0C0F08BF95EA0C0F3E
:1047B0003FF43BAF94EA0C0F0AD150EA01347FF486
:1047C00034AF95EA0C0F7FF425AF104619462CE75D
:1047D00095EA0C0F06D152EA03353FF4FDAE1046C0
:1047E000194622E750EA410618BF52EA43067FF411
:1047F000C5AE50EA41047FF40DAF52EA43057FF4A1
:10480000EBAE12E74FF0FF3C06E000BF4FF0010CAB
:1048100002E000BF4FF0010C4DF804CD4FEA410C0F
:104820007FEA6C5C4FEA430C18BF7FEA6C5C1BD0DC
:1048300001B050EA410C0CBF52EA430C91EA030F5D
:1048400002BF90EA020F0020704710F1000F91EABA
:10485000030F58BF994208BF90422CBFD8176FEA88
:10486000E37040F0010070474FEA410C7FEA6C5C56
:1048700002D150EA013C07D14FEA430C7FEA6C5C5D
:10488000D6D152EA033CD3D05DF8040B704700BF89
:104890008446104662468C461946634600E000BFD7
:1048A00001B5FFF7B7FF002848BF10F1000F01BDA9
:1048B0004DF808EDFFF7F4FF0CBF012000205DF874
:1048C00008FB00BF4DF808EDFFF7EAFF34BF0120F9
:1048D00000205DF808FB00BF4DF808EDFFF7E0FF92
:1048E00094BF012000205DF808FB00BF4DF808EDE3
:1048F000FFF7CEFF94BF012000205DF808FB00BF4A
:104900004DF808EDFFF7C4FF34BF012000205DF82B
:1049100008FB00BF4FEA410212F5001215D211D573
:104920006FF47873B3EB625212D94FEAC12343F0AC
:10493000004343EA505311F0004F23FA02F018BF2E
:10494000404270474FF00000704750EA013005D1F7
:1049500011F0004008BF6FF0004070474FF00000BA
:10496000704700BF4A0011D212F5001211D20DD5C6
:104970006FF47873B3EB62520ED44FEAC12343F065
:10498000004343EA505323FA02F070474FF000000F
:10499000704750EA013002D14FF0FF3070474FF0BE
:1049A000000070474FEA4102B2F1E04324BFB3F583
:1049B000001CDCF1FE5C0DD901F0004C4FEAC00296
:1049C0004CEA5070B2F1004F40EB830008BF20F07A
:1049D0000100704711F0804F21D113F13872BCBF34
:1049E00001F00040704741F480114FEA5252C2F189
:1049F0001802C2F1200C10FA0CF320FA02F018BFD2
:104A000040F001004FEAC1234FEAD32303FA0CFC24
:104A100040EA0C0023FA02F34FEA4303CCE77FEAB3
:104A2000625307D150EA01331EBF4FF0FE4040F4FD
:104A30004000704701F0004040F0FE4040F40000AC
:104A4000704700BF4FF0FF0C1CEAD0521EBF1CEA9B
:104A5000D15392EA0C0F93EA0C0F6FD01A4480EAFC
:104A6000010C400218BF5FEA41211ED04FF00063E5
:104A700043EA501043EA5111A0FB01310CF0004011
:104A8000B1F5000F3EBF490041EAD3715B0040EA37
:104A9000010062F17F02FD2A1DD8B3F1004F40EB07
:104AA000C25008BF20F00100704790F0000F0CF0DA
:104AB000004C08BF49024CEA502040EA51207F3A9E
:104AC000C2BFD2F1FF0340EAC250704740F4000079
:104AD0004FF00003013A5DDC12F1190FDCBF00F06A
:104AE00000407047C2F10002410021FA02F1C2F118
:104AF000200200FA02FC5FEA310040F1000053EAB4
:104B00004C0308BF20EADC70704792F0000F00F001
:104B1000004C02BF400010F4000F013AF9D040EA07
:104B20000C0093F0000F01F0004C02BF490011F49B
:104B3000000F013BF9D041EA0C018FE70CEAD15399
:104B400092EA0C0F18BF93EA0C0F0AD030F0004C19
:104B500018BF31F0004CD8D180EA010000F00040CD
:104B6000704790F0000F17BF90F0004F084691F08B
:104B7000000F91F0004F14D092EA0C0F01D14202C5
:104B80000FD193EA0C0F03D14B0218BF084608D18E
:104B900080EA010000F0004040F0FE4040F40000D8
:104BA000704740F0FE4040F4400070474FF0FF0C6B
:104BB0001CEAD0521EBF1CEAD15392EA0C0F93EAB2
:104BC0000C0F69D0A2EB030280EA010C49024FEA04
:104BD000402037D04FF0805343EA111143EA1013BD
:104BE0000CF000408B4238BF5B0042F17D024FF475
:104BF000000C8B4224BF5B1A40EA0C00B3EB510F50
:104C000024BFA3EB510340EA5C00B3EB910F24BF38
:104C1000A3EB910340EA9C00B3EBD10F24BFA3EBBD
:104C2000D10340EADC001B0118BF5FEA1C1CE0D185
:104C3000FD2A3FF650AF8B4240EBC25008BF20F038
:104C4000010070470CF0004C4CEA50207F32C2BF8C
:104C5000D2F1FF0340EAC250704740F400004FF029
:104C60000003013A37E792F0000F00F0004C02BF5A
:104C7000400010F4000F013AF9D040EA0C0093F024
:104C8000000F01F0004C02BF490011F4000F013B7E
:104C9000F9D041EA0C0195E70CEAD15392EA0C0FE6
:104CA00008D142027FF47DAF93EA0C0F7FF470AF1E
:104CB000084676E793EA0C0F04D14B023FF44CAF61
:104CC00008466EE730F0004C18BF31F0004CCAD1F6
:104CD00030F000427FF45CAF31F000437FF43CAF32
:104CE0005FE700BF4FF0FF3C06E000BF4FF0010C54
:104CF00002E000BF4FF0010C4DF804CD4FEA400236
:104D00004FEA41037FEA226C18BF7FEA236C11D07F
:104D100001B052EA530C18BF90EA010F58BFB2EB32
:104D2000030088BFC81738BF6FEAE17018BF40F0B2
:104D3000010070477FEA226C02D15FEA402C05D166
:104D40007FEA236CE4D15FEA412CE1D05DF8040BEB
:104D5000704700BF844608466146FFE70FB5FFF77E
:104D6000C9FF002848BF10F1000F0FBD4DF808ED36
:104D7000FFF7F4FF0CBF012000205DF808FB00BF27
:104D80004DF808EDFFF7EAFF34BF012000205DF881
:104D900008FB00BF4DF808EDFFF7E0FF94BF0120CE
:104DA00000205DF808FB00BF4DF808EDFFF7D2FFCB
:104DB00094BF012000205DF808FB00BF4DF808ED0E
:104DC000FFF7C8FF34BF012000205DF808FB00BFDB
:104DD0004FEA4002B2F1FE4F0FD34FF09E03B3EB08
:104DE00012620DD94FEA002343F0004310F0004F48
:104DF00023FA02F018BF404270474FF0000070479E
:104E000012F1610F01D1420205D110F0004008BF3C
:104E10006FF0004070474FF00000704753B94AB937
:104E2000002908BF00281CBF4FF0FF314FF0FF30B2
:104E300000F0A6B9ADF1080C6DE904CE00F02AF837
:104E4000DDF804E0DDE9022304B07047D0B50022AC
:104E50000E4B06460F46FFF7C3FAFFF783FD0446E5
:104E6000FFF748FA00220A4BFFF7BAFA02460B4650
:104E700030463946FFF700F9FFF774FD234600225C
:104E800042EA000210461946D0BD00BF0000F03DC6
:104E90000000F0412DE9F04F8C460C460546099E76
:104EA000002B4FD18A4217466BD9B2FA82FEBEF16F
:104EB000000F0BD0CEF1200520FA05F501FA0EF314
:104EC00045EA030C02FA0EF700FA0EF5390CBCFBAA
:104ED000F1F0BAB201FB10C300FB02F84FEA154C27
:104EE0004CEA0344A04509D9E41900F1FF3380F0EE
:104EF0002881A04540F2258102383C44C8EB0404D7
:104F0000B4FBF1F301FB134C03FB02F2ACB244EA35
:104F10000C418A4209D9C91903F1FF3480F00F818D
:104F20008A4240F20C81023B39448A1A43EA00402B
:104F30000021002E63D022FA0EF2002386E80C0036
:104F4000BDE8F08F8B4207D9002E56D0002186E8AD
:104F500011000846BDE8F08FB3FA83F1002940F054
:104F60009380A34202D3824200F2FE80851A64EB52
:104F700003039C460120002E41D086E82010BDE8A6
:104F8000F08F12B90127B7FBF2F7B7FA87FEBEF12F
:104F9000000F36D1E41B4FEA17481FFA87F90121A9
:104FA000B4FBF8F308FB134409FB03F24FEA154C7A
:104FB0004CEA0444A24207D9E41903F1FF3002D2BB
:104FC000A24200F2D3800346A41AB4FBF8F008FB17
:104FD000104809FB00F9ACB244EA0842914507D9F0
:104FE000D21900F1FF3402D2914500F2BA80204676
:104FF000C9EB020240EA03409BE731463046BDE878
:10500000F08F07FA0EF7CEF1200C24FA0CF34FEADA
:105010001748B3FBF8FA1FFA87F908FB1A3520FA8C
:105020000CFC04FA0EF40AFB09FB4CEA040C4FEAF0
:105030001C4242EA05439B4500FA0EF50AD9DB19EA
:105040000AF1FF3280F08B809B4540F28880AAF104
:10505000020A3B44CBEB0303B3FBF8F008FB10332D
:1050600000FB09F41FFA8CFC4CEA03439C4207D96D
:10507000DB1900F1FF326ED29C426CD902383B44FE
:105080001C1B40EA0A418BE7C1F1200E8B4022FA3B
:105090000EFC4CEA030C24FA0EF74FEA1C49B7FB4E
:1050A000F9FA1FFA8CF309FB1A7720FA0EF88C40F4
:1050B0000AFB03F548EA04044FEA144848EA0747A4
:1050C000BD4202FA01F200FA01FB09D917EB0C0705
:1050D0000AF1FF3041D2BD423FD9AAF1020A67442A
:1050E0007F1BB7FBF9F509FB157705FB03F3A4B2AA
:1050F00044EA0747BB4208D917EB0C0705F1FF301C
:1051000027D2BB4225D9023D674445EA0A40A0FBAD
:105110000289FF1A4F4545464C4614D329D066B341
:10512000BBEB050367EB040707FA0EFECB40CF404D
:105130004EEA030386E888000021BDE8F08F23468D
:10514000F3E61846DAE6B8EB020569EB0C04013821
:10515000E5E70546D9E7104692E78246C0E7924662
:1051600078E702383A4443E7084604E7023B3C4408
:105170002AE7C345E7D33C46D1E73146BDE8F08F87
:10518000704700BF10B5054C13462CB10A460146C6
:105190000220AFF3008010BD204610BD00000000CB
:1051A00038B5074B05461C68E36B1BB92420FCF798
:1051B00015F8E063E16B2846BDE8384000F002B81E
:1051C000780000202DE9F0410C46804600F04CFDAF
:1051D00021460746404600F04BFD4669044606F26C
:1051E0006C76B30705D1642296FBF2F302FB1363DE
:1051F0004BB94FF4C87596FBF5F305FB1365B5FA8B
:1052000085F35B0900E001235F4A302505FB032598
:1052100000F05EFB00F05EFB5C4B1B68F3B17B684B
:105220009E4205D13968D8F80030FA6941B90AE0E0
:10523000304600F0A5FA0028F4D14FF0FF330DE01E
:10524000934208DB01E0934207DABA6B9342ACBFAA
:105250000023012302E0002300E001232362236AEC
:105260003C20012B0CBFF96B396A4FF4616391FB51
:10527000F3F603FB161393FBF0F200FB12306168A8
:105280002368891AA2681B1A921B3B2B236061605A
:10529000A26003DD013161603C3B04E0002B03DAD6
:1052A000013961603C33236063683B2B03DD0132CD
:1052B000A2603C3B04E0002B03DA013AA2603C33DD
:1052C0006360A368172B22DDE269183B0132E261BB
:1052D000A269A3600132062AC8BF0022A261E26867
:1052E00023690132E26055F823108A4246DD01331A
:1052F0000C2B08BF6369A2EB0102E26005BF01331A
:1053000000222361226104BF6361E26136E0002B69
:1053100034DAE2691833013AE261A269A360013A22
:1053200048BF0622A261E268013AE26032BB23690B
:10533000013B01D423611DE00B23236163695A1EE5
:1053400012F0030F626103F26B7305D1642193FBCA
:10535000F1F201FB12324AB94FF4C87193FBF1F23A
:1053600001FB1233B3FA83F35B0900E0012303F579
:10537000B673E361236955F82330E36000F0A9FABE
:105380002046BDE8F08100BFBC650A08A0040020EB
:1053900010B591FBF2F4002902FB141304DB002B7F
:1053A00007DA01349B1A04E0002BC4BF04F1FF3478
:1053B0009B180460436010BD10B5431E0A4491421F
:1053C00004D011F8014B03F8014FF8E710BD8842F3
:1053D00010B501EB020301D8421E0BE09842FBD24C
:1053E0008118D21AD34204D013F8014D01F8014DAF
:1053F000F8E710BD994204D011F8014B02F8014FB3
:10540000F8E710BD03460244934202D003F8011BA3
:10541000FAE7704738B5124B05461C68A36BD3B941
:105420001820FBF7DBFE43F20E33A06303804AF63D
:10543000CD33438041F2342383804EF26D63C380C9
:105440004DF6EC630381052343810B238381012205
:105450000023C0E90423A36B00221D615A6138BDFB
:1054600078000020C9B2034610F8012B1AB191420E
:10547000F9D11846704700290CBF18460020704724
:1054800010B50446FFF7EEFF18B9204600F02FF8DC
:10549000204410BD10F8012B11F8013B012A28BF50
:1054A0009A42F7D0D01A7047034611F8012B03F83F
:1054B000012B002AF9D17047024B0146186800F011
:1054C00003B800BF7800002070B5064608460C46B9
:1054D00000F00DF8451C29463046FBF7AFFE0646A6
:1054E00018B12A462146FFF767FF304670BD0346D4
:1054F00013F8012B002AFBD1181A0138704730B578
:1055000082B1451E013915F8013F11F8014FA34240
:1055100006D1EC431444E04201D0002BF3D11C46E9
:10552000181B30BD104630BD38B503460D4641B19D
:10553000002429461846FFF795FF30B1431C044666
:10554000F7E7BDE83840FFF78DBF204638BD0000C3
:105550002DE9F0470F4680463F48D0F800903D4681
:1055600015F8014B09EB0400407800F0080000F04A
:10557000FF0608B12F46F2E72D2C03D1BD1C7C7825
:10558000012603E02B2C04BF7C78BD1C13B1102B2B
:105590000AD15BE0302C57D1287800F0DF00582882
:1055A0004DD16C7810230235002E14BF4FF0004C03
:1055B0006FF0004CBCFBF3FA0027384603FB1ACC13
:1055C00009EB040E9EF801E01EF0040F01D0303C00
:1055D0000BE01EF0030E1BD0BEF1010F0CBF4FF00D
:1055E000370E4FF0570ECEEB0404A34210DDB7F197
:1055F000FF3F0AD0504506D801D1644503DC03FBC8
:105600000040012701E04FF0FF3715F8014BD7E7C5
:105610007B1C0CD1002E4FF0220314BF4FF0004032
:105620006FF00040C8F800302AB9BDE8F08706B135
:10563000404272B107B1691E1160BDE8F0873024A5
:10564000002BB1D10823AFE70A23ADE7302CA3D05C
:10565000AAE7BDE8F08700BF1400002013460A4601
:10566000014602480068FFF773BF00BF78000020C2
:105670002DE9F0470E4680463B48D0F8009035466D
:1056800015F8014B09EB0400407800F0080000F029
:10569000FF0708B12E46F2E72D2C03D1B51C747814
:1056A000012703E02B2C04BF7478B51C13B1102B19
:1056B0000AD153E0302C4FD1287800F0DF00582871
:1056C00045D16C78102302354FF0FF3CBCFBF3FC56
:1056D00003FB0CFA00266FEA0A0A304609EB040EB7
:1056E0009EF801E01EF0040F01D0303C0BE01EF0EC
:1056F000030E1AD0BEF1010F0CBF4FF0370E4FF062
:10570000570ECEEB0404A3420FDD002E08DB6045EC
:1057100006D801D1544503DC03FB0040012601E01B
:105720004FF0FF3615F8014BD8E7002E07DA222399
:10573000C8F800304FF0FF302AB9BDE8F08707B154
:10574000404272B106B1691E1160BDE8F087302495
:10575000002BB9D10823B7E70A23B5E7302CABD02B
:10576000B2E7BDE8F08700BF1400002013460A46E8
:10577000014602480068FFF77BBF00BF78000020A9
:105780002DE9F74F044600F06FFA40F2B1739C42E6
:1057900040F3968040F26D156FF4F663E318A4F2BF
:1057A000B2729B1005FB0235A4F26D726FF06303B9
:1057B00092FBF3F36FF4C8622B44A5184FF4C87240
:1057C00094FBF2F795FBF2F502FB17471D446423A7
:1057D00094FBF3F6B7FA87FE014603FB164600F189
:1057E0003803019304F0030344604FEA5E1E009304
:1057F0004FF0070C0B7A4A2B0ED14B69009AEC182C
:1058000002B906B927B93B2BD4BF0023012300E01E
:1058100000232344013B3FE0442B02D14B692B443E
:105820003AE0009B2BB9002E0CBFF0464FF0010868
:1058300000E0F046A946244B302202FB0838CC6831
:10584000A8F1040A0123A34204DA5AF804BF013381
:10585000D944F8E709F1040393FBFCFBCBEBCB0A3B
:10586000CAEB030A4B69012CB8BF0124B3EB0A0A47
:105870000B6904F1804403F1FF3304F1FF3448BFA6
:105880000AF1070AC3EBC30358F824405344A34268
:1058900001DB073BFBE74B448C690C4A02FB0343EB
:1058A0000C6A234441F81C3F019B9942A2D1C36971
:1058B000826B9342ACBF002301230360012000E010
:1058C000002003B0BDE8F08FBC650A0880510100DC
:1058D00070477047014B186800F002B8780000204C
:1058E0002DE9F04F8DB0074600F0BEF9B0490446EF
:1058F000384600F0B1F9AF4E054660B9AE4BAF4A3D
:105900001860AF4B1860AF4B30681A605A60FBF7F5
:105910006DFC356048E1316879B93068FBF766FCA9
:105920002846FFF7E4FD411C3846FBF787FC306052
:1059300048B12946FFF7B8FD05E0FFF7ABFD0028A9
:1059400000F03281E9E72B780AAE3A2B08BF013527
:1059500033469D4A9D492846FBF758FC002840F3F2
:1059600023810A9BEF18EB5C2D2B03D101374FF0FD
:10597000FF3503E02B2B08BF013701250DF1200A6D
:105980000DF11E0B4FF000080396CDF808A001960C
:10599000CDF800B0334607AA8D493846ADF81E80D1
:1059A000ADF82080FBF732FC404540F3FD80BDF8A8
:1059B0001E20BDF820303C2101FB0233BDF81C2025
:1059C0004FF4616101FB02335D437F4B25627D4DE6
:1059D000DFF808922B600A9B4A461F447B493346F6
:1059E0003846FBF713FC404508DC2B68226A6B60E5
:1059F000714B1A60724BC3F80080D5E00A9BC5F862
:105A00000490FD18FB5C2D2B03D101354FF0FF37BF
:105A100003E02B2B08BF013501270023ADF81C3014
:105A2000ADF81E30ADF820300A930396CDF808A0EB
:105A30000196CDF800B0334607AA65492846FBF722
:105A4000E5FB002804DC236AA3F56163E3630EE051
:105A5000BDF81E20BDF820303C2101FB0233BDF80B
:105A60001C204FF4616101FB02335F43E76327466B
:105A70000A9B4FF000091D442B782C2B08BF0135E1
:105A800095F80080B8F14D0F26D10DF12603029351
:105A900009AB00930396019633460DF122024D495E
:105AA0002846FBF7B3FB03287ED1BDF822104B1E1E
:105AB0000B2B79D8BDF82420531E042B74D8BDF8C5
:105AC0002630062B70D887F80880F9603A617B6130
:105AD0000A9B05EB03082AE0B8F14A0F06BF4346CC
