:02000004080AE8
:1000000000000A08C0480A080000060006000501B2
:080010000402B204000000002C
:100018005C3B0A0809480A4908B5884205D0094ADC
:10002800824202D0121A03F055FC0748074A002101
:10003800121A03F075FC064808BD00BF0003002033
:1000480020480A087803002078030020F4050020DF
:10005800F405002070B502F06DFD074B074C1E46F5
:10006800E41AA4080025A54204D056F8253098477C
:100078000135F8E770BD00BF20470A08E8470A08BD
:1000880000F0CEBC08B500F02DFDBDE8084002F038
:1000980013BD01F087BA01F08DBA000008B5034A14
:1000A80000210C2001F0DAF9FEE700BF71110A08FF
:1000B8000078B0FA80F04009704701230370704758
:1000C8007047006A0368DB68184703681847012A05
:1000D80002D0022A02D004E0016002E00B6800B1FD
:1000E800036000207047436913B183690C301847D7
:1000F800704713B504460021084601F06DF802A9BF
:100108000023204641F8043D01F07EF8019C0CB123
:10011800012323710021012001F05EF82CB123682E
:1001280020469B6898470023237102B010BD000049
:1001380010B50446094B036001F058FF214602F050
:1001480072F902F0EFFD02F0DFFD2046044B40F8A3
:10015800043B02F06FF8204610BD00BFA43B0A081C
:100168008C3B0A0810B50446FFF7E2FF204624211D
:1001780003F048FA204610BD10B58368044613B151
:10018800032201469847204610BD002211464068C8
:1001980001F0B0B900221146406801F0BBB907B5BB
:1001A8008068002338B18DE80A00022101F034F894
:1001B800B0FA80F0400903B05DF804FB38B5104B85
:1001C800044603608368A3B16FF000410022FFF783
:1001D800E6FF0021A06801F047F8237903F0FF0546
:1001E80013B100F0F1FFF8E72946A06801F004F820
:1001F800A56004F10C00FFF7BFFF204638BD00BF23
:10020800783B0A0810B50446FFF7D8FF20461C21A2
:1002180003F0F8F9204610BD0EB400B58CB00DAA55
:1002280052F8041B20238DE806000392049301680A
:10023800002304AA1E20059301F018F90CB05DF8FC
:1002480004EB03B070470EB400B58CB00DAA52F899
:10025800041B20238DE80600039204930168002301
:1002680004AA3220059301F001F90CB05DF804EB03
:1002780003B0704708B5032001F0E8F801210846EB
:1002880000F09AFFBDE808400121042000F094BF67
:1002980030B5614C8FB02378002B40F0BA805F48AE
:1002A80000F05AFE08B95E4985E001235D495E48C1
:1002B8002370FFF7B1FF5D4B1B78002B72D05C49B0
:1002C8005948FFF7A9FF642002F0ACFB01AA0DF121
:1002D8000601524800F0A7FE20B956495248FFF7D8
:1002E800B2FF2BE0544902A801F04FFA0A22BDF8E8
:1002F800061006A801F099FA06A902A801F0D0FA9A
:100308004E4901F0D9FA04460A22BDF804100AA899
:1003180001F08BFA0AA9204601F0C2FA01684248A6
:10032800FFF77AFF0AA801F0E9F906A801F0E6F953
:1003380002A801F0E3F9642002F074FB404C37484E
:10034800628BA18B00F08AFE28B902F0EBFC3D49D4
:1003580001F016FB26E03C4902A801F016FA0A2231
:10036800A18B06A801F061FA06A902A801F098FA83
:10037800324901F0A1FA05460A22618B0AA801F068
:1003880054FA0AA9284601F08BFA01682648FFF7B3
:1003980043FF0AA801F0B2F906A801F0AFF902A8D4
:1003A80001F0ACF91D4C642002F03CFB204600F043
:1003B80021FE20B925491C48FFF745FF29E06420A4
:1003C80002F030FB224902A801F0DFF90A22618815
:1003D80006A801F02AFA06A902A801F061FA17494D
:1003E80001F06AFA05460A2221880AA801F01DFAD6
:1003F8000AA9284601F054FA01680B48FFF70CFFD8
:100408000AA801F07BF906A801F078F902A801F022
:1004180075F90FB030BD00BF34040020D0030020B0
:10042800C33B0A08E03B0A0874040020C603002006
:10043800F73B0A08183C0A08383C0A08593C0A08DD
:10044800E4030020623C0A08823C0A089E3C0A0831
:10045800B13C0A0830B51D4B8DB01B78002B33D04A
:100468001B4C204600F0C6FD20B91A491A48FFF770
:10047800EAFE29E0642002F0D5FA1849684601F03E
:1004880084F90A22618804A801F0CFF904A9684612
:1004980001F006FA124901F00FFA05460A222188EE
:1004A80008A801F0C2F908A9284601F0F9F901687D
:1004B8000948FFF7B1FE08A801F020F904A801F0E7
:1004C8001DF9684601F01AF90DB030BD340400205A
:1004D800D00300209E3C0A0874040020C83C0A0887
:1004E800893D0A0884B030B595B018AC84E80F008F
:1004F8009B4C00238DF83030ADF84A30ADF84C30C5
:100508008DF84E308DF8313003F022F820220CA9F6
:10051800206800F041FE93499348FFF77DFE9DF85F
:10052800303025464BB191498F48FFF775FE03F0EF
:100538000FF8202218A92068AFE00DF1610104A886
:1005480001F023F90DF1310108A801F01EF908A9FD
:1005580004A801F0E3F968B1BDF87C20BDF84C307F
:100568009A4207D1BDF87A30BDF84A401C1B18BF23
:10057800012400E0012408A801F0C0F804A801F053
:10058800BDF8002C00F08F8079497748FFF744FECA
:10059800784908A801F0F9F80DF1310104A801F033
:1005A800F4F804A908A801F07BF901686E48FFF780
:1005B80033FE04A801F0A2F808A801F09FF86E49DC
:1005C80008A801F0E2F80DF1610104A801F0DDF8D6
:1005D80004A908A801F064F901686348FFF71CFE44
:1005E80004A801F08BF808A801F088F8634904A86A
:1005F80001F0CBF80A22BDF84C10684601F015F955
:10060800694604A801F04CF95D4901F055F9044622
:100618000A22BDF84A1008A801F007F908A92046DF
:1006280001F03EF901685048FFF7F6FD08A801F00F
:1006380065F8684601F062F804A801F05FF85149CE
:1006480004A801F0A2F80A22BDF87C10684601F05F
:10065800ECF8694604A801F023F9494901F02CF99E
:1006680004460A22BDF87A1008A801F0DEF808A9A5
:10067800204601F015F901683B48FFF7CDFD08A8B1
:1006880001F03CF8684601F039F804A801F036F8A2
:1006980002F05EFF2868202218A900F085FD3A497B
:1006A8003148FFF7B9FD394908A801F06EF80A2268
:1006B8009DF8301004A801F0A6F804A908A801F0D4
:1006C800EFF8334901F0F8F80DF1310101F0F4F8D1
:1006D80001682548FFF7A0FD04A801F00FF808A855
:1006E80001F00CF8254904A801F04FF80A22BDF8DA
:1006F8004C10684601F099F8694604A801F0D0F852
:100708001F4901F0D9F804460A22BDF84A1008A882
:1007180001F08BF808A9204601F0C2F801681248D8
:10072800FFF77AFD08A800F0E9FF684600F0E6FF49
:1007380004A800F0E3FF174A18AB1FA953F8040BED
:100748008B4242F8040BF9D1198811809B78937079
:10075800114B01221A7015B0BDE8304004B0704743
:1007680090030020D83C0A0874040020FC3C0A08C6
:100778003D3D0A086B3D0A087C3D0A088D3D0A0884
:10078800893D0A08A73D0A08313D0A08073E0A08BC
:100798008A3D0A08E4030020C60300202DE9F0433F
:1007A80093B000F0E9FC414C414F2368C01A414B1B
:1007B800984204D901237B7000F0DEFC20607B782E
:1007C800002B6FD03C4B1B78002B6BD0642002F0C1
:1007D80029F93A493A48FFF71FFD05AA0DF1160114
:1007E800384800F020FC20B937493548FFF72BFD81
:1007F8002CE0364906A800F0C8FF0A22BDF81610FA
:100808000AA801F012F80AA906A801F049F8304927
:1008180001F052F804460A22BDF814100EA801F09F
:1008280004F80EA9204601F03BF801682448FFF7B8
:10083800F3FC0EA800F062FF0AA800F05FFF06A80C
:1008480000F05CFF4FF47A7002F0ECF8BDF8163057
:10085800204CA383BDF81430638300F08DFC1E4A3E
:1008680013689046C01A1D4B984219D9EE46D4F821
:100878000090D4F804C0A268E36804F1100520349D
:10088800764628686968083503C6A542B646F7D192
:1008980048466146FFF726FE00F06EFCC8F80000E7
:1008A80000237B7013B0BDE8F08300BF080400206C
:1008B80000400240C0270900C6030020C13D0A08C5
:1008C80074040020D0030020183C0A08D53D0A080B
:1008D800893D0A08E4030020A4030020002E9302A7
:1008E80070B5434B90B01C781D46002C4CD18DF848
:1008F8002040ADF83A40ADF83C408DF83E408DF8C8
:10090800214002F025FE3B4B202218680DEB020126
:1009180000F042FC9DF8203023B137493748FFF7F3
:100928007BFC61E0364B08AA0EAE144603CCB442F9
:1009380018605960224603F10803F6D12068186050
:10094800A188A27904A899809A712E4901242C7053
:1009580000F01BFF0A229DF82010684600F053FFA4
:10096800694604A800F09CFF274900F0A5FF0DF197
:10097800210100F0A1FF01682048FFF74DFC6846FF
:1009880000F0BCFE04A82DE01D4D204908A800F089
:10099800FCFE0A22297804A800F035FF04A908A85B
:1009A80000F07EFF1A4900F087FF691C00F084FF01
:1009B800184900F081FFA97F00F090FF164900F068
:1009C8007BFF698B00F08AFF144900F075FFA98B43
:1009D80000F084FF01680948FFF71EFC04A800F036
:1009E8008DFE08A800F08AFE204610B070BD00BF3A
:1009F800C603002090030020F03D0A08740400207C
:100A0800E4030020013E0A088A3D0A08153E0A0848
:100A1800323E0A083B3E0A08473E0A084F3E0A088B
:100A280010B588B002F07EF94FF4165102F068F95B
:100A3800224B1B785BB1224C02F074F902F067F983
:100A480028B900F099FB206000F09CFDF4E71D49EF
:100A580004A800F09AFE1C4B0A221968684600F0A8
:100A6800E4FE694604A800F01BFF01681748FFF779
:100A7800D3FB684600F042FE04A800F03FFEFFF7F3
:100A88002FFF0021124800F079FA20B911490F48C8
:100A9800FFF7D9FB03E010490C48FFF7BDFB4FF403
:100AA8007A7001F0BFFF00F067FB0C4B186000F094
:100AB80063FB0B4B186008B010BD00BFC8030020D3
:100AC80014050020583E0A08300400207404002051
:100AD800D0030020713E0A08A43E0A08A40300209F
:100AE8000804002008B5FFF7FBFEFFF7D1FBFFF76E
:100AF800B1FCFFF753FEBDE808404FF4FA7001F06F
:100B080091BF000010B50B4C00220221606800F074
:100B1800F9FC00231A461946606800F00BFD064AE6
:100B280000231370054A1370054A1370054A1370A1
:100B380010BD00BFE404002000030020C50300200E
:100B480004040020C403002008B5074B1B7853B1E8
:100B5800064B1B783BB906490648FFF75DFBBDE825
:100B68000840FFF7CFBF08BDC403002004040020DD
:100B7800E4400A087404002070B505460468436818
:100B8800142606FB0346A64204D0204600F0B6FD14
:100B98001434F8E7286800F00DFD284670BD884237
:100BA800F8B506460C46154616D9904215D2A2F15C
:100BB80014056C1AA1F114070444AF421CD02CB1DF
:100BC8002946204600F08AFD2B7C2374284600F035
:100BD80095FD143D143CF0E70ED0AC420CD02EB17C
:100BE8002146304600F07AFD237C3374204600F01D
:100BF80085FD14341436F0E7F8BD2DE9F0410023E3
:100C08000360436083604E6804469E420F4624DDBD
:100C18004FF0140808FB06F000F0C4FC0546E0B1EC
:100C280094E8060008FB0212FFF7B9FF206800F0FD
:100C3800C1FC2560A6603E687B6808FB03684645E2
:100C480009D02DB13146284600F0C1FD337C2B7404
:100C580014361435F3E77B6863602046BDE8F081FD
:100C68002DE9F04F534B02251D60534B91B00024E2
:100C78001C7000F061FA4FF6FF72504B28461C704A
:100C88005C809A8000F00AFCFFF7F4FA4C4B0CAE3B
:100C980009AF0C934B4D96E803004B4B87E80300D4
:100CA8002B6005F10C0393E8030086E8030097E83E
:100CB800030083E80300454B2C716B61AB69AC60A2
:100CC8000F93434B434AAB610123009341F28831B0
:100CD8002B46019405F10800DFF82C810E9400F0F2
:100CE80083FA3046FFF748FA28463B4D4246DFF87C
:100CF8001CA13A4902F078FC3949284600F045FD24
:100D080042465146284602F06FFC03940494059429
:100D180002F008F8334D8346A94603A906A8FFF751
:100D28006CFF06A93846FFF768FF2F4B394649F88C
:100D3800043B3046FFF761FF32461E21484601F06A
:100D4800D4FC3046FFF718FF3846FFF715FF274B4E
:100D5800C5F820B02B6006A8FFF70EFF244B2B60C8
:100D680001F0E0FF4FF4165101F0CAFF01F03EF91F
:100D7800294601F04EFC03A8FFF7FEFE42461D4936
:100D880028461D4D02F030FC1C4800F067F81C494D
:100D9800284600F0FAFC42465146284602F024FC58
:100DA800184B1C705C839C839C775C7011B0BDE809
:100DB800F08F00BF8C030020C7030020CA03002067
:100DC800510B0A08A8030020783B0A08D7000A0834
:100DD800D3000A08FB000A0894030020C5010A088A
:100DE800B1420A080C0400208C3B0A0840440A0857
:100DF800A43B0A0839010A087C030020D00300201C
:100E0800573E0A08E40300207803002005170A0863
:100E1800034B00221A70034B01221A7000F08CB9A0
:100E2800350400203604002000F086B900F084B9AB
:100E380000F082B900F080B900F07EB900F07CB90A
:100E480000F07AB900F078B900F076B900F074B91A
:100E580000F072B900F070B900F06EB9704710B5C3
:100E68000C46FF20631ADBB29A4211D914F8013BF1
:100E78005840082310F0800F03F1FF334FEA400079
:100E880018BF80F0310013F0FF03C0B2F2D1E9E7D8
:100E980010BD2DE9F84F16468A4600AF017C05467D
:100EA800C068994697F82C4002F082F8013E0AF192
:100EB800FF385644B045E86805D0036818F8011FA4
:100EC8009B689847F6E702F07BF8484601F0AAFDD0
:100ED800002C3DD04FEA440A04EB0A085FFA88F870
:100EE8004246297CE86802F060F8804501D000207D
:100EF8002FE008F1070323F00703ADEB030DEB46E2
:100F08006E46E946CBEB0903DBB2984506D9E8689B
:100F180003685B69984709F8010BF3E7BB6A544417
:100F2800A3F102085C44A64212D0314602222846A8
:100F3800FFF795FF033616F8013C8342D7D116F820
:100F4800032C16F8023C43EA022328F8023FEAE79A
:100F58000120BD46BDE8F88F1FB520238DF80C3061
:100F680003238DF80D3000230193009302220A23F6
:100F780003A9FFF78EFF05B05DF804FB1FB55823E2
:100F88000446037419B902F00FFBE06000E0C16089
:100F9800E06801F0FBFF36238DF80C3082238DF8D2
:100FA8000D3003230193231D009302220A2303A972
:100FB8002046FFF76EFF08B9002019E020238DF8BE
:100FC8000C302F238DF80D30012301930DF10E0302
:100FD800009302220A2303A92046FFF75AFF00289C
:100FE800EAD0BDF80E30202BE6D12046FFF7B4FF3B
:100FF80004B010BD1FB520238DF8083008238DF8E4
:101008000930022203AB009301920C2302A9044683
:10101800FFF73FFF28B1BDF80E302380BDF80C3034
:10102800638004B010BD30B5202385B08DF808303A
:10103800152314468DF80930022203AB0D460093A0
:1010480001920A2302A9FFF724FF28B1BDF80C304A
:101058002B80BDF80E30238005B030BD30B520237D
:1010680085B08DF808301E230D468DF809308DF8AF
:101078000B2013120DF10A01022204468DF80A30E2
:10108800FFF7EDFE2B128DF80C000DF10D01022279
:1010980020468DF80D308DF80E50FFF7E0FE002346
:1010A80008228DF80F00019300930DEB02010A232B
:1010B8002046FFF7EEFE05B030BD00F03DB800F069
:1010C8003BB800F039B800F037B800F035B800F098
:1010D80033B800F031B800F02FB800F02DB800F0A8
:1010E8002BB870B505460C46084649B102F072FCAB
:1010F8002B68024621462846BDE87040DB68184741
:1011080070BD00F019B800F017B800F015B800F07D
:1011180013B800F011B800F00FB800F00DB800F0E7
:101128000BB800F009B800F007B800F005B800F0F7
:1011380003B800F001B8000008B5024B1B681B6833
:10114800019308BDB001060808B5024B1B68DB69AE
:10115800019308BDB401060808B5024B1B685B681B
:10116800019308BD9C01060808B5024B1B68DB68A3
:10117800019308BD9C01060808B5024B1B685B6912
:10118800019308BD9C01060808B5024B1B689B6AC1
:10119800019308BD9C01060808B5024B1B685B6CEF
:1011A800019308BD9C01060808B5024B1B689B6C9F
:1011B800019308BD9C01060808B5024B1B685B6ECD
:1011C800019308BDB801060808B5024B1B68DB6827
:1011D800019308BDD001060808B5024B1B68DB69FE
:1011E800019308BDD001060808B5024B1B681B6AAD
:1011F800019308BDD001060808B5024B1B685B6A5D
:10120800019308BDD001060808B5024B1B689B6A0C
:10121800019308BDD001060808B5024B1B68DB6ABC
:10122800019308BDD001060808B5024B1B681B6B6B
:10123800019308BDD001060808B5024B1B685B6C1A
:10124800019308BDD001060808B5024B1B68DB6C8A
:10125800019308BDD001060808B5024B1B685B6DF9
:10126800019308BDD001060808B5024B1B681B6F27
:10127800019308BDD001060808B5024B1B689B699D
:10128800019308BDC401060808B5024B1B681B6A18
:10129800019308BDC401060808B5024B1B685B6AC8
:1012A800019308BDC401060808B5024B1B689B6A78
:1012B800019308BDC401060808B5024B1B68DB6A28
:1012C800019308BDC401060808B5024B1B681B6BD7
:1012D800019308BDC401060808B5024B1B685B6B87
:1012E800019308BDC401060808B5024B1B681B6CB6
:1012F800019308BDC401060808B5024B1B68DB6CE6
:10130800019308BDC401060808B5024B1B68DB6CD5
:10131800019308BDAC01060808B5024B1B685B6D5C
:10132800019308BDAC01060808B5024B1B689B6D0C
:10133800019308BDAC01060808B5024B1B68DB6DBC
:10134800019308BDAC01060808B5024B1B681B6E6B
:10135800019308BDAC01060808B5024B1B685B6E1B
:10136800019308BDAC01060808B5024B1B689B6ECB
:10137800019308BDAC01060808B5024B1B68DB6E7B
:10138800019308BDAC01060808B5024B1B681B6F2A
:10139800019308BDAC01060808B5034B1B68D3F8D8
:1013A8008030019308BD0000AC01060808B5024B67
:1013B8001B681B68019308BDD801060808B5024BD5
:1013C8001B685B68019308BDD801060808B5024B85
:1013D8001B689B68019308BDD801060808B5024B35
:1013E8001B681B69019308BDD801060808B5024BA4
:1013F8001B685B69019308BDD801060808B5024B54
:101408001B689B69019308BDD801060808B5024B03
:101418001B68DB69019308BDD801060808B5024BB3
:101428001B681B6A019308BDD801060808B5024B62
:101438001B689B6A019308BDD801060808B5024BD2
:101448001B689B6C019308BDC001060808B5024BD8
:101458001B681B6D019308BDC001060808B5024B47
:101468001B685B6B019308BDA801020808B5024B15
:101478001B685B6D019308BDA801020808B5024B03
:101488001B68DB6E019308BDA801020808B5024B72
:101498001B681B6F019308BDA801020808B5024B21
:1014A8001B685B68019308BDA401060808B5024BD8
:1014B8001B685B69019308BDA401060808B5034BC6
:1014C8001B68D3F89030019308BD0000A4010608FA
:1014D80008B5034B1B68D3F89C30019308BD000086
:1014E800A401060808B5024B1B685B68019308BD98
:1014F800C801060808B5024B1B689B68019308BD24
:10150800C801060808B5024B1B68DB68019308BDD3
:10151800C801060808B5024B1B681B69019308BD82
:10152800C801060808B5024B1B685B69019308BD32
:10153800C801060808B5024B1B689B69019308BDE2
:10154800C801060808B5024B1B68DB69019308BD92
:10155800C801060808B5024B1B681B6A019308BD41
:10156800C801060808B5024B1B681B6B019308BD30
:10157800C801060808B5024B1B685B6B019308BDE0
:10158800C801060808B5024B1B689B68019308BD93
:10159800CC01060808B5024B1B68DB6B019308BD3C
:1015A800CC01060808B5024B1B681B68019308BDEF
:1015B800A001060808B5024B1B685B68019308BDCB
:1015C800A001060808B5024B1B689B68019308BD7B
:1015D800A001060808B5024B1B685B6A019308BDA9
:1015E800A0010608704710B50446102102F00AF859
:1015F800204610BD70B504460E46074B0025036013
:1016080040F80C5FFFF710FE30462671FFF79CFD8F
:10161800A560204670BD00BF04430A084FF6FF725C
:10162800034B0020187058809A80FFF737BF00BF1F
:101638003804002010B5044602F0CCF9013823180C
:101648002046984206D20278197800F8011B03F860
:101658000129F6E710BD70B50C46911E222920D845
:101668002546294610B9234430220EE0B0FBF2F695
:1016780002FB1600C1B2092805F8011B94BF3031DE
:10168800573105F8011C3046EBE7994202D201F8C0
:10169800012BFAE7002320460B70FFF7CBFF20460B
:1016A80070BD002070BD38B5031E0C4615460BDA18
:1016B800B3F1004F4FF02D0214BF584218460123D2
:1016C8000A702A46194400E00123FFF7C4FF2046A8
:1016D80038BD08B50123FFF7BEFF08BD002303602E
:1016E80043608360037310B50C6804604C68446001
:1016F8008C6884600B604B608B6010BD10B504462D
:101708000068FFF757FF204610BD10B50446006873
:1017180008B1FFF74FFF00232360A360636010BD8B
:1017280038B504460D4600680131FFF74BFF10B18C
:1017380084E82100012038BD10B50368044613B1C0
:1017480043688B4207D22046FFF7EAFF20B1A3681F
:101758000BB922681370012010BD70B50E461146F2
:1017680004461546FFF7E8FF18B92046FFF7CDFFF6
:1017780009E02A463146A560206802F0ABF82268E5
:10178800A3680021D154204670BD38B50023044613
:1017980003604360836003730D4639B1084602F065
:1017A80019F9294602462046FFF7D7FF204638BDDB
:1017B800884210B50B46044607D0096819B19A68E3
:1017C800FFF7CBFF01E0FFF7A0FF204610BD10B5E3
:1017D800044600230360436083600373FFF7E8FF58
:1017E800204610BD38B505460C4641B1084602F002
:1017F800F1F8214602462846FFF7AFFF01E0FFF760
:1018080084FF284638BD1FB5044600232360636063
:10181800A3602373084601A9FFF75BFF01A92046CF
:10182800FFF7E0FF204604B010BD10B504460023C2
:101838008AB023606360A3602373084601A9FFF799
:1018480032FF01A92046FFF7CDFF20460AB010BDA0
:1018580070B504460E4609B9002070BD6AB18368A8
:10186800D5182946FFF768FF0028F5D02068A36837
:101878003146184402F0A6F8A560012070BD13B5E2
:101888000A22044608466946FFF70DFF684602F03B
:10189800A1F8694602462046FFF7DAFF02B010BDFC
:1018A80010B58A6809680446FFF7D2FF10B92046C8
:1018B800FFF72BFF204610BD38B504460D4641B151
:1018C800084602F087F8294602462046FFF7C0FF7F
:1018D80010B92046FFF719FF204638BD10B5044659
:1018E800FFF7CDFF10B92046FFF70FFF204610BDC8
:1018F800024600680B6808B15BB905E023B1896846
:1019080011B118784042704738B1936823B1007814
:101918007047194602F04CB81846704708B58268F7
:101928008B689A4205D1FFF7E3FFB0FA80F04009CF
:1019380008BD002008BDF8B506460D468F180024DE
:10194800BD420CD0336815F8011B9B683046984798
:10195800002801DB0444F3E7002C08BF04462046B6
:10196800F8BD03689B68184738B50D210546FFF791
:10197800F8FF0A2104462846FFF7F3FF204438BD44
:1019880038B50546FFF7ADFB04462846FFF7ECFFE0
:10199800204438BD012A98BF0A2230B50B468BB0C7
:1019A80000218DF824100DF12304B3FBF2F505FB9B
:1019B8001233DBB2092B94BF30333733DBB2214605
:1019C80004F801392B46002DEFD1FFF78AFB0BB045
:1019D80030BD10B422B90368C9B29B6810BC18475F
:1019E800D2B210BCFFF7D6BFFFF7F3BF0CB42DE996
:1019F800F04387B000AF07F1380454F8049B05465C
:101A08000E4623464A461421381D3C60FFF7E2FD86
:101A1800132805D8391D2846FFF763FB044613E051
:101A280000F1080323F00703E846ADEB030D411C62
:101A380023464A4668463C60FFF7CCFD694628467F
:101A4800FFF74FFB0446C5461EB12846FFF78CFF3B
:101A5800044420461C37BD46BDE8F04302B0704739
:101A680000231A4619464068FFF75CBD8068036882
:101A7800DB681847704719B10B6808465B68184758
:101A8800704719B10B6808465B681847704770477C
:101A98007047704738B504460D4600682E2101F09E
:101AA8007DFF2368C31A2B6023B1037803B101308B
:101AB80023682060184638BD10B504460C2101F093
:101AC800A1FD204610BD10B50446042101F09AFD81
:101AD800204610BD10B50446042101F093FD2046B0
:101AE80010BD38B50C46054601F01CF9844202D1F8
:101AF80001F018F905E001F043F9844205D101F03D
:101B08003FF9BDE8384001F0FFB801F0C1F984425F
:101B180005D101F0BDF9BDE8384001F0B6B921465C
:101B28002846FFF7AEFF38BD08B501F041FFB0FA0F
:101B380080F0400908BD38B5054608460C4601F056
:101B480049FF214602462846BDE8384001F065BCF9
:101B58002DE9F043914685B0494A1D46036A4FF086
:101B68000008074601A80E46019203938DF80880E5
:101B78000C9C01F0BEFB41464846FFF77FFC8046BF
:101B88004049012201A801F039FC4146FFF7D3FF83
:101B98003EB13D49012201A801F030FC3146FFF772
:101BA800CAFF3DB13949012201A801F027FC2946A5
:101BB800FFF7C1FF2379DE070ED5A5682F21284638
:101BC80001F025FF00B1451C3149012201A801F0AF
:101BD80015FC2946FFF7AFFF23799D0707D52D4947
:101BE800022201A801F00AFCE16801F08FFB2379C9
:101BF800580716D525692E46334613F8012B3AB1F6
:101C0800202A01D11D4601E0282A01D01E46F3E70B
:101C18000222214901A801F0F1FB721B294601F0BB
:101C2800FCFB2379190707D51C49012201A801F0FB
:101C3800E5FB616901F07CFB2379DA0608D504220B
:101C480017490DEB020001F0D9FBA16901F05EFB19
:101C580023799B0607D51349062201A801F0CEFB7C
:101C6800E169FFF768FF01A801F02DFB386A02223D
:101C780003680D49DB68984705B0BDE8F08300BFED
:101C880014430A08A0430A08B6430A082F440A085E
:101C980054430A0856430A0859430A08CB430A081A
:101CA8005C430A0861430A0868430A080068FFF7AA
:101CB800CBBA70B5044608460D4601F08BFE236882
:101CC800024629462046BDE87040DB68184713B530
:101CD800026802AB03F8011DD46819460122A04727
:101CE80002B010BD2DE9F041069D98462B790E46AD
:101CF80019070446174605D56B69544A0021006A3E
:101D0800FFF774FEB8F1000F0DD05B212046FFF7F6
:101D1800DEFF41462046FFF7CCFF23680222DB683E
:101D28004B49204698472B79DA0725D5D5F80880FE
:101D38002F21404601F06BFE08B100F10108414631
:101D48002046FFF7B6FF2B799B0709D53A21204695
:101D5800FFF7BDFFEB683F4A0021206AFFF746FE08
:101D68002B79022213F0040F236818BF3A49DB6865
:101D780008BF3A49204698472B79580718D529694A
:101D88000A46134613F8010B38B1202801D1194629
:101D980001E0282801D01A46F3E72368521ADB68C5
:101DA8002046984723680422DB682D492046984737
:101DB80000213846FFF762FB01462046FFF779FF0E
:101DC80023680222DB682549204698471EB1314620
:101DD8002046FFF76EFF2B7913F0300F2DD02368C4
:101DE8002049DB680222204698472B79D9060BD573
:101DF80023680722DB681C4920469847AB691B4AC1
:101E08000021206AFFF7F2FD2B799A0611D5DB062F
:101E180005D523680222DB680F49204698472368C6
:101E280013492046DB680A229847E9692046FFF7EC
:101E380040FF5D212046FFF74AFF23682046BDE8A2
:101E4800F041DB6802220B49184700BF6B430A08C0
:101E580072430A0875430A08123E0A088A3D0A08AE
:101E680078430A087D430A0880430A0888430A0819
:101E78008B430A0868430A082DE9F04F07688B4628
:101E88003C46456891461422554385B00193AB10F2
:101E9800184D02925D430123002D039323DD029B1D
:101EA8006E1003FB06F004EB0008B8F804A04A46DD
:101EB800D14528BF52465946205801F093FD039B4F
:101EC80048B9D14503D1019A13703546E4E78CBF70
:101ED8000120002000E0C00F0028F6D0AE1B08F15A
:101EE8001404013EF1E7E41B0248A410604305B066
:101EF800BDE8F08FCDCCCCCCF0B5036985B00191AD
:101F0800067E13B309B300231D4604AF00F10C0489
:101F180047F8043D394601A8FFF7BCFD0146A0B1CA
:101F280004AB03F8055D039A2046FFF7A5FF9DF86B
:101F38000B3053B12368142404FB0034B4F9063081
:101F48000834002BA8BFDEB2E4E7304605B0F0BD88
:101F580010B5094C2368DB070BD42046FEF7A8F818
:101F680038B12046FEF7A9F8044A0549054801F0AA
:101F78003BFB044810BD00BF40040020780300204C
:101F8800991A0A080403002010B5094C2368DB07D6
:101F98000BD42046FEF78CF838B12046FEF78DF8B2
:101FA800044A0549054801F01FFB044810BD00BF5D
:101FB8007004002078030020971A0A0808030020FC
:101FC80038B50025044605604560856005614561B2
:101FD800856140F8245FFFF72FF9FFF7B9FFE0614B
:101FE800FFF7D2FF25732062204638BD10B50A4C92
:101FF8002368DB070ED42046FEF75AF850B107488D
:10200800FFF7DEFF2046FEF758F8054A0549034862
:1020180001F0EAFA014810BD4404002048040020F9
:1020280078030020B9240A080023024A0249034819
:10203800FFF72CBA9D230A082D230A08B5220A089F
:1020480000231A4619461846FFF720BA38B504681F
:1020580005467CB16368013B63605BB92368204631
:102068009B689847A368013BA3601BB92368204677
:10207800DB689847284638BD0B68036013B15A6877
:1020880001325A60704773B50546CE6851F8043B73
:1020980002AC44F8083D01A8FFF7EEFF224631469E
:1020A800284601F0DFF901A8FFF7D0FF284602B063
:1020B80070BD73B505460E6951F8043B02AC44F88F
:1020C800083D01A8FFF7D8FF22463146284601F00F
:1020D8000CFA01A8FFF7BAFF284602B070BD73B525
:1020E80005468E6851F8043B02AC44F8083D01A847
:1020F800FFF7C2FF22463146284601F0DBF901A866
:10210800FFF7A4FF284602B070BD000030B58BB0C1
:102118000D46014604A8FFF7E2FF04A801F0BFF846
:10212800E8B104A96846FFF7AEFF0F490298FFF728
:10213800FBFC044610B12C1C18BF012401A8FFF7B2
:1021480085FF002CE9D004A96846FFF7B2FF68466E
:1021580001F085F8286001A8FFF778FFDDE705A8FA
:10216800FFF774FF0BB030BD96430A0837B50C462D
:102178001A492046154601F01BFC40B900F0D2FD73
:102188004FF4165100F0BCFD00F0CCFD23E01449DB
:10219800204601F00DFC40B900F0F2FD4FF4165155
:1021A80000F0AEFD00F0ECFD15E00E49204601F010
:1021B800FFFB78B902A94FF4165341F8043D2846AD
:1021C800FFF7A4FF00F064FE019900F05BFE00F049
:1021D8005FFE00E0002003B030BD00BF9B430A084B
:1021E800A2430A08A5430A0870B50546046843686F
:1021F800142606FB0346A64205D004F10800FFF7A3
:10220800F3FF1434F7E72868FFF7D4F9284670BDC0
:1022180070B505460468436804EB0316A64204D06B
:102228002046FFF76BFA1034F8E72868FFF7C2F981
:10223800284670BD10B504460C30FFF7D5FF204680
:10224800FFF7E6FF204610BD10B50446034B40F8E3
:10225800043BFFF7EFFF204610BD00BF8C3B0A0888
:1022680010B50446FFF7F0FF2046242101F0CAF913
:10227800204610BD10B50446024B0360FFF7E4FF8B
:10228800204610BD2C430A0810B50446FFF7F2FF9C
:102298002046242101F0B6F9204610BD10B50446A9
:1022A80003681868FEF7D8FF204610BD2DE9F04FE7
:1022B8009B461B4B85B05B688246C3F308030E46FA
:1022C800904653BBFFF792FE044624300390FFF775
:1022D800EDFC237BF3B90123237325686368F6B209
:1022E80005EB83094D4513D055F8047B4146381D4D
:1022F800FFF702FE8642F5D33B68CDF800B09B6835
:1023080038469E463246434651467746B847E9E73F
:102318000023237303A8FFF7C1FF05B0BDE8F08FC2
:1023280000ED00E02DE9F74F9946194B07465B6829
:102338008846C3F30803164633BBFFF757FE044627
:1023480024300190FFF7B2FC237BD3B90123237318
:10235800256863685FFA86FB05EB830A55450ED04E
:1023680055F8046B4946301DFFF7C6FD8345F5D384
:1023780033684246DB68394630469847EEE7002323
:10238800237301A8FFF78AFF03B0BDE8F08F00BFF1
:1023980000ED00E02DE9F341154B04465B688846E3
:1023A800C3F30803FBB9FFF721FE0646243001906A
:1023B800FFF77CFC96E8A000462605EB8707AF42AE
:1023C80007D101A8FFF76AFFB442B4BF002001207B
:1023D8000AE055F8040B41460430FFF78DFD8642AC
:1023E800A8BF0646EBE7002002B0BDE8F08100BFB9
:1023F80000ED00E070B504460368426803EB820212
:102408009A4218460DD006680D680433AE42F7D1DB
:10241800011D521A01F069FA63680120013B6360EB
:1024280070BD002070BD1FB5044624300191039093
:10243800FFF73CFC01A92046FFF7DCFF20B903A801
:10244800FFF72CFF04B010BD6368002BF7D1FFF72E
:10245800F7FDF4E770B5044605694369182606FBDD
:102468000356AE4215D005F110012046FFF7C2FF12
:1024780063680BB9FFF7E4FDE06929690368DB6865
:102488009847696919B1206A0368DB689847183565
:10249800E7E725696369182606FB0356B54204D0A9
:1024A8002846FFF72BF91835F8E70023636170BD5C
:1024B80073B5044602ADFFF7C3FD04F1240045F8E7
:1024C800040DFFF7F3FB2046FFF7C4FF2846FFF78C
:1024D800E5FE25696369182606FB0356B54204D054
:1024E8002846FFF70BF91835F8E72069FFF762F877
:1024F8002068FFF75FF8204602B070BD03680A68DD
:1025080002600B6043684A6842604B6083688A686F
:1025180082608B60704710B50446002303604360F7
:102528008360FFF7EBFF204610BD8842F8B50446EC
:10253800164625D9904224D2551A143D2C44A1F1AF
:102548001407A2F10C050026A5F108039F4237D015
:1025580084B155F8083C2946236035F8043C04F159
:102568000800A38035F9023CA660E380E660266196
:10257800FFF7C4FF2846FFF737FE143C143DE3E796
:102588001ED001F108050027A5F108039E4217D0C7
:1025980084B155F8083C2946236035F8043C04F119
:1025A8000800A38035F9023CA760E380E760276153
:1025B800FFF7A4FF2846FFF717FE14341435E3E7A6
:1025C800F8BDF8B54568836804469D420E4617462F
:1025D8000EDB0135002D05DDA9000068FEF7F2FFCE
:1025E80020B9F8BD0068FEF7E5FF00202060A5606F
:1025F8002568626805EB860105EB8202521A081D00
:1026080001F073F945F826706368012001336360AF
:10261800F8BD37B5044624300D460190FFF746FB58
:102628002368616803EB810083421A4608D0126868
:102638000433AA42F8D101A8FFF730FE00250EE0C6
:102648002A462046FFF7BDFF05460028F3D06368F9
:10265800012B01D1FFF7E8FC01A8FFF71FFE284670
:1026680003B030BD8842F8B506460C46154614D965
:10267800904213D2A2F110056C1AA1F1100704447C
:10268800AF4218D01CB129462046FFF727F8284644
:10269800FFF734F8103D103CF2E70CD0AC420AD0FA
:1026A8001EB121463046FFF719F82046FFF726F8F5
:1026B80010341036F2E7F8BD70B50E1E05460BDD76
:1026C8003001FEF76FFF044670B195E8060001EB94
:1026D8000212FFF7C7FF00E000242868FEF76AFF30
:1026E8002C60AE60012070BD70BD2DE9F04F9246A0
:1026F8000023462295B0036043608360C360036192
:10270800436102760291DAF804100546994208936B
:1027180009930A9340F39D8008A8FFF7CDFF00288E
:1027280040F097808EE021460BA8FEF7D7FF0BA953
:102738000FA8099EFEF7D2FF09990A9B9942C0F299
:10274800CE80013108A8FFF7B7FF002840F0C78006
:102758000FA8FEF7D3FF0BA8FEF7D0FF1434A7424B
:10276800E1D10026B1460B960C960D96099B9E4228
:1027780080F2A880089A3301D3580693002B00F002
:102788009F8014237343CDF81C9001930BAC07A9C9
:1027980006A8FFF77FF90746002800F0918014ABE0
:1027A800014603F8399D079A2046FFF765FB9DF817
:1027B80017800090B8F1000F53D1BDF81C300F9767
:1027C800ADF840304FF6FF73CDF84480ADF8423095
:1027D800CDF84880CDF84C806768A3689F424FDAEF
:1027E800009B14225343D4F800B061680BEB030735
:1027F80002FB01B207F1140039460393FFF795FE77
:10280800A7B10F9A039B11A94BF80320BDF84030DC
:1028180007F10800BB80BDF94230C7F80890FB807B
:10282800C7F80C90C7F81090FFF768FE636801338B
:10283800636011A8FFF7D8FCB8F1000F11D00BA8FE
:10284800FFF7D2FC08A8FFF7E3FC284615B0BDE85F
:10285800F08FDAF80040DAF80430142707FB034752
:102868007DE72368009A142404FB0234069B1B7836
:1028780023BBDAF80030019A13441B7CE3801DE087
:102888000137002F0FDD142303FB07F00393FEF736
:1028980089FE834678B194E80600039B03FB021285
:1028A800FFF743FE00E0C3462068FEF783FEC4F846
:1028B80000B0A76094E74FF00108BAE7083466E76C
:1028C800013653E708A92846FFF718FE0BA905F1BA
:1028D8000C00FFF713FE9DF808302B76AFE7089B36
:1028E800099A03EB061603EB0212314606F11000B3
:1028F800FFF7B8FE1EB10FA93046FEF7EFFE099BA1
:102908000133099324E700007FB504460E460546C7
:10291800084B114644F8043B01A8FEF76EF901AADA
:1029280031462046FFF7E1FE01A8FEF725F92846C3
:1029380004B070BD8C3B0A08F0B50F468BB02B492C
:10294800384616461D46109C01F032F828BB002C6C
:1029580049D0294601A8FFF7DEFD2549242000F0CB
:1029680053FE0546B8B101A904A8FFF7D4FD04A990
:1029780007A8FEF742F907AA31462846FFF7C4FF21
:1029880007A8FEF7F9F81B4B2C622B6004A8FEF78A
:10299800F3F8194B2B6001A81FE01849384601F0DD
:1029A80007F8F0B9FCB1294604A8FFF7B4FD1049AF
:1029B800242000F029FE054670B104A907A8FEF7F7
:1029C8001CF907AA31462846FFF79EFF07A8FEF71D
:1029D800D3F8084B2C622B6004A8FEF7CDF82846E4
:1029E80002E0002000E020460BB0F0BDF7430A08E3
:1029F800B8450A0840440A082C430A08FB430A0859
:102A0800014A024B1A6070470C440A0874040020FB
:102A1800024B1A68024B1A60704700BF0C03002073
:102A2800780400200021FEF741BD10B50446FDF7EB
:102A3800A3FB204610BD0000034800238360034A1F
:102A4800034900F0D1BD00BF7C04002078030020BA
:102A5800332A0A0808B5144B33B100F063F9036848
:102A68001B699847002816DC104B33B100F010FAA8
:102A780003681B699847002810DC0D4B0BB1AFF3B6
:102A880000800C4B7BB100F07BF903681B69984709
:102A9800002806DC08BDAFF30080E5E7AFF300804F
:102AA800EBE7AFF3008008BD000000000000000065
:102AB800000000000000000008B5FFF7CBFFFEF79C
:102AC8005BFB014B186008BD140500200248034A4F
:102AD8000349121A00F0FEBE004002403040024096
:102AE800F0470A0807B5002300931A466FF07701EC
:102AF800FEF7EEFC03B05DF804FB000007B5438861
:102B08000A2B08D0502B09D1094B1B683BB103B0E5
:102B18005DF804EB1847FFF7E5FF06E00023009394
:102B28001A466FF07701FEF7D3FC03B05DF804FB9B
:102B38008C04002038B5104C104D2368AB42104B64
:102B48000CBF012200221A7002D0FFF7BFFF2560D8
:102B5800FEF702FB044600F0EBFE0A4B13B12046D9
:102B6800AFF3008000210748FEF714FDBDE83840A8
:102B780000210548FEF7A2BC2C4002401E1C279AE3
:102B88009004002000000000052B0A08704710B5CB
:102B98000446182100F036FD204610BDF8B50F4652
:102BA80000F10806051D002416F8011D0A22384602
:102BB800FEF71AFFAE42044407D0002CF4D02E21B1
:102BC8003846FEF7CEFE0444EEE72046F8BD000086
:102BD80010B50446044B112240F8043B002100F0D4
:102BE8009FFE204610BD00BF9C440A080346074AC2
:102BF80010B543F8042B01F1100251F8044B91422F
:102C080043F8044BF9D10A781A7010BD9C440A089D
:102C1800024A416002600422027570479C440A0817
:102C280010B59DF8084044EA032343EA024242EA09
:102C3800016104234160037510BD000037B5044DE0
:102C480005609DF818500095FFF7EAFF03B030BD06
:102C58009C440A0841747047704708B50021007CFD
:102C6800FEF7CCFB30EA200028BF4FF0FF3008BD4C
:102C780008B50121007CFEF7C1FB30EA200028BF1F
:102C88004FF0FF3008BD08B5007CFEF7AFFB20EA27
:102C9800E07008BD08B5007CFEF7A0FB20EAE070F4
:102CA80008BD007CFEF7BABB10B50446142100F03D
:102CB800A9FC204610BD38B50446007C0D46FEF739
:102CC80095FB002801DC607C28B12946207CFEF7B2
:102CD8009DFB20EAE07038BD10B504460023636010
:102CE8004FF47A73A360054B0846236001232174CF
:102CF80063741146FEF75AFB204610BDB0440A081B
:102D08000022007CFEF75ABB007CFEF75FBB007C0C
:102D1800FEF78CBB10B504461422002100F000FE1B
:102D2800204610BD30B50E4D87B001A8FFF7F2FF61
:102D3800296811F0010410D12846FDF7B9F960B1EE
:102D480001AA21460748FFF7C7FF2846FDF7B5F94E
:102D5800054A0649034800F047FC024807B030BD61
:102D6800940400209C04002078030020612C0A08A9
:102D780010B504461422002100F0D2FD204610BDF3
:102D880010B50E4C86B001A8FFF7F2FF2368DB07E9
:102D980010D42046FDF78CF960B101AA012108483A
:102DA800FFF79AFF2046FDF788F9064A06490448C6
:102DB80000F01AFC024806B010BD00BF98040020BD
:102DC800B004002078030020612C0A087047417481
:102DD800704708B5007CFEF787FA20EAE07008BD66
:102DE80008B5007CFEF760FA20EAE07008BD08B577
:102DF800007CFEF769FA30EA200028BF4FF0FF3068
:102E080008BD08B5007CFEF757FA30EA200028BF55
:102E18004FF0FF3008BD007CFEF75EBA10B50446DF
:102E2800142100F0EFFB204610BD70B5457C044628
:102E38000E4625B9007CFEF757FA002805DD314615
:102E4800207CBDE87040FEF727BA284670BD000018
:102E580010B5044608461146002262604FF47A72A3
:102E6800A260054A20742260012262741A46FEF7A5
:102E780003FA204610BD00BFE0440A080023007C86
:102E8800FEF73ABA0022FFF7F9BF007CFEF7FCB95B
:102E9800F8B5194C25684DB98420FDF7FAF80646AF
:102EA80018B18422294600F03BFD2660134D2E6898
:102EB8004EB98420FDF7EDF8074618B18422314653
:102EC80000F02EFD2F600E4F396811F0010611D168
:102ED8003846FDF7EDF868B1226831462B68094895
:102EE800FFF7B6FF3846FDF7E8F8074A07490548EF
:102EF80000F07AFB0348F8BDE0040020D804002065
:102F0800DC040020C404002078030020D52D0A0822
:102F18007047F8B5064615460C468F18BC4206D0D1
:102F2800336814F8011B9B6830469847F6E7284633
:102F3800F8BD0022007CFEF707BA0021007CFEF7EE
:102F48000BBA0021007CFEF70FBA0021007CFEF7C7
:102F580013BA0021007CFEF717BA10B504461421F5
:102F680000F050FB204610BD10B5044608464FF44B
:102F78007A73A360044B0021207461602360FEF71C
:102F88000BFA204610BD00BF10450A0800231A4658
:102F98001946007CFEF7B8B913B50024007C0094EC
:102FA800FEF7BAF9C0B202B010BD0123FFF7F4BFB3
:102FB8000022007CFEF7B8B90022007CFEF7BCB9FD
:102FC8000121FFF7F9BFF0B5164689B011220F4667
:102FD8000446002103A800F0A3FC304600F0FAFCE8
:102FE8000025009581B27B6803AA3046FEF726FAD1
:102FF80020B129462046FFF70BFE03E003A920462F
:10300800FFF7F4FD204609B0F0BD002211464068E4
:10301800FEF7A0BA002211464068FEF7ABBA0022BC
:103028004068FEF79FBA002281F001014068FEF770
:1030380089BA00231A4619464068FEF77BBA00226F
:1030480002214068FEF75EBA00231A464068FEF780
:1030580049BA0000024B04225A60024A1A607047BB
:10306800E404002038450A0800231A464068FEF7A1
:1030780039BA002202214068FEF744BA00221146FC
:103088004068FEF737BA002211464068FEF742BA98
:1030980000231A4619464068FEF744BA00231A4628
:1030A80019464068FEF746BA002281F001014068DF
:1030B800FEF748BA00224068FEF754BA00221146CB
:1030C8004068FEF757BA002211464068FEF742BA38
:1030D80070B516468EB0044608A8FFF779FD112290
:1030E800002103A800F01CFC304600F073FC00250A
:1030F8000A4B009581B25B6803AA3046FEF79EF939
:1031080020B129462046FFF783FD03E003A92046A6
:10311800FFF76CFD20460EB070BD00BFE404002030
:10312800024B034A1A6000225A607047EC040020E0
:103138006C450A0800F11002012312F8101C104611
:10314800012904D152F8041C03EB410304E00229CD
:1031580004BF52F8041C5B18013B02F11002ECD1C9
:1031680070470EB42DE9F04187B000AF07F1340481
:1031780054F8046B054623463246102107F108002F
:103188007C60FEF727FA0F2816D900F1080323F010
:103198000703E846ADEB030D3246411C234668465B
:1031A8007C60FEF717FA021E04DD2B6869469B68EF
:1031B80028469847C54607E030B12B6802469B6809
:1031C80007F10801284698471C37BD46BDE8F0417D
:1031D80003B0704710B5044603689B689847A36816
:1031E800013BA3602BB923682046BDE81040DB688B
:1031F800184710BD13B5026802AB03F8011D9468A7
:1032080019460122A04702B010BD8368FBB11A78A5
:10321800032A1AD8DFE802F00417021D05207047B8
:1032280002685B685268D05C2D2814D0A0F1300386
:10323800092B10D9742810D066280ED0A0F16E037F
:10324800584258417047062070470020704718467A
:10325800704704207047032070470220704710B55C
:103268000446FFF7D2FF02280DD016D3042814D83D
:103278002268A36850685B680A2200211844BDE8E8
:10328800104000F05DBC2268A36852685B68D05C9F
:10329800A0F174035842584110BD002010BD10B56C
:1032A800436904465BB18068013BE0601030A06070
:1032B800206163612BB1FFF73DFFA06001E0184674
:1032C80010BD012010BD10B504467D21FFF792FF07
:1032D80001232371204610BD08B50379012B02D0C4
:1032E800022B02D008BD2C2100E03A21FFF782FF13
:1032F80008BD10B50446FFF7EFFF20467B21FFF716
:1033080079FF00232371204610BD000038B504461C
:103318000D46FFF7E1FF23682046DB682A4603498C
:10332800984701232371204638BD00BF75430A081A
:1033380038B504460D46FFF7CFFF23682046DB6803
:103348002A460349984701232371204638BD00BF08
:10335800A7450A08F8B50D46174622210446FFF787
:1033680049FF2A4629462F44BA4238D0164616F84D
:10337800015B222D03D05C2D01D01F2D2DD8236891
:10338800521A9B68204698475C212046FFF732FF77
:103398000C2D19D007D8092D0FD00A2D12D0082DC1
:1033A80014D162210AE0222D05D05C2D03D00D2D09
:1033B8000CD1722102E0294600E074212046FFF773
:1033C80019FF09E06E21F9E76621F7E723682A4625
:1033D800DB6809492046984731463246C4E791429E
:1033E80004D02368521A9D682046A8472221204607
:1033F800FFF700FFF8BD00BFB2450A0870B50446E4
:103408000D461646FFF768FF204632462946FFF765
:10341800A1FF02232371204670BD70B504460D46F6
:103428001646FFF759FF204632462946FFF792FF16
:1034380001232371204670BD38B50C680368054622
:103448009C420CD014B1636801336360286828B1CA
:103458004368013B43600BB9FFF7BCFE2C6028466C
:1034680038BD000010B504460023036043601048CF
:10347800E360A060D1B10B78032B06D0B3B9136811
:1034880058684B68C35C6E2B08D0136858684B6843
:103498000344A3608B6849685B1AE36011462046C1
:1034A80051F8043B40F8043BFFF7C6FF204610BD27
:1034B800573E0A08002310B5044603604360836042
:1034C800C3600361436171B10B78012B0BD101F12A
:1034D80010038360CB681146436151F8043B40F800
:1034E800043BFFF7A9FF204610BD002310B5044692
:1034F80003604360816031B1114651F8043B40F8E4
:10350800043BFFF799FF204610BD000070B50C4C36
:103518000C4E0D4D00212046FEF76CF820460B4C52
:103528003246294600F060F801212046FEF762F88D
:10353800324629462046BDE8704000F055B800BF25
:10354800F404002078030020ED150A080405002083
:1035580010B5074C2368DB0708D42046FCF7A8FD04
:1035680020B1FDF711FE2046FCF7A7FD014810BD6C
:10357800180500201C05002013B5084C00231A4626
:10358800194600932046FFF759FB2046044A05498F
:1035980002B0BDE8104000F027B800BF20050020A9
:1035A80078030020952B0A0838B50B4D296811F0CF
:1035B80001040FD12846FCF77BFD58B12146074886
:1035C800FFF7D2FC2846FCF778FD054A0549034871
:1035D80000F00AF8014838BD380500203C050020F5
:1035E80078030020192F0A080B460146184600F0F8
:1035F80063B90000024B1868BFF35F8F704700BFC4
:1036080050050020FCF747BD10B5002814BF04463C
:1036180001242046FDF7C6FF20B9FFF7EBFF08B1EC
:103628008047F6E710BD0000184B1A68D1075CBF49
:1036380001221A60164B1A68D2075CBF01221A6071
:10364800144B1A68D0075CBF01221A60124B1A6823
:10365800D1075CBF01221A60104B1A68D2075CBF01
:1036680001221A600E4B1A68D0075CBF01221A604B
:103678000C4B1A68D1075CBF01221A600A4B1A6802
:10368800D2075CBF01221A60704700BF7005002096
:103698006C050020680500206405002060050020F6
:1036A8005C0500205805002054050020244B1A68AA
:1036B800D0075CBF01221A60224B1A68D1075CBF91
:1036C80001221A60204B1A68D2075CBF01221A60D7
:1036D8001E4B1A68D0075CBF01221A601C4B1A687F
:1036E800D1075CBF01221A601A4B1A68D2075CBF67
:1036F80001221A60184B1A68D0075CBF01221A60B1
:10370800164B1A68D1075CBF01221A60144B1A685D
:10371800D2075CBF01221A60124B1A68D0075CBF3F
:1037280001221A60104B1A68D1075CBF01221A6087
:103738000E4B1A68D2075CBF01221A60704700BF9F
:10374800A00500209C050020980500209405002075
:10375800900500208C0500208805002084050020A5
:10376800800500207C0500207805002074050020D5
:10377800244B1A68D0075CBF01221A60224B1A68D2
:10378800D1075CBF01221A60204B1A68D2075CBFC0
:1037980001221A601E4B1A68D0075CBF01221A600A
:1037A8001C4B1A68D1075CBF01221A601A4B1A68B1
:1037B800D2075CBF01221A60184B1A68D0075CBF99
:1037C80001221A60164B1A68D1075CBF01221A60E1
:1037D800144B1A68D2075CBF01221A60124B1A6890
:1037E800D0075CBF01221A60104B1A68D1075CBF72
:1037F80001221A600E4B1A68D2075CBF01221A60B8
:10380800704700BFD0050020CC050020C805002067
:10381800C4050020C0050020BC050020B805002014
:10382800B4050020B0050020AC050020A805002044
:10383800A4050020184B1A68D1075CBF01221A6042
:10384800164B1A68D2075CBF01221A60144B1A681B
:10385800D0075CBF01221A60124B1A68D1075CBFFF
:1038680001221A60104B1A68D2075CBF01221A6045
:103878000E4B1A68D0075CBF01221A600C4B1A68FD
:10388800D1075CBF01221A600A4B1A68D2075CBFD5
:1038980001221A60704700BFF0050020EC050020E7
:1038A800E8050020E4050020E0050020DC050020F4
:1038B800D8050020D405002010B5054C13462CB1BE
:1038C8000A4601460220AFF3008010BD204610BD15
:1038D8000000000010B5431E0A44914204D011F8BC
:1038E800014B03F8014FF8E710BD884210B501EB12
:1038F800020301D8421E0BE09842FBD28118D21A6B
:10390800D34204D013F8014D01F8014DF8E710BD7A
:10391800994204D011F8014B02F8014FF8E710BDA5
:1039280003460244934202D003F8011BFAE77047AA
:1039380038B5124B05461C68A36BD3B91820FDF7A0
:1039480031FE43F20E33A06303804AF6CD33438041
:1039580041F2342383804EF26D63C3804DF6EC63ED
:103968000381052343810B23838101220023C0E9BE
:103978000423A36B00221D615A6138BD7403002023
:10398800C9B2034610F8012B1AB19142F9D1184671
:10399800704700290CBF18460020704710B5044630
:1039A800FFF7EEFF18B9204600F014F8204410BDC8
:1039B80010F8012B11F8013B012A28BF9A42F7D0D1
:1039C800D01A7047034611F8012B03F8012B002A7F
:1039D800F9D17047034613F8012B002AFBD1181AB6
:1039E8000138704730B582B1451E013915F8013FDD
:1039F80011F8014FA34206D1EC431444E04201D030
:103A0800002BF3D11C46181B30BD104630BD38B50D
:103A180003460D4641B1002429461846FFF7B0FF7A
:103A280030B1431C0446F7E7BDE83840FFF7A8BFAC
:103A3800204638BD2DE9F0470F4680463F48D0F86C
:103A480000903D4615F8014B09EB0400407800F062
:103A5800080000F0FF0608B12F46F2E72D2C03D12D
:103A6800BD1C7C78012603E02B2C04BF7C78BD1C90
:103A780013B1102B0AD15BE0302C57D1287800F015
:103A8800DF0058284DD16C7810230235002E14BF62
:103A98004FF0004C6FF0004CBCFBF3FA002738469F
:103AA80003FB1ACC09EB040E9EF801E01EF0040F8C
:103AB80001D0303C0BE01EF0030E1BD0BEF1010F0D
:103AC8000CBF4FF0370E4FF0570ECEEB0404A34255
:103AD80010DDB7F1FF3F0AD0504506D801D1644543
:103AE80003DC03FB0040012701E04FF0FF3715F826
:103AF800014BD7E77B1C0CD1002E4FF0220314BFDB
:103B08004FF000406FF00040C8F800302AB9BDE817
:103B1800F08706B1404272B107B1691E1160BDE875
:103B2800F0873024002BB1D10823AFE70A23ADE793
:103B3800302CA3D0AAE7BDE8F08700BF100300200F
:103B480013460A46014602480068FFF773BF00BFE4
:103B5800740300201D000A085D000A0889000A088D
:103B68008D000A08000000000000000000000000AE
:103B7800C5010A080D020A08EF000A080000000043
:103B8800000000000000000000000000A5000A0876
:103B9800C9000A08000000000000000039010A08F6
:103BA8006D010A08ED1C0A08CB000A08556E6B6EF9
:103BB8006F776E20535349443A20006661696C65FB
:103BC8006420746F20696E697469616C697A652014
:103BD80073656E736F722E0053656E736F72206912
:103BE8007320696E697469616C697A65642E005323
:103BF800657474696E6720426173652076616C75BF
:103C080065732066726F6D20454550524F4D2E00EA
:103C18004661696C656420746F2067657420626111
:103C280073656C696E652072656164696E6773009F
:103C380053656E736F7220436869702062617365A3
:103C48002076616C7565733A200965434F323A20D6
:103C580000200954766F633A20004661696C6564F8
:103C680020746F2073657420626173656C696E657A
:103C78002072656164696E677300454550524F4D07
:103C880020626173652076616C7565733A200965F9
:103C9800434F323A20004D6561737572656D656EEC
:103CA80074206661696C6564005347503330207234
:103CB800656164696E673A200965434F323A2000AE
:103CC80053475033302072656164696E673A20004B
:103CD800476F7420696E666F2066726F6D20454568
:103CE80050524F4D2E204E6F7720636865636B6985
:103CF8006E672E004461746120696E2045455052FC
:103D08004F4D206973206E6F7420696E6974696104
:103D18006C697A65642E2050757474696E67206EBC
:103D2800657720646174612E004461746120507568
:103D3800742E2E2E00446174612065786973747343
:103D480020627574206E6F74207468652073616DCD
:103D5800652061732063757272656E74206E616D83
:103D6800652E004E616D6520696E20454550524FA5
:103D78004D3A20006E6577206E616D652020202009
:103D880020203A2000426173652076616C75657366
:103D980020696E20454550524F4D20203A20004260
:103DA8006173652076616C75657320696E206E6538
:103DB8007720646174613A200067657474696E677E
:103DC80020426173652076616C75657300476F7476
:103DD80020626173652076616C7565733A200053C3
:103DE8006C656570696E6700454550524F4D207788
:103DF800617320656D70747900466F756E64204537
:103E08004550524F4D20646174612C2000416C7202
:103E180065616479206C6F61646564204545505222
:103E28004F4D20646174612E20000A4E616D653A21
:103E38002009000A536574204761733A2009000A73
:103E4800566F433A2009000A65436F323A20090049
:103E580052756E6E696E6720536574757020666F53
:103E680072206C6F6F702C2000436F756C64206E2D
:103E78006F742066696E6420612076616C696420C5
:103E880053475033302073656E736F722C2063680C
:103E980065636B20776972696E67210053475033F9
:103EA8003020436F6E6E656374656421004E416D0A
:103EB8006520746F207361766520746F20454550C6
:103EC800524F4D3A20004E616D652073686F7274D1
:103ED800656E656420746F3A200043616C6C2062E3
:103EE80061636B20666F7220646576696365206E16
:103EF800616D6521007265636569766564200053AC
:103F08006176696E67206E616D652E2E2E00536591
:103F18007474696E67206E6577206E616D652E2EEC
:103F28002E3A2000536574206E616D652C206E6FEB
:103F38007720736176696E6720746F20454550520B
:103F48004F4D2E2E2E005765206861766520612022
:103F58006E616D6520696E2072616D202020203AA7
:103F68002000576520686176652061206E616D6567
:103F780020696E206F6E2066696C653A200057656F
:103F880020686176652061206E616D6520696E200C
:103F9800454550524F4D203A20004E6F206E616DBE
:103FA800652C2057696C6C2074727920616E6420CE
:103FB800676574206F6E652E2E2E00576520646F1E
:103FC8006E74206861766520612064657669636532
:103FD800206E616D652E20492077696C6C207265B2
:103FE80067697374657220776974682074686520DE
:103FF800636C6F75642E2E2E007061727469636C29
:10400800652F6465766963652F6E616D650057611C
:104018006974696E6720746F2067657420646576BB
:10402800696365206E616D652E2E2E005374696C70
:104038006C2077616974696E6720666F72206120F1
:104048006E616D652E2E2E004E6F74206120636C9C
:104058006F7564206C6F6F702E20436865636B69A1
:104068006E672064657669636520666F72206E618D
:104078006D652E00476F74206E616D652066726FE6
:104088006D20454550524F4D21004E6F74206120E0
:10409800636C6F7564206C6F6F7020616E64206E46
:1040A8006F207361766564206E616D652C204920F0
:1040B80063616C6C2074686565204E6F4E616D6538
:1040C8002E2E2E004E6F4E616D650057652068617B
:1040D80076652061206E616D653A2000546F6F6BC4
:1040E80020746F6F206C6F6E672E2E2E2077696C90
:1040F8006C2063616E63656C205769666920616E28
:10410800642074686520636C6F75642E2E2E200001
:10411800436F6E6E656374696E6720576946692ED2
:104128002E2E00436F6E6E656374696E6720746F20
:1041380020436C6F75642E2E2E0049732061206316
:104148006C6F7564206C6F6F702062757420746872
:104158006520636C6F7564206E6F7420636F6E6E7C
:1041680065637465642C2077696C6C206E6F7720AA
:10417800636F6E6E6563742E005769666920697394
:104188002072656164792E00576966692069732019
:10419800636F6E6E656374696E672E005769666932
:1041A8002069732072656164792E206E6F772074A0
:1041B8006F20636F6E6E65637420746F207468651A
:1041C80020636C6F75642E2000436F6E6E65637498
:1041D800696E6720746F2074686520636C6F7564FE
:1041E8002E2E2E200057652061726520636F6E6E3B
:1041F800656374656420746F2074686520636C6FF0
:1042080075642E2048617A61720057694669206397
:104218006F6E6E656374696F6E2074696D65642076
:104228006F75742C2077696C6C2074727920616EBC
:104238006420636F6E6E6563742E2E2E00576520A2
:10424800617265207374696C6C20636F6E6E656350
:1042580074696E6720746F2074686520636C6F756D
:10426800642E2057696C6C2074727920636F6E6EAF
:1042780065637420616761696E2E004E6F742063F8
:104288006F6E6E656374656420746F207468652052
:10429800636C6F75642E2077696C6C20747279205A
:1042A800616761696E2E2E2E004275726E6C65799B
:1042B80000345169756432392D64610033472075C3
:1042C80046695F394530003347207546695F433694
:1042D80042003347207546695F433833003347202F
:1042E8007546695F394533003347207546695F363F
:1042F800314200000000000000000000ED150A082F
:10430800EF150A0800000000000000009B1A0A08C8
:10431800C11A0A08751A0A086B310A080000000059
:10432800000000007D220A0891220A08591B0A0889
:104338007D1A0A080000000000000000971A0A0809
:10434800DD1A0A0875210A08EB1A0A0866006C6E5D
:1043580000666E00636F64650064657461696C0073
:104368000D0A00253031307520005D2000256400DD
:1043780028293A2000205B00636F6465203D2000F7
:1043880025690064657461696C73203D2000626171
:1043980075640053657269616C00555342536572C8
:1043A80069616C31007479706500706172616D00CB
:1043B800636D6400696400686E64007374726D00F4
:1043C80066696C74006C766C0061646448616E6444
:1043D8006C65720072656D6F766548616E646C65B8
:1043E8007200656E756D48616E646C657273004A23
:1043F800534F4E53747265616D4C6F6748616E64BC
:104408006C657200617070006E6F6E650074726129
:10441800636500696E666F007761726E006572721F
:104428006F720070616E696300616C6C000000005F
:10443800000000000000000051220A0869220A0852
:10444800ED1C0A08CB000A0800000000000000006C
:10445800991A0A08CF1A0A0841290A087F1A0A086D
:104468005A00252B3033643A253032750025592DF2
:10447800256D2D25645425483A254D3A2553257A2E
:104488000061736374696D6500000000000000003E
:1044980000000000A52B0A08952B0A08972B0A088C
:1044A8000000000000000000612C0A08B12C0A0876
:1044B800BF2C0A083F190A089D2C0A08632C0A0811
:1044C800792C0A08AB2C0A088F2C0A085D2C0A08DC
:1044D8000000000000000000D52D0A08252E0A085B
:1044E800332E0A083F190A08E92D0A080B2E0A0874
:1044F800F72D0A081F2E0A08D72D0A08DB2D0A08EF
:104508000000000000000000192F0A08632F0A08A5
:104518003B2F0A081B2F0A08432F0A084B2F0A08AB
:10452800532F0A085B2F0A08000000000000000053
:1045380051300A0847300A0893010A089D010A0801
:10454800691A0A083B300A082F300A0827300A0877
:104558001D300A0813300A08CF2F0A08000000008F
:104568000000000071300A087B300A0885300A080C
:104578008F300A0899300A08A5300A08B1300A08AD
:10458800BD300A08C5300A08CF300A08D9300A08F1
:10459800302E300066616C73650074727565002595
:1045A80075002567006E756C6C00752530347800D1
:1045B800000020202020202020202028282828280B
:1045C80020202020202020202020202020202020E3
:1045D800202088101010101010101010101010103B
:1045E800101004040404040404040404101010103B
:1045F80010101041414141414101010101010101F6
:104608000101010101010101010101010110101065
:1046180010101042424242424202020202020202C8
:104628000202020202020202020202020210101038
:104638001020000000000000000000000000000042
:104648000000000000000000000000000000000062
:104658000000000000000000000000000000000052
:104668000000000000000000000000000000000042
:104678000000000000000000000000000000000032
:104688000000000000000000000000000000000022
:104698000000000000000000000000000000000012
:1046A8000000000000000000000000000000000002
:1046B80000000000000000000000000000000000F2
:1046C80000000000000000000000000000000000E2
:1046D80000000000000000000000000000000000D2
:1046E80000000000000000000000000000000000C2
:1046F80000000000000000000000000000000000B2
:1047080000000000000000000000000000000000A1
:104718000000000043000000690C0A08190E0A088E
:10472800310E0A08350E0A08390E0A083D0E0A0825
:10473800410E0A08450E0A08490E0A084D0E0A08D5
:10474800510E0A08550E0A08590E0A085D0E0A0885
:10475800610E0A08C3100A08C7100A08CB100A0815
:10476800CF100A08D3100A08D7100A08DB100A0865
:10477800DF100A08E3100A08E7100A080B110A08F4
:104788000F110A0813110A0817110A081B110A0841
:104798001F110A0823110A0827110A082B110A08F1
:1047A8002F110A0833110A0837110A083B110A08A1
:1047B80025160A08092A0A08192A0A08412A0A088D
:1047C8005D300A0829310A0815350A0881350A08B2
:1047D80031360A08B5360A0879370A083D380A0812
:0847E8000000000000000000C9
:1047F00000010000000000000000000000000000B8
:1048000000000000000000000000000000000000A8
:104810000000000000000000000000000000000098
:104820000100000058440A0844430A0889440A0861
:10483000B9450A0800000000BC460A08DC460A0820
:10484000FC460A0800000000000000000000000014
:10485000000000001C470A080000000000000000E3
:104860000000000000000000000000000000000048
:104870000000000000000000000000000000000038
:104880000000000000000000000000000000000028
:084890000000000014030020E9
:10489800FFFFFFFF00000102030405060708090ADD
:1048A8000B0C0D0E0F101112131415161718191AD8
:0848B8001B1C1D1E1F2028001F
:0448C00078563412E0
:04000005080A0018CD
:00000001FF
