:02000004080AE8
:1000000000000A08106B0A0800000600060005013F
:08001000040279050000000064
:04001800B8610A08B9
:1000200009480A4908B5884205D0094A824202D0E7
:10003000121A05F0A3FC0748074A0021121A05F01E
:10004000A8FC064808BD00BF00000020206A0A087E
:10005000C8000020C800002008030020080300207A
:1000600070B502F06BF9074B074C1E46E41AA40862
:100070000025A54204D056F8253098470135F8E709
:1000800070BD00BFD0690A080C6A0A0800F038B8D1
:1000900008B500F0F3FABDE8084002F011B901F02C
:1000A0004DBB01F053BB0078B0FA80F040097047B7
:1000B00001230370704700221146406801F0C6BA60
:1000C00000221146406801F0D1BA0EB400B58CB0E0
:1000D0000DAA52F8041B20238DE806000392049316
:1000E0000168002304AA1E20059301F049FA0CB010
:1000F0005DF804EB03B070470121084601F046B9F2
:1001000010B5184B0121188802F00CFF164B174C44
:100110001888012102F006FF0121208802F002FF69
:100120000A2002F06BF80121208802F00CFF02F097
:10013000BBFC4FF4165102F0ABFC0D490D48FFF724
:10014000C4FF0D4800F036FE0C4B002118600C482F
:1001500001F04CF828B902F0A7FC0A4901F026FE8C
:10016000FEE710BD04000020000000200800002071
:10017000CC610A083C010020F0000020D4000020DF
:10018000D8000020E3610A0810B58EB0B94902A872
:1001900001F023FDB8490AA801F01FFD0AA902A831
:1001A00001F09AFD0AA801F0D1FCB4490AA801F0B7
:1001B00014FDB34800F012FE0322014606A801F028
:1001C0005DFD06A90AA801F09AFDAE4901F0A3FD64
:1001D000014602A801F080FD06A801F0B7FC0AA8BC
:1001E00001F0B4FCA8490AA801F0F7FCA44800F00B
:1001F0001FFEA64905F01CF80322014606A801F0DF
:100200003DFD06A90AA801F07AFD9E4901F083FD93
:10021000014602A801F060FD06A801F097FC0AA8BB
:1002200001F094FC9A490AA801F0D7FC944800F028
:10023000D5FE0322014606A801F020FD06A90AA862
:1002400001F05DFD8F4901F066FD014602A801F055
:1002500043FD06A801F07AFC8E4C0AA801F076FC5A
:100260008D490AA801F0B9FC0A22218806A801F0EC
:10027000F2FC06A90AA801F042FD824901F04BFDFB
:10028000014602A801F028FD06A801F05FFC0AA8BB
:1002900001F05CFC81490AA801F09FFC0A226188F8
:1002A00006A801F0D8FC06A90AA801F028FD7549A6
:1002B00001F031FD014602A801F00EFD06A801F093
:1002C00045FC0AA801F042FC75490AA801F085FC2A
:1002D00001F080FF0A22014606A801F0BCFC06A935
:1002E0000AA801F00CFD674901F015FD014602A8BE
:1002F00001F0F2FC06A801F029FC0AA801F026FC96
:1003000068490AA801F069FC01F05CFF0A22014675
:1003100006A801F0A0FC06A90AA801F0F0FC5949C2
:1003200001F0F9FC014602A801F0D6FC06A801F094
:100330000DFC0AA801F00AFC5B490AA801F04DFC7B
:1003400001F036FF0A22014606A801F084FC06A946
:100350000AA801F0D4FC4B4901F0DDFC014602A8DB
:1003600001F0BAFC06A801F0F1FB0AA801F0EEFBCF
:100370004E490AA801F031FC01F0FCFE0A220146B8
:1003800006A801F068FC06A90AA801F0B8FC3D49DE
:1003900001F0C1FC014602A801F09EFC06A801F094
:1003A000D5FB0AA801F0D2FB41490AA801F015FCCF
:1003B00001F0EAFE0A22014606A801F04CFC06A95B
:1003C0000AA801F09CFC2F4901F0A5FC014602A8F7
:1003D00001F082FC06A801F0B9FB0AA801F0B6FB07
:1003E00034490AA801F0F9FB01F0D8FE0A220146BF
:1003F00006A801F030FC06A90AA801F080FC2149FA
:1004000001F089FC014602A801F066FC06A801F093
:100410009DFB0AA801F09AFB27490AA801F0DDFB21
:100420000A22114606A801F016FC06A90AA801F046
:1004300066FC144901F06FFC014602A801F04CFC77
:1004400006A801F083FB0AA801F080FB1B4902A863
:1004500001F046FC02A90AA801F0E1FB184B0A9A38
:100460001B7818498DF8003006A83C2302F0D4F818
:10047000079C29E0C9620A08F7610A08FA610A08BC
:10048000F000002000620A0803620A080000C84267
:1004900009620A08D80000200F620A0815620A08DB
:1004A0001B620A0821620A0827620A082D620A08EC
:1004B00033620A0839620A083F620A0845620A087C
:1004C0003401002056620A087CB16368013B636016
:1004D0005BB9236820469B689847A368013BA360EB
:1004E0001BB923682046DB6898470AA801F02EFB59
:1004F0004FF47A7001F082FE02F0D6FA064901F05C
:1005000055FC02F0D1FA029901F050FC02A801F06A
:100510001DFB0EB010BD00BF5E620A0873B502F08D
:10052000C3FA464901F02FFC02F0BEFA444D0646DC
:10053000284600F053FC04F01DF9022402460B4645
:100540000094304601F03AFD02F0AEFA3D4901F068
:100550002DFC02F0A9FA3C4901F015FC02F0A4FAC6
:100560000646284600F064FC384904F061FE04F0B9
:1005700001F9009402460B46304601F01FFD02F0DF
:1005800093FA334901F012FC02F08EFA314901F07E
:10059000FAFB02F089FA30490646284600F068FD69
:1005A00004F0E8F8009402460B46304601F006FDE0
:1005B00002F07AFA294901F0F9FB02F075FA2849AC
:1005C00001F0E1FB02F070FA0646284600F006FD55
:1005D00004F0D0F800940B460246304601F0EEFCE1
:1005E000204C02F061FA204901F0E0FB02F05CFAD5
:1005F0001E4901F0C8FB02F057FA0A22218801F0D7
:100600002DFC02F051FA1A4901F0BDFB02F04CFA40
:10061000184901F0B8FB02F047FA0A22618801F09C
:100620001DFC02F041FA144901F0C0FB02F03CFA53
:1006300002B0BDE8704001F0ADBB00BF74620A08B3
:10064000F000002083620A0887620A080000C8429E
:1006500093620A0898620A0800507D44AC620A0856
:10066000AF620A08D8000020BB620A08BE620A080E
:10067000C4620A08CA620A08D0620A0830B52C4C63
:1006800089B02578002D34D02A4D0121288802F028
:100690005AFC01F02BF801F031F8002842D026482E
:1006A00000F0E0FD28B902F0FFF9244901F07EFBDB
:1006B0003CE0FFF733FFFFF767FD41F2883001F0C0
:1006C0009DFD1F4B0021188802F03DFC2888002169
:1006D00002F039FC1B4B0021188802F034FC002387
:1006E0002370194B194A1B68012106A801F01AF959
:1006F00018E0134B0121188802F025FC124B01224F
:100700001B68022102931E23ADF816108DE80C0021
:100710000DF116010DF1150306A822708DF8155084
:1007200001F030F94FF47A7001F068FD09B030BD86
:100730000040024000000020D8000020D5620A08D6
:100740000400002008000020EC000020C04B030043
:100750000D4B10B500241C600C4B1C7000F09EFD6E
:100760000B4800F047F80B4800F0B0FC4FF6FF7262
:10077000094B02201C705C809A8000F011FFBDE8DC
:100780001040FFF7B9BC00BFEC000020340100208E
:10079000F0000020D8000020CC0000207FB50246E9
:1007A00013790846956833B13DB90C4904B0BDE8EA
:1007B000704001F0E8BA0A4B00E00A4B167B0A4C85
:1007C0000A49527B012E08BF2146029201910095F1
:1007D000074A002101F0F7FB04B070BD31650A083B
:1007E000C9620A0820650A0829650A082D650A08F1
:1007F00047650A08FF22027442748274C27470470B
:100800002DE9F04190F91330054601330F4604D12C
:100810001648BDE8F04101F07BB8072600244FF0F0
:10082000010895F91300002180B202F08CFB95F9C4
:10083000110008FA06F1394080B202F084FB95F904
:100840001300012180B202F07EFB95F912006400D2
:1008500080B2E4B202F090FB08B144F0010416F15A
:10086000FF36DED22046BDE8F08100BFEC0100205B
:100870007FB590F91030044601330E46154611D16C
:100880000179006802F064FA2068314603689B68C9
:1008900098472068294603689B689847206802F0BB
:1008A0005FFA2FE090F9133001330FD1164B174A3E
:1008B0000093029200230122694615488DF8043006
:1008C0008DF80C208DF80D3000F0B2FF94F9100077
:1008D000002180B202F037FB06F07F012046FFF7CF
:1008E0008FFF29462046FFF78BFF94F91000012166
:1008F00080B202F028FB94F91330013302D104488E
:1009000000F07DFF04B070BD1C650A0820A107003F
:10091000EC010020F8B5044690F83C509DF81860B2
:1009200061F3871562F3020563F3C50590F8403063
:100930009DF81CE066F3471380F8403090F838309B
:100940009DF820706EF3C50367F3020380F83C50F6
:1009500080F8383006F00702F221FFF789FF94F89B
:1009600038202046C2F3C20302F007019B0043EA8D
:10097000411343EAD212F521FFF77AFF94F83C20A5
:100980002046C2F3C20302F007019B0043EA411371
:1009900043EA9212F421BDE8F840FFF769BF000076
:1009A00030B590F9103085B0013304460D4616D1AC
:1009B0000179006802F0CCF92068294603689B6839
:1009C0009847206802F0CCF901222179206802F0D2
:1009D000BCF9206803685B699847C5B230E090F9BC
:1009E000133001330FD1184B184A009302920023A1
:1009F0000122694616488DF804308DF80C208DF8D8
:100A00000D3000F015FF94F91000002180B202F0C3
:100A10009AFA45F080012046FFF7F2FE00212046B9
:100A2000FFF7EEFE054694F91000012180B202F0B6
:100A30008AFA94F91330013302D1054800F0DFFE41
:100A4000284605B030BD00BF1C650A0820A107007C
:100A5000EC01002030B590F9103085B00133044628
:100A60000D461DD10179006802F072F9206829460F
:100A700003689B689847206802F072F90222217986
:100A8000206802F062F9206803685B6998470546B0
:100A9000206803685B69984740EA052085B237E023
:100AA00090F9133001330FD11B4B1C4A0093029273
:100AB0000023012269461A488DF804308DF80C2075
:100AC0008DF80D3000F0B4FE94F91000002180B2D2
:100AD00002F039FA45F080012046FFF791FE00212F
:100AE0002046FFF78DFE002105462046FFF788FED1
:100AF00040EA052085B294F91000012180B202F08D
:100B000022FA94F91330013302D1054800F077FE40
:100B1000284605B030BD00BF1C650A0820A10700AB
:100B2000EC01002008B5FFF795FF40BA80B208BD80
:100B300030B590F9103085B0013304460D4621D10F
:100B40000179006802F004F92068294603689B686F
:100B50009847206802F004F903222179206802F006
:100B6000F4F8206803685B69984705022068036809
:100B70005B69984728430502206803685B699847CA
:100B800005433BE090F9133001330FD11D4B1E4A52
:100B9000009302920023012269461C488DF804301C
:100BA0008DF80C208DF80D3000F042FE94F9100005
:100BB000002180B202F0C7F945F080012046FFF71E
:100BC0001FFE00212046FFF71BFE002105022046E4
:100BD000FFF716FE2843050200212046FFF710FE0E
:100BE000054394F91000012180B202F0ACF994F9A8
:100BF0001330013302D1054800F001FE284605B04C
:100C000030BD00BF1C650A0820A10700EC010020D0
:100C100038B588210446FFF785FF8A21A082204647
:100C2000FFF780FF8C21E0822046FFF77BFF8E21BB
:100C300020832046FFF776FF902160832046FFF750
:100C400071FF9221A0832046FFF76CFF9421E0837F
:100C50002046FFF767FF962120842046FFF762FFBA
:100C6000982160842046FFF75DFF9A21A0842046EA
:100C7000FFF758FF9C21E0842046FFF753FF9E2199
:100C800020852046FFF74EFFA12160852046FFF713
:100C900087FEE12184F82C002046FFF743FFE32183
:100CA000E0852046FFF77CFEE42184F830002046F2
:100CB000FFF776FEE52105462046FFF771FE00F0BE
:100CC0000F0040EA05106086E6212046FFF768FE27
:100CD000E52105462046FFF763FE001140EA0510B6
:100CE000A086E7212046FFF75BFE84F8360038BD7A
:100CF00008B5F321FFF754FE00F0010008BD000025
:100D000030B5044690F9100085B0421C03D120682C
:100D100002F00CF821E0012180B202F014F994F9FC
:100D20001000012180B202F0FDF894F91300431C79
:100D300003D11F4800F05EFD0FE0012180B202F0F8
:100D4000F1F894F91100012180B202F0EBF894F966
:100D50001200002180B202F0E5F8D0212046FFF712
:100D60001FFE6028A06020D12046B622E021FFF7B8
:100D70007FFD4FF4967001F041FA2046FFF7B8FF6F
:100D8000054608B16420F6E72046FFF741FF05233A
:100D900000931A460321204602950195FFF7BAFDFC
:100DA000642001F02BFA012000E0002005B030BDE6
:100DB000EC010020772310B50371044602F02AF9F4
:100DC00020602046FFF79CFF30B976232371204630
:100DD000BDE81040FFF794BF10BD000010B5FA2128
:100DE0000446FFF7A5FEB0F5000F1BD0A28AC2EBA8
:100DF00020235B435200C2EBE010B4F916201B1312
:100E00005043B4F9182053439B1303EBE020E060F8
:100E100000EB80008030001204F002F9024904F077
:100E200007FA10BD014810BD0000C8420000C07F95
:100E30002DE9F84F0646FFF7D1FFF7213046FFF7BF
:100E400077FEB0F5000F074600F0BF80F468B6F9F2
:100E50001C20E517B4F5FA3445F1FF35A4FB0489ED
:100E600004FB05F302FB05F109EB4309D31704FB6F
:100E70000311A2FB04230B44190341EA125110038E
:100E8000B6F91E2002FB09FED31708FB03EEA2FBF6
:100E9000082373444FEA122A4AEA036A1AEB000A4B
:100EA000728B4FEA232B4BEB010B1AF100004BF531
:100EB0000041A0FB02AB02FB01BB4FEA6B024FEA11
:100EC000EB7352EA030100F08380381140F6354796
:100ED000B6F924A0C0F580100AFB09F14FEAEA7BBD
:100EE00008FB0B11AAFB0889B6F922A089440AFB6A
:100EF00005F14FEAEA7B04FB0B11AAFB04450D4404
:100F00004FEA454B4FEA444A1AEB080A4BEAD43BF6
:100F10004BEB090B4FEAE0794FEAC97545EA5005FA
:100F2000C407B6F920004FF0000818EB0A084FEA92
:100F3000C00949EB0B09B4EB0804A4FB070165EBFE
:100F4000090507FB051104F00FFAB6F92A204C1326
:100F500002FB04F7450B45EAC145D31705FB0377B0
:100F6000A2FB052354433B4405FB0344A2FB05239A
:100F70002344540E44EAC314B6F9282024184FEA37
:100F800063654D415143D31700FB0313A2FB0001DE
:100F90001944C20C42EA41321219B6F926404FEA0E
:100FA000E1436B41100AE517220140EA0360191280
:100FB0002B0143EA14738018594104F047F84FF0AD
:100FC0006E5104F081F8BDE8F88F0348BDE8F88F52
:100FD0000020BDE8F88F00BF0000C07F10B50446B8
:100FE000FFF7FCFEFD212046FFF734FDB0F5004F72
:100FF0003AD0B4F93230E268B4F934101B05A2F5E6
:101000009632C3EB803302FB113303F58043D813D0
:1010100094F8303094F9361053434A43DB1292125D
:1010200003F500435343B4F92E209B1203F500133C
:10103000534303F500539B134343D813404394F8A1
:101040002C20C0115043A3EB201020EAE070B0F137
:10105000C85FA8BF4FF0C850001303F0E1FF4FF086
:101060006A5104F031F810BD004810BD0000C07F87
:1010700010B50C46FFF7DCFE114904F0D9F8214603
:1010800004F0D6F803F076FB09A3D3E9002302F0BD
:1010900033F902460B4600200A4903F00BFA06A377
:1010A000D3E9002303F0BAFB03F0B0FE10BD00BF8C
:1010B000EBE2361AC05BC83F0000000040A5E540E7
:1010C0000000C8420000F03F00F0E8B8704710B5DB
:1010D0000C46FF20631ADBB29A4211D914F8013B87
:1010E0005840082310F0800F03F1FF334FEA40000F
:1010F00018BF80F0310013F0FF03C0B2F2D1E9E76E
:1011000010BD2DE9F84F16468A4600AF017C054612
:10111000C068994697F82C4001F01AFE013E0AF18A
:10112000FF385644B045E86805D0036818F8011F39
:101130009B689847F6E701F013FE484601F05EF819
:10114000002C3DD04FEA440A04EB0A085FFA88F805
:101150004246297CE86801F0F8FD804501D0002076
:101160002FE008F1070323F00703ADEB030DEB4677
:101170006E46E946CBEB0903DBB2984506D9E86831
:1011800003685B69984709F8010BF3E7BB6A5444AD
:10119000A3F102085C44A64212D03146022228463E
:1011A000FFF795FF033616F8013C8342D7D116F8B6
:1011B000032C16F8023C43EA022328F8023FEAE730
:1011C0000120BD46BDE8F88F1FB520238DF80C30F7
:1011D00003238DF80D3000230193009302220A238C
:1011E00003A9FFF78EFF05B05DF804FB1FB5582378
:1011F0000446037419B901F00DFFE06000E0C1601E
:10120000E06801F093FD36238DF80C3082238DF8D1
:101210000D3003230193231D009302220A2303A907
:101220002046FFF76EFF08B9002019E020238DF853
:101230000C302F238DF80D30012301930DF10E0397
:10124000009302220A2303A92046FFF75AFF002831
:10125000EAD0BDF80E30202BE6D12046FFF7B4FFD0
:1012600004B010BD1FB520238DF8083008238DF879
:101270000930022203AB009301920C2302A9044619
:10128000FFF73FFF28B1BDF80E302380BDF80C30CA
:10129000638004B010BD00F001B8000008B5024B37
:1012A0001B681B68019308BDB001060808B5024B16
:1012B0001B689B68019308BDB001060808B5024B86
:1012C0001B68DB68019308BDB001060808B5024B36
:1012D0001B681B69019308BDB001060808B5024BE5
:1012E0001B685B69019308BDB001060808B5024B95
:1012F0001B681B68019308BDB401060808B5024BC2
:101300001B685B69019308BDB401060808B5024B70
:101310001B68DB69019308BDB401060808B5024BE0
:101320001B681B6A019308BDB401060808B5024B8F
:101330001B685B6A019308BDB401060808B5024B3F
:101340001B68DB6B019308BDB401060808B5024BAE
:101350001B685B68019308BD9C01060808B5024B39
:101360001B685B69019308BD9C01060808B5024B28
:101370001B68DB69019308BD9C01060808B5024B98
:101380001B689B6D019308BD9C01060808B5024BC4
:101390001B685B6E019308BDB801060808B5024BD7
:1013A0001B681B6B019308BDD001060808B5024BF2
:1013B0001B689B6B019308BDD001060808B5024B62
:1013C0001B681B6C019308BDD001060808B5024BD1
:1013D0001B689B69019308BDC401060808B5024B50
:1013E0001B685B6A019308BDC401060808B5024B7F
:1013F0001B689B6A019308BDC401060808B5024B2F
:101400001B68DB6A019308BDC401060808B5024BDE
:101410001B681B6B019308BDC401060808B5024B8D
:101420001B685B6B019308BDC401060808B5024B3D
:101430001B689B6B019308BDC401060808B5024BED
:101440001B681B6C019308BDC401060808B5024B5C
:101450001B68DB6C019308BDAC01060808B5024BA4
:101460001B685B6D019308BDAC01060808B5024B13
:101470001B689B6D019308BDAC01060808B5024BC3
:101480001B68DB6D019308BDAC01060808B5024B73
:101490001B681B6E019308BDAC01060808B5024B22
:1014A0001B685B6E019308BDAC01060808B5024BD2
:1014B0001B689B6E019308BDAC01060808B5024B82
:1014C0001B68DB6E019308BDAC01060808B5024B32
:1014D0001B681B6F019308BDAC01060808B5024BE1
:1014E0001B685B6F019308BDAC01060808B5034B90
:1014F0001B68D3F88030019308BD0000AC010608DA
:1015000008B5024B1B681B68019308BDD80106088B
:1015100008B5024B1B685B68019308BDD80106083B
:1015200008B5024B1B681B69019308BDD80106086A
:1015300008B5024B1B685B69019308BDD80106081A
:1015400008B5024B1B689B69019308BDD8010608CA
:1015500008B5024B1B68DB69019308BDD80106087A
:1015600008B5024B1B681B6A019308BDD801060829
:1015700008B5024B1B689B6C019308BDC0010608AF
:1015800008B5024B1B685B6D019308BDA8010208FA
:1015900008B5024B1B681B68019308BDA40106082F
:1015A00008B5024B1B685B68019308BDA4010608DF
:1015B00008B5024B1B685B69019308BDA4010608CE
:1015C00008B5024B1B689B69019308BDA40106087E
:1015D00008B5024B1B68DB6C019308BDA40106082B
:1015E00008B5024B1B685B6D019308BDA40106089A
:1015F00008B5024B1B689B6D019308BDA40106084A
:1016000008B5034B1B68D3F89030019308BD000068
:10161000A401060808B5034B1B68D3F89C3001935E
:1016200008BD0000A401060808B5034B1B68D3F8E9
:10163000A830019308BD0000A401060808B5024BBC
:101640001B685B68019308BDC801060808B5024B1A
:101650001B689B68019308BDC801060808B5024BCA
:101660001B68DB68019308BDC801060808B5024B7A
:101670001B681B69019308BDC801060808B5024B29
:101680001B685B69019308BDC801060808B5024BD9
:101690001B689B69019308BDC801060808B5024B89
:1016A0001B68DB69019308BDC801060808B5024B39
:1016B0001B681B6A019308BDC801060808B5024BE8
:1016C0001B681B6B019308BDC801060808B5024BD7
:1016D0001B685B6B019308BDC801060808B5024B87
:1016E0001B689B68019308BDCC01060808B5024B36
:1016F0001B68DB68019308BDCC01060808B5024BE6
:101700001B685B69019308BDCC01060808B5024B54
:101710001B681B6A019308BDCC01060808B5024B83
:101720001B681B6B019308BDCC01060808B5024B72
:101730001B68DB6B019308BDCC01060808B5024BA2
:101740001B681B68019308BDA001060808B5024B81
:101750001B685B68019308BDA001060808B5024B31
:101760001B689B68019308BDA001060808B5024BE1
:101770001B689B69019308BDA001060808B5024BD0
:101780001B685B6A019308BDA001060808B5024BFF
:101790001B68DB6A019308BDA001060808B5024B6F
:1017A0001B681B6B019308BDA001060808B5024B1E
:1017B0001B68DB6B019308BDA0010608704710B5DC
:1017C0000446102101F04BFC204610BD70B50446C4
:1017D0000E46074B0025036040F80C5FFFF7DEFD67
:1017E00030462671FFF792FDA560204670BD00BF10
:1017F00070650A084FF6FF710079FFF777BDC06882
:10180000FFF7DCBD400830B5186000241868E5B269
:10181000884206D90134082C02D040081860F5E748
:101820000725024B5B5D137030BD00BF78650A0869
:101830002DE9F04380468FB0C0680F46FFF7B6FD34
:1018400098F804401422002109A804F0A2F80B2300
:101850002046002209A9ADF82430FFF767FD9DF866
:101860002D404CB19DF82C502DB90C9E9DF8349014
:101870009DF8354003E00024A146264601253B792A
:101880000DB1002B40D19D420BD1BA68B24208D1B4
:101890008DF820908DF82140BDF82010BA89914232
:1018A00032D023BB8DF80F300DF10F0204ABB968B5
:1018B0000A98FFF7A7FF3B7905B113BBAB4209D0EC
:1018C00000213B7B01917C7B9DF80F2098F8040060
:1018D000009413E0BB68B342F2D38DF820908DF8EA
:1018E0002140BDF82020BB899A42E9D109E00023BC
:1018F0001A4698F80400019300930121FFF71EFD9A
:1019000002E0049BB342DBD100200FB0BDE8F083BE
:1019100008B50079FFF7F2FCC0B208BD0079FFF707
:10192000FDBC000010B50446084611461A460023C7
:10193000FFF746FE064B00221A704FF6FF725880E2
:101940009A801A689B882260A380204610BD00BF41
:101950003601002010B50024047044804FF6FF7457
:101960000029848007DD0139994209D232F811300B
:101970008380012301E002D10223037010BD418066
:1019800010BD000070B50D46164686B01A460023FD
:1019900002930C9B044601930B9B3146009328460F
:1019A0000A9BFFF741FE33462A46014604A8FFF78B
:1019B000D1FF064B0498BDF81420186020469A8089
:1019C0001A689B882260A38006B070BD3601002093
:1019D0004FF6FF72034B0020187058809A80FFF773
:1019E000DFBD00BF3601002010B5044604F02FF81B
:1019F000013823182046984206D20278197800F858
:101A0000011B03F80129F6E710BD70B50C46911EC5
:101A1000222920D82546294610B9234430220EE039
:101A2000B0FBF2F602FB1600C1B2092805F8011B53
:101A300094BF3031573105F8011C3046EBE799422D
:101A400002D201F8012BFAE7002320460B70FFF7C2
:101A5000CBFF204670BD002070BD38B5031E0C467C
:101A600015460BDAB3F1004F4FF02D0214BF584268
:101A7000184601230A702A46194400E00123FFF7A3
:101A8000C4FF204638BD00002DE9F14F80460D46C9
:101A900017461E46002200234046294603F030F92F
:101AA00020B12D23337005F10045013600230124B8
:101AB0000A22D9B28F4202D954430133F9E72046B2
:101AC00002F046FE42462B4602F0A8FE82468B46B6
:101AD00003F0B2FC8046894602F06AFE02460B46DD
:101AE0005046594602F0E6FC0022174B03F01CF961
:101AF00018B118F1010849F10009E51722462B46F3
:101B00004046494603F080FC01230A223146FFF794
:101B10007CFFAFB1304603F09AFF2E2333540130DF
:101B2000064422462B464046494603F06DFC3B46A0
:101B3000104631460A2201B0BDE8F04FFFF765BFFD
:101B400001B0BDE8F08F00BF0000E03F10B50446D3
:101B50000068FFF7FBFD204610BD10B50446006885
:101B600008B1FFF7F3FD00232360A360636010BD9D
:101B700038B504460D4600680131FFF7EFFD10B19E
:101B800084E82100012038BD10B50368044613B174
:101B900043688B4207D22046FFF7EAFF20B1A368D3
:101BA0000BB922681370012010BD70B50E461146A6
:101BB00004461546FFF7E8FF18B92046FFF7CDFFAA
:101BC00009E02A463146A560206803F0D7FE226866
:101BD000A3680021D154204670BD38B500230446C7
:101BE00003604360836003730D4639B1084603F018
:101BF0002EFF294602462046FFF7D7FF204638BD74
:101C0000884210B50B46044607D0096819B19A6896
:101C1000FFF7CBFF01E0FFF7A0FF204610BD10B596
:101C2000044600230360436083600373FFF7E8FF0B
:101C3000204610BD38B505460C4641B1084603F0B4
:101C400006FF214602462846FFF7AFFF01E0FFF7F7
:101C500084FF284638BD10B5044600238AB02360AF
:101C60006360A3602373084601A9FFF7F6FE01A98C
:101C70002046FFF7DFFF20460AB010BD30B504460E
:101C800000238BB00360436083600373D5B20846C2
:101C900002F070FD01AB2A46FFF7F6FE01A92046CF
:101CA000FFF7C8FF20460BB030BD70B504460E46A6
:101CB00009B9002070BD6AB18368D5182946FFF7BD
:101CC00063FF0028F5D02068A3683146184403F06C
:101CD0009BFEA560012070BD8A680968FFF7E5BF1B
:101CE00038B505460C46084641B103F0B0FE214622
:101CF00002462846BDE83840FFF7D7BF38BD10B5CB
:101D00008A6809680446FFF7D0FF10B92046FFF73C
:101D100024FF204610BD38B504460D4641B10846A3
:101D200003F095FE294602462046FFF7BEFF10B994
:101D30002046FFF712FF204638BDF8B506460D468F
:101D40008F180024BD420CD0336815F8011B9B6826
:101D500030469847002801DB0444F3E7002C08BF15
:101D600004462046F8BD70B505460C46084649B104
:101D700003F06DFE2B68024621462846BDE8704000
:101D8000DB68184770BD08B5FFF7EDFF08BD0368B5
:101D90009B68184738B50D210546FFF7F8FF0A2163
:101DA00004462846FFF7F3FF204438BD38B5054602
:101DB000FFF7D9FF04462846FFF7ECFF204438BD63
:101DC000012A98BF0A2230B50B468BB000218DF84E
:101DD00024100DF12304B3FBF2F505FB1233DBB243
:101DE000092B94BF30333733DBB2214604F8013975
:101DF0002B46002DEFD1FFF7B6FF0BB030BD10B46E
:101E000022B90368C9B29B6810BC1847D2B210BC93
:101E1000FFF7D6BFFFF7F3BF2DE9F04107460E46A7
:101E200015462AB9BDE8F0410368C9B29B68184756
:101E30000A2A02D1002901DA04E0D2B2BDE8F04159
:101E4000FFF7BEBF2D21FFF7A2FF2A4604467142CD
:101E50003846FFF7B5FF2044BDE8F081FFF7DCBF4F
:101E60002DE9F84319468046104617461E469DF850
:101E7000205002F06DFF08B1474912E026F00044FF
:101E80004FF0FF32454B3846214602F061FF68B9FA
:101E90004FF0FF32414B3846214602F03BFF28B954
:101EA0003F494046FFF75FFFBDE8F8834FF06042CF
:101EB0003C4B3846314602F041FF08B13A49F0E761
:101EC0004FF06042394B3846314602F019FF002886
:101ED000F4D1002200233846314602F011FF38B118
:101EE0002D214046FFF753FF06F10046044600E06F
:101EF00004462F494FF0000900205FFA89F39D4204
:101F000006D900222B4B02F0B3FD09F10109F4E7D9
:101F10003A46334602F0D0FA0F46064602F056FF24
:101F20000A22014681464046FFF74AFF04447DB33A
:101F3000484602F0FDFB02460B463046394602F0A9
:101F4000B9FA06460F4640461B49FFF70CFF04440A
:101F5000184B00223046394602F060FC0F46064618
:101F600002F00CFF0A22014681464046FFF754FF6B
:101F70000444484602F0ECFB02460B463046394624
:101F800002F098FA013D15F0FF0506460F46DFD135
:101F90002046BDE8F88300BF80650A08FFFFEF7F99
:101FA00088650A08FFFFEF4184650A08FFFFEFC15B
:101FB0000000E03F000024401F630A089DF8001065
:101FC0000091FFF74DBF0CB42DE9F04387B000AF8F
:101FD00007F1380454F8049B05460E4623464A464A
:101FE0001421381D3C60FFF7C9FB132805D8391DA3
:101FF0002846FFF7B8FE044613E000F1080323F07B
:102000000703E846ADEB030D411C23464A466846EC
:102010003C60FFF7B3FB69462846FFF7A4FE044681
:10202000C5461EB12846FFF7B5FE044420461C37BE
:10203000BD46BDE8F04302B0704700231A4619467A
:102040004068FFF71BBB38B5046805467CB1636880
:10205000013B63605BB9236820469B689847A3688F
:10206000013BA3601BB923682046DB6898472846DC
:1020700038BD0B68036013B15A6801325A6070476B
:10208000014A024B1A60704702660A083C010020B0
:10209000F0B5144B144F1E68144B064418683B6887
:1020A00006449E428BB01BD00AA840F8286D03F06E
:1020B0006DFB0446436901AD03F26C7343610FCCC1
:1020C0000FC50FCC0FC5D4F800E0094CC5F800E0EF
:1020D00001AD0FCD0FC40FCD0FC43E60C4F800E0BA
:1020E0000BB0F0BD700100206C01002068010020E1
:1020F0004001002008B50020FFF710FB28B1FFF7D2
:10210000FDFA80F00100C0B208BD012008BD00004A
:1021100008B5FFF7BDFF024B1869013008BD00BFCD
:102120004001002010B50020FFF728F9044668B9E7
:10213000FFF72EFA01280BD12046FFF759FA38B9DC
:10214000FFF7D8FF30B9FFF7C9FAF9E7012010BD52
:10215000002010BDFFF7CEFF0020FFF70FF9003081
:1021600018BF012010BD08B5FFF7DCFFBDE808402F
:10217000FFF7FCB808B5FFF7F6FFFFF789FF014B43
:10218000986808BD4001002008B5FFF7ECFFFFF795
:102190007FFF014B586808BD4001002008B5FFF7DC
:1021A000E2FFFFF775FF014B186808BD40010020F2
:1021B00008B5FFF7D8FFFFF76BFF014BD86808BDE4
:1021C0004001002008B5FFF7CEFFBDE80840FFF74B
:1021D0009FBF000008B5FFF7C6FFFFF759FF014B8F
:1021E000586908BD40010020024B1A68024B1A6072
:1021F000704700BF0C000020640100200021FFF7A1
:10220000D7B910B58368044613B103220146984735
:10221000204610BD10B50446FFF7F3FF204610BD61
:1022200013B50B46044603C88DE8030093E803008A
:1022300084E803009DE8030083E8030002B010BDBA
:10224000034800238360034A034900F003BF00BF33
:1022500074010020C800002015220A0808B5144B9C
:1022600033B100F021FC03681B699847002816DC95
:10227000104B33B100F0C8FC03681B699847002875
:1022800010DC0D4B0BB1AFF300800C4B7BB100F0B9
:1022900039FC03681B699847002806DC08BDAFF3CA
:1022A0000080E5E7AFF30080EBE7AFF3008008BD07
:1022B000000000000000000000000000000000001E
:1022C00008B5FFF7CBFFFFF749F8014B186008BDD1
:1022D0000C0200200248034A0349121A03F04EBBC5
:1022E0000040024008400240186A0A0807B500236F
:1022F00000931A466FF07701FFF78CF903B05DF891
:1023000004FB000007B543880A2B08D0502B09D1E5
:10231000094B1B683BB103B05DF804EB1847FFF7AE
:10232000E5FF06E0002300931A466FF07701FFF700
:1023300071F903B05DF804FB8401002038B5104C3E
:10234000104D2368AB42104B0CBF012200221A70C3
:1023500002D0FFF7BFFF2560FEF7F8FF044603F049
:1023600021FB0A4B13B12046AFF300800021074840
:10237000FFF7DCF9BDE8384000210548FFF740B918
:10238000044002401E1C279A880100200000000023
:1023900005230A0870470020704710B50446102135
:1023A00000F05DFE204610BD08B508B1FFF7F5FF4F
:1023B00008BD002202604FF69C72828010B5B1F910
:1023C000044084808A8002680C6804600A6010BD42
:1023D00010B504460068FFF7B9F9204610BD38B5BE
:1023E000C468F4B12378022B03D104F10C00FFF789
:1023F000EFFF656835B12846FFF703FF1021284637
:1024000000F02DFEA56835B12846FFF7FAFE102131
:10241000284600F024FE2046BDE83840142100F094
:102420001EBE38BD13B5044691E8050000234B607D
:102430000B602060626001A801930093FFF703FE28
:10244000204602B010BDF7B50C4606460F4654F8BC
:10245000043B02AD45F8083D214601A8FFF709FEFF
:1024600029463046FFF7DEFF01A8FFF7ECFD2046C6
:10247000FFF7E9FD3846082100F0F1FD304603B0D2
:10248000F0BD000038B500230446036010200D465F
:10249000FDF705FE28B1012343608360024BC56050
:1024A00003602060204638BD9C660A08826810B52B
:1024B0000AB900F0D6FDC368BDE81040184708B55A
:1024C000006800F11001FFF7F1FF08BD826810B548
:1024D0000AB900F0C6FDC368BDE81040184708B54A
:1024E000006800F11001FFF7F1FF08BD38B50023C7
:1024F00083608B6804460D462BB102229847EB6837
:10250000E360AB68A360204638BD0000F0B589B039
:1025100004686846FFF74DFF4FF0020200238DF874
:102520000830D4E84F3F002B03D1C4E8412F0029E5
:10253000F7D102D08DF8083063E014F10C0503D018
:1025400069462846FFF735FFBFF35F8F01236370AD
:10255000BFF35F8F04F10803002053E8006F43E8E6
:102560000002002AF9D1BFF35F8F002E49D0FFF798
:102570002FF820B129463046FFF798FF3AE0314660
:1025800002A8FFF7B3FFE068B4F9105008B103F0F8
:1025900043FA06901020ADF81C50FDF780FD05466B
:1025A000E8B1002787601820FDF779FD044688B15F
:1025B0000146876002A8FFF733FE049BA268A36070
:1025C000059B0492E26806A9E36004F110000592FD
:1025D000FFF7EFFE0D4B2C60EB600D4BAB6006A8D8
:1025E000FFF7F6FE02A8FFF70CFE00222946094875
:1025F000FEF7F6FF3046FFF704FE1021304600F0EC
:102600002EFD6846FFF7E4FE09B0F0BDBF240A08BE
:1026100035270A08892C0A082DE9F04F8BB00646A9
:102620000F46904699469DF850A0FFF767F807AD12
:10263000834630BB4FF62E73059005A92846ADF8AA
:102640001830FFF7B6FE1420FDF729FD044658B1F7
:102650000223037001234370C0F804B0C0F808B02F
:1026600029460C30FFF7A5FE3046214640F8044BC2
:10267000FFF708FF2846FFF7ABFE05A8FFF7A8FE07
:1026800052E000240C2314206C60AC600793FDF72B
:1026900006FD014618B1047044704460846004A8CB
:1026A0000391FFF7EFFE224B08200893FDF7F7FC9C
:1026B000044628B1039B04A940F8043BFFF7D9FC6A
:1026C00000955FFA8AF34A46414638460994FFF777
:1026D0001DF820B9039B5B7803F0FF0283B1039BD5
:1026E00004A906A80593FFF7C4FC05A93046FFF727
:1026F00099FE06A8FFF7A7FC04A8FFF7A4FC13E0C7
:102700004FF69C7305A903A80592ADF81830FFF7A2
:10271000FDFE05A8FFF75CFE05A80999FFF793FEEB
:1027200006A8FFF790FCDAE730460BB0BDE8F08F63
:10273000A5280A08022AF8B5044606D0032A17D0AD
:10274000012A22D10B6803601FE018200E68FDF7F4
:10275000A6FC054650B13146FFF7C8FE3069B6F910
:10276000147008B103F058F92861AF8225600CE0BD
:10277000046854B104F11000FFF72AFE2046FFF769
:1027800040FD1821204600F06AFC0020F8BD38B555
:10279000002383608B6804460D462BB102229847C4
:1027A000EB68E360AB68A360204638BD022A70B5D1
:1027B000044606D0032A11D0012A18D10B68036001
:1027C00015E014200E68FDF76AFC054620B131467D
:1027D000FFF7DDFF337C2B74256008E0046834B11B
:1027E0002046FFF70EFD1421204600F038FC0020A3
:1027F00070BD0000F0B50C46BFF35F8F87B00023BB
:1028000050E8006F40E80032002AF9D1BFF35F8F33
:10281000002E3FD01846FEF7DBFE074620B12146CA
:102820003046FFF753FE2EE0314601A8FFF7AFFF19
:10283000237810208DF81430FDF731FC0546D0B117
:1028400087601420FDF72BFC044678B187600146B1
:1028500001A8FFF7E5FC039BA268A360049B039219
:10286000E268E3609DF81430049223740A4B2C60F4
:10287000EB600A4BAB6001A8FFF7C3FC00222946BE
:102880000748FEF7ADFE3046FFF7BBFC102130468F
:1028900000F0E5FB07B0F0BDDF240A08AD270A0809
:1028A000892C0A0830B5044685B00D4668461146A5
:1028B000FFF7C9FD7CB124B228460DB103F0ACF896
:1028C000029002A96846ADF80C40FFF71FFE02A86F
:1028D000FFF77EFD1DE04FF0010200988DF80840E3
:1028E000D0E84F3FA34203D1C0E8412F0029F7D1E0
:1028F00002D08DF808300CE010F10C014FF001030C
:1029000018BF0373BFF35F8F043000F8033CFFF779
:1029100071FF01A8FFF797FB05B030BD704710B5F8
:102920000446182100F09BFB204610BDF8B50F4669
:1029300000F10806051D002416F8011D0A2238467C
:10294000FFF768FAAE42044407D0002CF4D02E21E1
:102950003846FFF71CFA0444EEE72046F8BD0000B5
:1029600010B50446044B112240F8043B002103F04B
:1029700010F8204610BD00BFB8660A080346074A93
:1029800010B543F8042B01F1100251F8044B9142A9
:1029900043F8044BF9D10A781A7010BDB8660A08DA
:1029A000024A41600260042202757047B8660A0854
:1029B00010B59DF8084044EA032343EA024242EA84
:1029C000016104234160037510BD000037B5044D5B
:1029D00005609DF818500095FFF7EAFF03B030BD81
:1029E000B8660A0841747047704708B50021007C3A
:1029F000FEF7A6FD30EA200028BF4FF0FF3008BDEB
:102A000008B50121007CFEF79BFD30EA200028BFBD
:102A10004FF0FF3008BD08B5007CFEF789FD20EAC5
:102A2000E07008BD08B5007CFEF77AFD20EAE07092
:102A300008BD007CFEF794BD10B50446142100F0DB
:102A40000EFB204610BD38B50446007C0D46FEF74F
:102A50006FFD002801DC607C28B12946207CFEF750
:102A600077FD20EAE07038BD10B5044600236360AE
:102A70004FF47A73A360054B084623600123217449
:102A800063741146FEF73CFD204610BDCC660A0873
:102A90000022007CFEF73CBD10B504461422002144
:102AA00002F077FF204610BD30B50E4D87B001A86B
:102AB000FFF7F2FF296811F0010410D12846FDF755
:102AC000F2FA60B101AA21460748FFF7CDFF284678
:102AD000FDF7EEFA054A0649034800F0BBFA024842
:102AE00007B030BD8C01002094010020C8000020F8
:102AF000E9290A0810B504461422002102F049FF12
:102B0000204610BD10B50E4C86B001A8FFF7F2FFAD
:102B10002368DB0710D42046FDF7C5FA60B101AA8F
:102B200001210848FFF7A0FF2046FDF7C1FA064A39
:102B30000649044800F08EFA024806B010BD00BFF6
:102B400090010020A8010020C8000020E9290A08FF
:102B500070474174704708B5007CFEF76FFC20EAAF
:102B6000E07008BD08B5007CFEF740FC20EAE0708C
:102B700008BD08B5007CFEF749FC30EA200028BFFC
:102B80004FF0FF3008BD08B5007CFEF737FC30EA97
:102B9000200028BF4FF0FF3008BD007CFEF73EBC90
:102BA00010B50446142100F05AFA204610BD70B545
:102BB000457C04460E4625B9007CFEF73FFC002804
:102BC00005DD3146207CBDE87040FEF707BC284695
:102BD00070BD000010B50446084611460022626030
:102BE0004FF47A72A260054A207422600122627456
:102BF0001A46FEF7EBFB204610BD00BFFC660A0834
:102C0000007CFEF713BC0000F8B5194C25684DB9DF
:102C10008420FDF744FA064618B18422294602F0C2
:102C2000B8FE2660134D2E684EB98420FDF737FAA2
:102C3000074618B18422314602F0ABFE2F600E4FDA
:102C4000396811F0010611D13846FDF72CFA68B148
:102C5000226831462B680948FFF7BCFF3846FDF76C
:102C600027FA074A0749054800F0F4F90348F8BD78
:102C7000D8010020D0010020D4010020BC01002098
:102C8000C8000020512B0A0810B5836804460BB910
:102C900000F0E7F9C3689847A3681BB103222146F7
:102CA000204698472046BDE81040102100F0D7B9D3
:102CB0007047F8B5064615460C468F18BC4206D03C
:102CC000336814F8011B9B6830469847F6E728469E
:102CD000F8BD0022007CFEF7D9BB0021007CFEF786
:102CE000DDBB0021007CFEF7E1BB0021007CFEF78C
:102CF000E5BB0021007CFEF7E9BB10B504461421BA
:102D000000F0ADF9204610BD10B5044608464FF45A
:102D10007A73A360044B0021207461602360FEF786
:102D2000E5FB204610BD00BF2C670A0800231A46A9
:102D30001946007CFEF78ABB13B50024007C009482
:102D4000FEF78CFBC0B202B010BD0123FFF7F4BF49
:102D50000022007CFEF78ABB0022007CFEF78EBBBF
:102D60000121FFF7F9BF0021007CFEF7B7BBF0B5EA
:102D7000164689B011220F460446002103A802F02E
:102D800008FE304602F063FE0025009581B27B68A4
:102D900003AA3046FEF7ECFB20B129462046FFF798
:102DA000FFFD03E003A92046FFF7E8FD204609B038
:102DB000F0BD002211464068FEF778BC00221146A3
:102DC0004068FEF783BC00224068FEF777BC002213
:102DD00081F001014068FEF761BC00231A461946E4
:102DE0004068FEF753BC002202214068FEF736BC63
:102DF00000231A464068FEF721BC0000024B042263
:102E00005A60024A1A607047DC01002054670A08C1
:102E100000231A464068FEF711BC002202214068D8
:102E2000FEF71CBC002211464068FEF70FBC0022D2
:102E300011464068FEF71ABC00231A46194640683E
:102E4000FEF71CBC00231A4619464068FEF71EBC5C
:102E5000002281F001014068FEF720BC002240689A
:102E6000FEF72CBC002211464068FEF72FBC002262
:102E700011464068FEF71ABC70B516468EB004467F
:102E800008A8FFF76DFD1122002103A802F081FDC3
:102E9000304602F0DCFD00250A4B009581B25B68EC
:102EA00003AA3046FEF764FB20B129462046FFF70F
:102EB00077FD03E003A92046FFF760FD20460EB032
:102EC00070BD00BFDC010020024B034A1A600022E3
:102ED0005A607047E401002088670A0810B504466C
:102EE0000F48FEF71BFD28B1A4F10D03022B01D8FA
:102EF000002010BD00F08EF8FFF735FF08B1012C5F
:102F0000F6D9FFF781FEFFF77BFE18B1A4F112039B
:102F1000012BEDD9172C8CBF0020012010BD00BF64
:102F2000EC010020172838B504460D460AD8FF29C1
:102F300008D0FFF7D3FF28B129462046BDE8384026
:102F4000FEF7B4B938BD38B504460D46FEF7B6F9FC
:102F5000FF2810D0062804D84D2323FA00F0C30719
:102F600009D42046FFF7BAFF28B129462046BDE81C
:102F70003840FEF7ABB938BD10B50446FEF79EF9F0
:102F80000438C0B2012808D92046FFF7A7FF20B1B6
:102F90002046BDE81040FEF7A1B9002010BD00009A
:102FA00070B50C4C0C4E0D4D00212046FEF70EFC6A
:102FB00020460B4C3246294600F04CF801212046B1
:102FC000FEF704FC324629462046BDE8704000F07A
:102FD00041B800BFEC010020C8000020BD170A085E
:102FE000FC01002013B5084C00231A461946009333
:102FF0002046FFF7EBFC2046044A054902B0BDE835
:10300000104000F027B800BF10020020C8000020C8
:103010001D290A0838B50B4D296811F001040FD19C
:103020002846FDF740F858B121460748FFF76CFEE7
:103030002846FDF73DF8054A0549034800F00AF81F
:10304000014838BD280200202C020020C8000020C2
:10305000B12C0A080B460146184602F089BBFDF761
:1030600020B808B5FEF792FB184B1A68D1075CBF71
:1030700001221A60164B1A68D2075CBF01221A603F
:10308000144B1A68D0075CBF01221A60124B1A68F1
:10309000D1075CBF01221A60104B1A68D2075CBFCF
:1030A00001221A600E4B1A68D0075CBF01221A6019
:1030B0000C4B1A68D1075CBF01221A600A4B1A68D0
:1030C000D2075CBF01221A60704700BF5C0200207B
:1030D0005802002054020020500200204C02002020
:1030E000480200204402002040020020244B1A68BD
:1030F000D0075CBF01221A60224B1A68D1075CBF5F
:1031000001221A60204B1A68D2075CBF01221A60A4
:103110001E4B1A68D0075CBF01221A601C4B1A684C
:10312000D1075CBF01221A601A4B1A68D2075CBF34
:1031300001221A60184B1A68D0075CBF01221A607E
:10314000164B1A68D1075CBF01221A60144B1A682B
:10315000D2075CBF01221A60124B1A68D0075CBF0D
:1031600001221A60104B1A68D1075CBF01221A6055
:103170000E4B1A68D2075CBF01221A60704700BF6D
:103180008C0200208802002084020020800200209F
:103190007C020020780200207402002070020020CF
:1031A0006C020020680200206402002060020020FF
:1031B000244B1A68D0075CBF01221A60224B1A68A0
:1031C000D1075CBF01221A60204B1A68D2075CBF8E
:1031D00001221A601E4B1A68D0075CBF01221A60D8
:1031E0001C4B1A68D1075CBF01221A601A4B1A687F
:1031F000D2075CBF01221A60184B1A68D0075CBF67
:1032000001221A60164B1A68D1075CBF01221A60AE
:10321000144B1A68D2075CBF01221A60124B1A685D
:10322000D0075CBF01221A60104B1A68D1075CBF3F
:1032300001221A600E4B1A68D2075CBF01221A6085
:10324000704700BFBC020020B8020020B40200207A
:10325000B0020020AC020020A8020020A40200203E
:10326000A00200209C02002098020020940200206E
:1032700090020020184B1A68D1075CBF01221A6027
:10328000164B1A68D2075CBF01221A60144B1A68E9
:10329000D0075CBF01221A60124B1A68D1075CBFCD
:1032A00001221A60104B1A68D2075CBF01221A6013
:1032B0000E4B1A68D0075CBF01221A600C4B1A68CB
:1032C000D1075CBF01221A600A4B1A68D2075CBFA3
:1032D00001221A60704700BFDC020020D8020020E3
:1032E000D4020020D0020020CC020020C80200201E
:1032F000C4020020C00200202DE9F04F8DB0064628
:103300000F4614461D4600F08FF9DFF81093CDE903
:10331000000199F90080B8F1FF3F46D022462B46C4
:103320002046294601F014FD834600283DD132464F
:103330003B463046394601F00BFD8246002874D1E9
:10334000304639460022002301F0D0FC002833D05B
:10335000002200232046294601F0C8FC8346B8B16C
:10336000A94A012300200021CDF828A0CDE9046757
:10337000CDE90645CDE9080103920293B8F1000FAB
:103380006CD0A24B0022104619460DB0BDE8F08F5C
:103390002046294600F072FF38B100220023204663
:1033A000294601F0ADFC00286AD1DDE90023104672
:1033B00019460DB0BDE8F08FDDE9000100F05EFFB9
:1033C000804600287DD0DDE900014FF0000A4FF073
:1033D000000B52465B4601F089FC0028E5D03046E0
:1033E000394600F04BFF0028DFD02046294600F088
:1033F00045FF0028D9D099F90030834804210022E4
:10340000022BCDE90467CDE90645CDE908AB039071
:1034100002910A9204D002A800F036FF002847D19A
:10342000FEF7C4F92223036042E000220023204675
:10343000294601F05BFC0028B7D0744B724800228B
:103440000121B8F1020FCDF828B0CDE90467CDE92C
:103450000645CDE9082303900291A8D002A800F008
:1034600013FF00287ED00A9B43B3FEF79FF9DDE9E6
:1034700008230A990160104619460DB0BDE8F08F87
:10348000614999F900300122CDF828B0CDE90467EF
:10349000CDE9064503910292002B68D05C490020DB
:1034A000022BCDE9080166D1FEF780F921230360E4
:1034B0000A9B1BB1FEF77AF90A9B0360DDE908233A
:1034C00075E73046394600F0D9FE00283FF47BAF5F
:1034D0002046294600F0D2FE00283FF474AFDDE913
:1034E00000231046194601F033FC00286FD1464BEB
:1034F00099F90080039303230A90CDE90467CDE98D
:1035000006450293B8F1000F3BD1DFF814B14FF03C
:10351000604A0022002330463946CDE908AB01F06D
:10352000EFFB00283FF477AF00223A4B20462946B4
:1035300001F074F904460D4600F0AEFE02460B465B
:103540002046294601F0D2FB00283DD1324B4FF0F6
:103550006042CDE9082399F90080B8F1020F7FF4A9
:103560005AAF5DE7FEF722F9212303607BE70023D2
:103570000024CDE9083402A800F086FE002897D187
:1035800092E7DFF8A0B04FF0000A00220023304697
:103590003946CDE908AB01F0B3FB0028DDD00022AD
:1035A0001C4B2046294601F039F904460D4600F02F
:1035B00073FE02460B462046294601F097FB18B9D8
:1035C000134B0022CDE9082399F90080C5E70E4A84
:1035D00099F900900123CDF82880CDE90467CDE961
:1035E000064503920293B9F1000FC0D000220023D8
:1035F0001046194601F03CFAB9F1020FCDE9080175
:103600003FF452AFB7E700BFB4670A080000F03FCD
:103610000000F0FF0000E03FFFFFEFC710000020B8
:10362000FFFFEF470000F07F2DE9F04F23F0004847
:1036300058EA020993B03CD0714C21F00046A642F2
:1036400083460D460CDD06F1404606F5801656EA27
:103650000B0038D183466B49584613B0BDE8F08F54
:103660009A4696462BD0A045EDDC654CA04578D017
:10367000002D0F468146CDE9002376DB0024BEF104
:10368000000F27D15E4B984500F08B805D4B98452D
:1036900052D0BAF1804F00F0C9835B4B9A4519D1E3
:1036A000002D17DB4846394613B0BDE8F04F00F057
:1036B0001DBDCB465846534913B0BDE8F08F0028D6
:1036C000C1D1B045D1DD514813B0BDE8F04F00F095
:1036D000DDBD00244846394600F0CCFDBBF1000FAB
:1036E0001CD0ED0F013D54EA050370D0484B9845BE
:1036F00040F3948003F10473984540F30D84454BE7
:103700009E4270DDBAF1000F70DD3BA3D3E90023C8
:103710001046194601F082F883469DE726B1394BE1
:1037200025F040429A42DCD1BAF1000FC0F2B783D3
:10373000002D08DB83468FE7BAF1000FC0F25E84EC
:10374000CB46394688E706F1404606F5801656EA2C
:10375000040300F08384012CECD101F10041834685
:103760007AE7BEF1000F83D06DE72B4B98452CDC38
:10377000A3F15473984581DD4FEA2853A3F2FF3338
:10378000142B40F35384C3F134032EFA03F202FAEC
:1037900003F39E457FF472AF02F00102C2F102040E
:1037A0006DE706F1404303F5801353EA0B0300F085
:1037B0003A83184B9E4240F36783BAF1000F15DB42
:1037C000DDE900349B46214646E7022457E74A4696
:1037D00048463B46394600F06DFE02460B4601F076
:1037E00047F9834638E7BAF1000F8EDB4FF0000B44
:1037F000594631E7AFF300809C7500883CE4377E82
:103800000000F07F0000F03F0000E03FB8670A08CA
:103810000000E041FFFFEF3FFFFF3F43B6F5801F91
:103820004FF0000205DAD04B00F0F8FF0E466FF0C3
:103830003402DFF844E33315C6F31306A3F2FF3373
:1038400046F07F57764503EB020A47F4401740F3F2
:10385000C983C64B00229E4240F304840023CDE975
:103860000823CDE90C23C24B0022CDE906230AF13F
:10387000010AA7F5801700263946DDE90623CDE9C0
:103880000A0100F017FEDDE9062380468946DDE9DE
:103890000A0100F011FE02460B460020B44901F077
:1038A000E7F80A4601461346CDE90E12024649469C
:1038B000404600F0B3FF8C4683467B1043F0005334
:1038C00003F5002399190020CDE904BC06460F46F4
:1038D0004FF0000B6146584632463B46CDE910BCDE
:1038E000CDE9020100F09AFF02460B4640464946E8
:1038F00000F0E0FDDDE90623804689463046394682
:1039000000F0D8FD02460B46DDE90A0100F0D2FDC9
:10391000DDE9022300F082FF02460B46404649469D
:1039200000F0C8FDDDE90E2300F078FFDDE9047842
:10393000CDE906013A4643463846414600F06EFF5F
:1039400077A3D3E9002306460F4600F067FF76A36E
:10395000D3E9002300F0B0FD32463B4600F05EFFA5
:1039600073A3D3E9002300F0A7FD32463B4600F0E5
:1039700055FF71A3D3E9002300F09EFD32463B467C
:1039800000F04CFF6EA3D3E9002300F095FD324612
:103990003B4600F043FF6CA3D3E9002300F08CFD0D
:1039A0003246804689463B463046394600F036FF6F
:1039B00002460B464046494600F030FFDDE902234F
:1039C00006460F46DDE9040100F076FDDDE9062339
:1039D00000F024FF32463B4600F06EFDDDE9026751
:1039E0008046894632463B463046394600F016FF4F
:1039F0000022604BCDE90A0100F05EFD42464B46D5
:103A000000F05AFDDDE910BC0F46DDE902015A461F
:103A10003B46CDE90EBC5E4600F000FF0022CDE93A
:103A20000201544B3046394600F044FDDDE90A23DB
:103A300000F040FD02460B464046494600F03AFD84
:103A4000DDE9042300F0EAFE324680468946DDE9DE
:103A500006013B4600F0E2FE02460B464046494660
:103A600000F02AFD8046894602460B46DDE9020148
:103A700000F022FDDDE90EBC35A3D3E90023584652
:103A8000CDE906BC5E460F4600F0C8FEDDE9022324
:103A9000CDE904013046394600F00CFD02460B46E4
:103AA0004046494600F006FD2BA3D3E9002300F071
:103AB000B5FE2BA3D3E9002380468946304639461C
:103AC00000F0ACFE02460B464046494600F0F4FCCE
:103AD000DDE90C2300F0F0FC80465046894600F0FA
:103AE00037FE06460F46DDE9040142464B4600F02C
:103AF000E3FCDDE9082300F0DFFC32463B4600F042
:103B0000DBFCDDE906BC324658463B46DA468B46CE
:103B100000F0D0FCDDE9082330E000BFAFF3008007
:103B2000EF4E454A287ECA3F65DBC9934A86CD3FA2
:103B300001411DA96074D13F4D268F515555D53F88
:103B4000FFAB6FDBB66DDB3F033333333333E33F20
:103B5000000000E009C7EE3FFD033ADC09C7EE3F75
:103B6000F5015B14E02F3EBE0000404379B60B0028
:103B70000000F03F000008408E98030000F09AFC1F
:103B8000DDE9042300F096FC02460B464046494618
:103B900000F090FC80468946DDE90012013C54EAC1
:103BA000050314BFD64CD74C0023CDE904340B4693
:103BB0001446CDE9023400230293DDE902450846AC
:103BC0002B461146224600F075FC52465B4600F03B
:103BD00025FEDDE9002306460F464046494600F033
:103BE0001DFE02460B463046394600F065FC06468F
:103BF0000F4622462B4650465946CDE9006700F055
:103C00000DFE0B460246804689463046394600F096
:103C100053FCBD4B064699420D460C4640F30E81BF
:103C200001F13F4303F5E003034340F0F081A0A31B
:103C3000D3E90023DDE9000100F03EFC4246824664
:103C40008B464B463046294600F034FC02460B4674
:103C50005046594601F072F8002840F0D8812F46AE
:103C60003B154FF48012A3F2FE3342FA03F32344D0
:103C7000C3F30A52A54EA2F2FF321641C3F3130B4F
:103C80000020C2F1140523EA06014BF4801B024612
:103C90000B46002C4BFA05FB40464946B8BFCBF11A
:103CA000000B00F007FC02460B4680468946DDE922
:103CB000000100F001FC4FEA0B5A00247EA3D3E977
:103CC000002320460D4600F0A9FD424606460F4659
:103CD0004B462046294600F0EDFB02460B46DDE947
:103CE000000100F0E7FB76A3D3E9002300F096FD86
:103CF00075A3D3E90023804689462046294600F073
:103D00008DFD02460B464046494600F0D5FB8046F5
:103D1000894602460B463046394600F0CDFB324616
:103D20003B4604460D4600F0C5FB02460B464046A6
:103D3000494600F0BFFB2246804689462B46204676
:103D4000294600F06BFD62A3D3E9002306460F4627
:103D500000F064FD60A3D3E9002300F0ABFB324622
:103D60003B4600F05BFD5EA3D3E9002300F0A4FB1B
:103D700032463B4600F052FD5BA3D3E9002300F03E
:103D800099FB32463B4600F049FD59A3D3E9002395
:103D900000F092FB32463B4600F040FD02460B46E7
:103DA0002046294600F086FB06460F4602460B4693
:103DB0002046294600F032FD0022CDE900014FF0F7
:103DC00080433046394600F075FB02460B46DDE97C
:103DD000000100F04DFE424606460F464B46204687
:103DE000294600F01BFD42464B4600F065FB0246AB
:103DF0000B463046394600F05DFB22462B4600F06C
:103E000059FB02460B4600203D4900F053FB8A4413
:103E1000BAF5801FC0F237815146DDE9042300F076
:103E2000FDFC834618E4F346354915E44A46484606
:103E30003B46394600F0F2FC83460DE4344B21F05A
:103E400000479F4240F30181324B0B4403430CD1A6
:103E500042464B4600F02EFB02460B46DDE90001D0
:103E600000F058FF00283FF4FBAE23A3D3E9002362
:103E7000DDE9040100F0D2FC1FA3D3E9002300F028
:103E8000CDFC8346FFF7E8BBBAF1000FBFF6AEAC3E
:103E9000DDE900349B4604F10041FFF7DDBB02463B
:103EA0000B460020164900F0E3FD41E4AFF300802B
:103EB000FE822B654715973C00000000432EE63F2D
:103EC000EF39FAFE422EE63F396CA80C615C20BE49
:103ED000D0A4BE726937663EF16BD2C541BDBB3E10
:103EE0002CDE25AF6A56113F93BDBE166CC1663FEE
:103EF0003E5555555555C53F59F3F8C21F6EA5019E
:103F00000000F03F0000F0BFFFFF8F40FFFF0F00F9
:103F1000FFCB904000346F3F6F4B9E427FF763AC06
:103F20006E4B9E423FF7EEAB00226C4B00F0C2FAA4
:103F30005BA3D3E9002306460F4600F06FFC5AA3AB
:103F4000D3E90023804689463046394600F066FCB6
:103F5000002282468B46624B3046394600F05EFCBA
:103F600002460B4652A1D1E9000100F0A3FA324605
:103F70003B4600F053FC02460B460020594900F036
:103F800099FA3246CDE902013B463046394600F007
:103F900045FC02460B46DDE9020100F03FFC46A36A
:103FA000D3E9002300F03AFC02460B46504659463E
:103FB00000F080FA02460B4606460F464046494648
:103FC00000F07AFA42464B46002082468B4600F0CB
:103FD00071FA02460B463046394600F06BFA8046CD
:103FE0008946D9E500220023CDE90823CDE90C2339
:103FF0003A4B00220026CDE906233DE44A463B46E3
:104000000020364900F034FD8346FFF725BB2CA382
:10401000D3E90023DDE9040100F000FC28A3D3E983
:10402000002300F0FBFB8346FFF716BBBEF1000F39
:104030007FF44FABC3F1140348FA03F202FA03F31F
:10404000984524D07446FFF721BB264B9F423FF78B
:1040500007AEDDE902349A469B462EE602460B4641
:10406000FFF7B9BB204B4FF48026CDE9062316A3FA
:10407000D3E90023CDE9082315A3D3E90023CDE933
:104080000C23FFF7F9BB5A4600F096F9C5E602F09B
:104090000102C2F10204FFF7F9BA00BFAFF30080DA
:1040A000000000604715F73F44DF5DF80BAE543E5B
:1040B000555555555555D53FFE822B654715F73F4C
:1040C0009C7500883CE4377E0000004003B8E23F66
:1040D00006D0CF43EBFD4C3EFEFFEF3F0000F03F2C
:1040E0000000D03F0000E03F0000F83F2DE9F04124
:1040F0005F4E0C46B6460E407645054600F0988069
:1041000000290B46024674DD5FEA215E7FD0AEF2E5
:10411000FF3EC3F313031EF0010F43F4801363D17A
:1041200000273E4603EBD2710B444FEA6E0E52005D
:1041300016204FF4001174189C424FEAD2754FEAD2
:10414000420202DC1B1B66180F44013805EB4303D7
:104150004FEA5101EFD1844620244FF0004109E09D
:1041600020D003EBD275013C4FEA51012B444FEABA
:10417000420220D09E4201EB0C05F1DA002D05EB46
:10418000010C09DBB0469542A3EB060300D9013BC5
:104190004646521B0844E4E7BCF1000FF2DB06F18F
:1041A0000108F0E7954217D8002D05EB010C49DB1B
:1041B00098460023ECE7134310D140087B1003F12D
:1041C0007F5303F50013FA0703EB0E57394648BF38
:1041D00040F00040BDE8F0813346C2E7411C35D0D5
:1041E00000F001031844E8E75B0003EBD2735200D0
:1041F00096E721F000460643ECD079BB8E46D30A01
:10420000AEF1150E5205002BF9D0DD0221D40021AC
:1042100000E001465B00DC0201F10100F9D5C0F1CC
:10422000200422FA04F42343C1EB0E0E82406EE711
:1042300002460B4600F0F2FA2A46234600F03CF90B
:10424000BDE8F081BCF1000FA9DAB1E701372046E3
:10425000B4E720244FF0FF310020E2E702460B468E
:1042600000F028F902460B4600F002FCB2E700BF5E
:104270000000F07F21F00041704700BF41F0004195
:1042800001F58010C00F70470020704700200149E1
:10429000704700BF0000F87FF0B5C1F30A5EAEF2D0
:1042A000FF36132E83B002460B460C464FEAD175FB
:1042B00007462EDC002E49DB3D49314103EA01006F
:1042C00010432BD049080B4053EA02070CD04FF49F
:1042D0008023132E24EA010143FA06F444EA010480
:1042E0000CBF4FF000470027324B214603EBC505BA
:1042F000D5E90045384622462B4600F0DDF8CDE9E9
:104300000001DDE9000122462B4600F0D3F803B09E
:10431000F0BD332E06DDB6F5806F45D01046194648
:1043200003B0F0BDAEF2134E4FF0FF3121FA0EF1A3
:104330000842F3D049080842D6D04FF0804320EA23
:10434000010143FA0EFE4EEA0107CDE721F00041DC
:1043500001431946E4D0C3F3130343EA000CCCF144
:10436000000343EA0C0C134B640C4FEA1C3C0CF4A6
:10437000002C03EBC5036404D3E900674CEA040195
:1043800032463B4600F098F8CDE90001DDE9000136
:1043900032463B4600F08EF8024621F0004141EAE9
:1043A000C57310461946BBE700F086F8B8E700BFB2
:1043B000FFFF0F00C0670A08F8B5C1F30A560446AC
:1043C0000D460B46174606BB21F00043034325D09C
:1043D00000222F4B00F022FA2E4A044697420D4647
:1043E0000B462ADBC1F30A56363E40F2FE723E44CB
:1043F000964228DC002E12DD23F0FF4323F4E00375
:1044000043EA065520462946F8BD40F2FF7296421F
:10441000EBD102460B4600F04FF8F8BDF8BD16F19F
:10442000350F1DDA4CF250339F420CDC14A1D1E958
:10443000000122462B4600F031F811A3D3E90023F6
:1044400000F0ECF9F8BD22460FA1D1E900012B469E
:1044500000F024F80CA3D3E9002300F0DFF9F8BD45
:1044600023F0FF4323F4E003363643EA06552046A3
:1044700029460022084B00F0D1F9F8BDAFF30080C7
:1044800059F3F8C21F6EA5019C7500883CE4377E85
:1044900000005043B03CFFFF0000903C03F000439D
:1044A00021F0004242EA0301704700BF81F0004161
:1044B00002E000BF83F0004330B54FEA41044FEA09
:1044C000430594EA050F08BF90EA020F1FBF54EAA4
:1044D000000C55EA020C7FEA645C7FEA655C00F040
:1044E000E2804FEA5454D4EB5555B8BF6D420CDD11
:1044F0002C4480EA020281EA030382EA000083EA94
:10450000010180EA020281EA0303362D88BF30BD33
:1045100011F0004F4FEA01314FF4801C4CEA113189
:1045200002D0404261EB410113F0004F4FEA0333E8
:104530004CEA133302D0524263EB430394EA050F73
:1045400000F0A780A4F10104D5F1200E0DDB02FAE2
:104550000EFC22FA05F2801841F1000103FA0EF276
:10456000801843FA05F359410EE0A5F120050EF13C
:10457000200E012A03FA0EFC28BF4CF0020C43FA6D
:1045800005F3C01851EBE37101F0004507D54FF07A
:10459000000EDCF1000C7EEB00006EEB0101B1F5CA
:1045A000801F1BD3B1F5001F0CD349085FEA300010
:1045B0004FEA3C0C04F101044FEA445212F5800F1B
:1045C00080F09A80BCF1004F08BF5FEA500C50F1B8
:1045D000000041EB045141EA050130BD5FEA4C0C9B
:1045E000404141EB010111F4801FA4F10104E9D124
:1045F00091F0000F04BF01460020B1FA81F308BF1B
:104600002033A3F10B03B3F120020CDA0C3208DDE6
:1046100002F1140CC2F10C0201FA0CF021FA02F1C1
:104620000CE002F11402D8BFC2F1200C01FA02F131
:1046300020FA0CFCDCBF41EA0C019040E41AA2BF56
:1046400001EB0451294330BD6FEA04041F3C1CDA1E
:104650000C340EDC04F11404C4F1200220FA04F03E
:1046600001FA02F340EA030021FA04F345EA0301E8
:1046700030BDC4F10C04C4F1200220FA02F001FAAA
:1046800004F340EA0300294630BD21FA04F029462C
:1046900030BD94F0000F83F4801306BF81F48011C5
:1046A0000134013D4EE77FEA645C18BF7FEA655C38
:1046B00029D094EA050F08BF90EA020F05D054EA0A
:1046C000000C04BF1946104630BD91EA030F1EBF0F
:1046D0000021002030BD5FEA545C05D14000494113
:1046E00028BF41F0004130BD14F580043CBF01F506
:1046F000801130BD01F0004545F0FE4141F47001EC
:104700004FF0000030BD7FEA645C1ABF19461046C6
:104710007FEA655C1CBF0B46024650EA013406BFC7
:1047200052EA033591EA030F41F4002130BD00BF86
:1047300090F0000F04BF0021704730B54FF4806443
:1047400004F132044FF000054FF0000150E700BFC4
:1047500090F0000F04BF0021704730B54FF4806423
:1047600004F1320410F0004548BF40424FF0000110
:104770003EE700BF42004FEAE2014FEA31014FEA53
:1047800002701FBF12F07F4393F07F4F81F06051A2
:10479000704792F0000F14BF93F07F4F704730B511
:1047A0004FF4607401F0004521F0004120E700BFA4
:1047B00050EA010208BF704730B54FF000050AE02B
:1047C00050EA010208BF704730B511F0004502D52C
:1047D000404261EB41014FF4806404F132045FEA2E
:1047E000915C3FF4DCAE4FF003025FEADC0C18BFD3
:1047F00003325FEADC0C18BF033202EBDC02C2F1C9
:10480000200300FA03FC20FA02F001FA03FE40EA5A
:104810000E0021FA02F11444C1E600BF70B54FF05A
:10482000FF0C4CF4E06C1CEA11541DBF1CEA13553C
:1048300094EA0C0F95EA0C0F00F0DEF82C4481EAA4
:10484000030621EA4C5123EA4C5350EA013518BFC4
:1048500052EA033541F4801143F4801338D0A0FBB1
:1048600002CE4FF00005E1FB02E506F00042E0FB5E
:1048700003E54FF00006E1FB03569CF0000F18BF64
:104880004EF0010EA4F1FF04B6F5007F64F540740C
:1048900004D25FEA4E0E6D4146EB060642EAC6219F
:1048A00041EA55514FEAC52040EA5E504FEACE2E0C
:1048B000B4F1FD0C88BFBCF5E06F1ED8BEF1004F0F
:1048C00008BF5FEA500E50F1000041EB045170BD8B
:1048D00006F0004646EA010140EA020081EA0301CF
:1048E000B4EB5C04C2BFD4EB0C0541EA045170BDCB
:1048F00041F480114FF0000E013C00F3AB8014F145
:10490000360FDEBF002001F0004170BDC4F100048D
:10491000203C35DA0C341BDC04F11404C4F120050E
:1049200000FA05F320FA04F001FA05F240EA020069
:1049300001F0004221F0004110EBD37021FA04F69F
:1049400042EB06015EEA430E08BF20EAD37070BD59
:10495000C4F10C04C4F1200500FA04F320FA05F0B8
:1049600001FA04F240EA020001F0004110EBD370BA
:1049700041F100015EEA430E08BF20EAD37070BD2A
:10498000C4F1200500FA05F24EEA020E20FA04F303
:1049900001FA05F243EA020321FA04F001F00041B2
:1049A00021FA04F220EA020000EBD3705EEA430E23
:1049B00008BF20EAD37070BD94F0000F0FD101F052
:1049C0000046400041EB010111F4801F08BF013C8B
:1049D000F7D041EA060195F0000F18BF704703F0C9
:1049E0000046520043EB030313F4801F08BF013D50
:1049F000F7D043EA0603704794EA0C0F0CEA13550C
:104A000018BF95EA0C0F0CD050EA410618BF52EAC5
:104A10004306D1D181EA030101F000414FF00000CB
:104A200070BD50EA410606BF1046194652EA4306D9
:104A300019D094EA0C0F02D150EA013613D195EA4D
:104A40000C0F05D152EA03361CBF104619460AD195
:104A500081EA030101F0004141F0FE4141F470019F
:104A60004FF0000070BD41F0FE4141F4780170BD8F
:104A700070B54FF0FF0C4CF4E06C1CEA11541DBFF4
:104A80001CEA135594EA0C0F95EA0C0F00F0A7F8F6
:104A9000A4EB050481EA030E52EA03354FEA013123
:104AA00000F088804FEA03334FF0805545EA131336
:104AB00043EA12634FEA022245EA111545EA1065FE
:104AC0004FEA00260EF000419D4208BF964244F195
:104AD000FD0404F5407402D25B084FEA3202B61AB4
:104AE00065EB03055B084FEA32024FF480104FF488
:104AF000002CB6EB020E75EB030E22BFB61A7546FC
:104B000040EA0C005B084FEA3202B6EB020E75EB8E
:104B1000030E22BFB61A754640EA5C005B084FEAF6
:104B20003202B6EB020E75EB030E22BFB61A7546C3
:104B300040EA9C005B084FEA3202B6EB020E75EBCE
:104B4000030E22BFB61A754640EADC0055EA060E8F
:104B500018D04FEA051545EA16754FEA06164FEAD2
:104B6000C30343EA52734FEAC2025FEA1C1CC0D17E
:104B700011F4801F0BD141EA00014FF000004FF00B
:104B8000004CB6E711F4801F04BF01430020B4F1CC
:104B9000FD0C88BFBCF5E06F3FF6AFAEB5EB030C84
:104BA00004BFB6EB020C5FEA500C50F1000041EB81
:104BB000045170BD0EF0004E4EEA113114EB5C044E
:104BC000C2BFD4EB0C0541EA045170BD41F4801121
:104BD0004FF0000E013C90E645EA060E8DE60CEA29
:104BE000135594EA0C0F08BF95EA0C0F3FF43BAF46
:104BF00094EA0C0F0AD150EA01347FF434AF95EAFD
:104C00000C0F7FF425AF104619462CE795EA0C0FE0
:104C100006D152EA03353FF4FDAE1046194622E7AD
:104C200050EA410618BF52EA43067FF4C5AE50EA87
:104C300041047FF40DAF52EA43057FF4EBAE12E777
:104C40004FF0FF3C06E000BF4FF0010C02E000BF58
:104C50004FF0010C4DF804CD4FEA410C7FEA6C5C3B
:104C60004FEA430C18BF7FEA6C5C1BD001B050EADE
:104C7000410C0CBF52EA430C91EA030F02BF90EAC9
:104C8000020F0020704710F1000F91EA030F58BF88
:104C9000994208BF90422CBFD8176FEAE37040F0EA
:104CA000010070474FEA410C7FEA6C5C02D150EA88
:104CB000013C07D14FEA430C7FEA6C5CD6D152EA43
:104CC000033CD3D05DF8040B704700BF8446104608
:104CD00062468C461946634600E000BF01B5FFF707
:104CE000B7FF002848BF10F1000F01BD4DF808EDD7
:104CF000FFF7F4FF0CBF012000205DF808FB00BFA8
:104D00004DF808EDFFF7EAFF34BF012000205DF801
:104D100008FB00BF4DF808EDFFF7E0FF94BF01204E
:104D200000205DF808FB00BF4DF808EDFFF7CEFF4F
:104D300094BF012000205DF808FB00BF4DF808ED8E
:104D4000FFF7C4FF34BF012000205DF808FB00BF5F
:104D50004FEA410C7FEA6C5C02D150EA013C0AD177
:104D60004FEA430C7FEA6C5C02D152EA033C02D169
:104D70004FF0000070474FF0010070474FEA4102CA
:104D800012F5001215D211D56FF47873B3EB62529D
:104D900012D94FEAC12343F0004343EA505311F0C4
:104DA000004F23FA02F018BF404270474FF0000056
:104DB000704750EA013005D111F0004008BF6FF094
:104DC000004070474FF00000704700BF4A0011D20A
:104DD00012F5001211D20DD56FF47873B3EB625255
:104DE0000ED44FEAC12343F0004343EA505323FA61
:104DF00002F070474FF00000704750EA013002D1D6
:104E00004FF0FF3070474FF0000070474FEA41020B
:104E1000B2F1E04324BFB3F5001CDCF1FE5C0DD918
:104E200001F0004C4FEAC0024CEA5070B2F1004F62
:104E300040EB830008BF20F00100704711F0804F65
:104E400021D113F13872BCBF01F00040704741F42A
:104E500080114FEA5252C2F11802C2F1200C10FA2E
:104E60000CF320FA02F018BF40F001004FEAC12312
:104E70004FEAD32303FA0CFC40EA0C0023FA02F3B6
:104E80004FEA4303CCE77FEA625307D150EA01338C
:104E90001EBF4FF0FE4040F44000704701F000405C
:104EA00040F0FE4040F40000704700BF80F000403A
:104EB00002E000BF81F0004142001FBF5FEA4103F2
:104EC00092EA030F7FEA226C7FEA236C6AD04FEAF2
:104ED0001262D2EB1363C1BFD21841404840414037
:104EE000B8BF5B42192B88BF704710F0004F40F4E9
:104EF000000020F07F4018BF404211F0004F41F405
:104F0000000121F07F4118BF494292EA030F3FD0D0
:104F1000A2F1010241FA03FC10EB0C00C3F12003E3
:104F200001FA03F100F0004302D5494260EB400072
:104F3000B0F5000F13D3B0F1807F06D340084FEADD
:104F4000310102F10102FE2A51D2B1F1004F40EBD2
:104F5000C25008BF20F0010040EA0300704749003A
:104F600040EB000010F4000FA2F10102EDD1B0FA05
:104F700080FCACF1080CB2EB0C0200FA0CF0AABFFA
:104F800000EBC25052421843BCBFD0401843704798
:104F900092F0000F81F4000106BF80F4000001329E
:104FA000013BB5E74FEA41037FEA226C18BF7FEA75
:104FB000236C21D092EA030F04D092F0000F08BFB7
:104FC0000846704790EA010F1CBF0020704712F09E
:104FD0007F4F04D1400028BF40F00040704712F1DD
:104FE00000723CBF00F50000704700F0004343F042
:104FF000FE4040F4000070477FEA226216BF084678
:105000007FEA23630146420206BF5FEA412390EA3A
:10501000010F40F4800070474FF0000304E000BF30
:1050200010F0004348BF40425FEA000C08BF7047E1
:1050300043F0964301464FF000001CE050EA0102A5
:1050400008BF70474FF000030AE000BF50EA0102BA
:1050500008BF704711F0004302D5404261EB4101A7
:105060005FEA010C02BF84460146002043F0B643CC
:1050700008BFA3F18053A3F50003BCFA8CF2083AF1
:10508000A3EBC25310DB01FA02FC634400FA02FCFA
:10509000C2F12002BCF1004F20FA02F243EB020001
:1050A00008BF20F00100704702F1200201FA02FC63
:1050B000C2F1200250EA4C0021FA02F243EB020056
:1050C00008BF20EADC7070474FF0FF0C1CEAD0529A
:1050D0001EBF1CEAD15392EA0C0F93EA0C0F6FD05B
:1050E0001A4480EA010C400218BF5FEA41211ED039
:1050F0004FF0006343EA501043EA5111A0FB013125
:105100000CF00040B1F5000F3EBF490041EAD371F9
:105110005B0040EA010062F17F02FD2A1DD8B3F175
:10512000004F40EBC25008BF20F00100704790F0E4
:10513000000F0CF0004C08BF49024CEA502040EA36
:1051400051207F3AC2BFD2F1FF0340EAC2507047FC
:1051500040F400004FF00003013A5DDC12F1190F3A
:10516000DCBF00F000407047C2F10002410021FAAC
:1051700002F1C2F1200200FA02FC5FEA310040F1C4
:10518000000053EA4C0308BF20EADC70704792F03D
:10519000000F00F0004C02BF400010F4000F013A75
:1051A000F9D040EA0C0093F0000F01F0004C02BF70
:1051B000490011F4000F013BF9D041EA0C018FE7DF
:1051C0000CEAD15392EA0C0F18BF93EA0C0F0AD0E5
:1051D00030F0004C18BF31F0004CD8D180EA01000B
:1051E00000F00040704790F0000F17BF90F0004FA4
:1051F000084691F0000F91F0004F14D092EA0C0F86
:1052000001D142020FD193EA0C0F03D14B0218BF18
:10521000084608D180EA010000F0004040F0FE405E
:1052200040F40000704740F0FE4040F440007047FA
:105230004FF0FF0C1CEAD0521EBF1CEAD15392EA79
:105240000C0F93EA0C0F69D0A2EB030280EA010C69
:1052500049024FEA402037D04FF0805343EA111102
:1052600043EA10130CF000408B4238BF5B0042F160
:105270007D024FF4000C8B4224BF5B1A40EA0C0005
:10528000B3EB510F24BFA3EB510340EA5C00B3EB37
:10529000910F24BFA3EB910340EA9C00B3EBD10F25
:1052A00024BFA3EBD10340EADC001B0118BF5FEA77
:1052B0001C1CE0D1FD2A3FF650AF8B4240EBC250A0
:1052C00008BF20F0010070470CF0004C4CEA502061
:1052D0007F32C2BFD2F1FF0340EAC250704740F4B0
:1052E00000004FF00003013A37E792F0000F00F0A2
:1052F000004C02BF400010F4000F013AF9D040EA20
:105300000C0093F0000F01F0004C02BF490011F4B3
:10531000000F013BF9D041EA0C0195E70CEAD153AB
:1053200092EA0C0F08D142027FF47DAF93EA0C0F92
:105330007FF470AF084676E793EA0C0F04D14B0276
:105340003FF44CAF08466EE730F0004C18BF31F028
:10535000004CCAD130F000427FF45CAF31F0004322
:105360007FF43CAF5FE700BF7BB972B90029BEBFD5
:1053700000204FF0004106E008BF00281CBF6FF07E
:1053800000414FF0FF3000F0F1B9ADF1080C6DE9CC
:1053900004CE002909DB002B1ADB00F071F8DDF8E0
:1053A00004E0DDE9022304B07047404261EB4101B3
:1053B000002B1BDB00F064F8DDF804E0DDE90223DC
:1053C00004B0404261EB4101524263EB430370473A
:1053D000524263EB430300F053F8DDF804E0DDE9EB
:1053E000022304B0404261EB41017047524263EB3B
:1053F000430300F045F8DDF804E0DDE9022304B0E2
:10540000524263EB4303704753B94AB9002908BFBE
:1054100000281CBF4FF0FF314FF0FF3000F0A6B95D
:10542000ADF1080C6DE904CE00F02AF8DDF804E0D7
:10543000DDE9022304B07047D0B500220E4B0646CA
:105440000F46FFF7EBF9FFF7C1FC0446FFF770F9D1
:1054500000220A4BFFF7E2F902460B463046394676
:10546000FFF728F8FFF7B2FC2346002242EA0002C9
:1054700010461946D0BD00BF0000F03D0000F041CD
:105480002DE9F04F8C460C460546099E002B4FD166
:105490008A4217466BD9B2FA82FEBEF1000F0BD0DA
:1054A000CEF1200520FA05F501FA0EF345EA030CCA
:1054B00002FA0EF700FA0EF5390CBCFBF1F0BAB2A5
:1054C00001FB10C300FB02F84FEA154C4CEA034401
:1054D000A04509D9E41900F1FF3380F02881A045E7
:1054E00040F2258102383C44C8EB0404B4FBF1F3DC
:1054F00001FB134C03FB02F2ACB244EA0C418A42BA
:1055000009D9C91903F1FF3480F00F818A4240F2B2
:105510000C81023B39448A1A43EA00400021002EE4
:1055200063D022FA0EF2002386E80C00BDE8F08F6B
:105530008B4207D9002E56D0002186E8110008467C
:10554000BDE8F08FB3FA83F1002940F09380A342C5
:1055500002D3824200F2FE80851A64EB03039C466C
:105560000120002E41D086E82010BDE8F08F12B94E
:105570000127B7FBF2F7B7FA87FEBEF1000F36D16D
:10558000E41B4FEA17481FFA87F90121B4FBF8F32F
:1055900008FB134409FB03F24FEA154C4CEA0444A0
:1055A000A24207D9E41903F1FF3002D2A24200F26D
:1055B000D3800346A41AB4FBF8F008FB104809FB9B
:1055C00000F9ACB244EA0842914507D9D21900F17A
:1055D000FF3402D2914500F2BA802046C9EB0202A4
:1055E00040EA03409BE731463046BDE8F08F07FABA
:1055F0000EF7CEF1200C24FA0CF34FEA1748B3FB58
:10560000F8FA1FFA87F908FB1A3520FA0CFC04FA9D
:105610000EF40AFB09FB4CEA040C4FEA1C4242EA76
:1056200005439B4500FA0EF50AD9DB190AF1FF3252
:1056300080F08B809B4540F28880AAF1020A3B44AF
:10564000CBEB0303B3FBF8F008FB103300FB09F4CA
:105650001FFA8CFC4CEA03439C4207D9DB1900F18A
:10566000FF326ED29C426CD902383B441C1B40EA8C
:105670000A418BE7C1F1200E8B4022FA0EFC4CEA66
:10568000030C24FA0EF74FEA1C49B7FBF9FA1FFA8C
:105690008CF309FB1A7720FA0EF88C400AFB03F50D
:1056A00048EA04044FEA144848EA0747BD4202FAB0
:1056B00001F200FA01FB09D917EB0C070AF1FF30E0
:1056C00041D2BD423FD9AAF1020A67447F1BB7FB12
:1056D000F9F509FB157705FB03F3A4B244EA074784
:1056E000BB4208D917EB0C0705F1FF3027D2BB42AC
:1056F00025D9023D674445EA0A40A0FB0289FF1A0A
:105700004F4545464C4614D329D066B3BBEB050341
:1057100067EB040707FA0EFECB40CF404EEA0303C7
:1057200086E888000021BDE8F08F2346F3E618469E
:10573000DAE6B8EB020569EB0C040138E5E705464B
:10574000D9E7104692E78246C0E7924678E70238EA
:105750003A4443E7084604E7023B3C442AE7C34592
:10576000E7D33C46D1E73146BDE8F08F704700BF34
:1057700010B5054C13462CB10A4601460220AFF382
:10578000008010BD204610BD0000000038B5074B5A
:1057900005461C68E36B1BB92420FBF7CFFFE063D1
:1057A000E16B2846BDE8384000F002B878000020E0
:1057B0002DE9F0410C46804600F062FC2146074688
:1057C000404600F061FC4669044606F26C76B30779
:1057D00005D1642296FBF2F302FB13634BB94FF43D
:1057E000C87596FBF5F305FB1365B5FA85F35B0900
:1057F00000E001235F4A302505FB032500F074FA21
:1058000000F074FA5C4B1B68F3B17B689E4205D1D3
:105810003968D8F80030FA6941B90AE0304600F03A
:10582000BBF90028F4D14FF0FF330DE0934208DBC1
:1058300001E0934207DABA6B9342ACBF0023012325
:1058400002E0002300E001232362236A3C20012BB5
:105850000CBFF96B396A4FF4616391FBF3F603FBFC
:10586000161393FBF0F200FB123061682368891A6B
:10587000A2681B1A921B3B2B23606160A26003DDB0
:10588000013161603C3B04E0002B03DA01396160C7
:105890003C33236063683B2B03DD0132A2603C3B59
:1058A00004E0002B03DA013AA2603C336360A36892
:1058B000172B22DDE269183B0132E261A269A36085
:1058C0000132062AC8BF0022A261E26823690132C0
:1058D000E26055F823108A4246DD01330C2B08BFE5
:1058E0006369A2EB0102E26005BF0133002223617C
:1058F000226104BF6361E26136E0002B34DAE269C1
:105900001833013AE261A269A360013A48BF062256
:10591000A261E268013AE26032BB2369013B01D433
:1059200023611DE00B23236163695A1E12F0030FEC
:10593000626103F26B7305D1642193FBF1F201FB09
:1059400012324AB94FF4C87193FBF1F201FB1233E2
:10595000B3FA83F35B0900E0012303F5B673E36157
:10596000236955F82330E36000F0BFF92046BDE815
:10597000F08100BF34690A08FC02002010B5431E04
:105980000A44914204D011F8014B03F8014FF8E7A3
:1059900010BD03460244934202D003F8011BFAE70C
:1059A0007047000038B5124B05461C68A36BD3B98D
:1059B0001820FBF7C3FE43F20E33A06303804AF6C0
:1059C000CD33438041F2342383804EF26D63C38034
:1059D0004DF6EC630381052343810B238381012270
:1059E0000023C0E90423A36B00221D615A6138BD66
:1059F0007800002010F8012B11F8013B012A28BF84
:105A00009A42F7D0D01A7047034611F8012B03F8D9
:105A1000012B002AF9D17047024B0146186800F0AB
:105A200003B800BF7800002070B5064608460C4653
:105A300000F00DF8451C29463046FBF7AFFE064640
:105A400018B12A462146FFF799FF304670BD03463C
:105A500013F8012B002AFBD1181A0138704730B512
:105A600082B1451E013915F8013F11F8014FA342DB
:105A700006D1EC431444E04201D0002BF3D11C4684
:105A8000181B30BD104630BD2DE9F0470E4680464C
:105A90003B48D0F80090354615F8014B09EB04005F
:105AA000407800F0080000F0FF0708B12E46F2E74A
:105AB0002D2C03D1B51C7478012703E02B2C04BFD7
:105AC0007478B51C13B1102B0AD153E0302C4FD190
:105AD000287800F0DF00582845D16C781023023573
