:02000004080AE8
:1000000000000A0844460A08000006000600050130
:08001000040279050000000064
:04001800943D0A0801
:1000200009480A4908B5884205D0094A824202D0E7
:10003000121A03F091FA0748074A0021121A03F036
:1000400096FA064808BD00BF0000002050450A0887
:10005000CC000020D0000020EC020020EC020020A8
:1000600070B501F043FB074B074C1E46E41AA40889
:100070000025A54204D056F8253098470135F8E709
:1000800070BD00BF04450A0838450A0800F0B8B83A
:1000900008B500F0F5FBBDE8084001F0E9BA00F052
:1000A00031BF00F037BF0078B0FA80F040097047E8
:1000B000012303707047000010B51DA3D3E900238E
:1000C0001F4CD4E9000102F021FB1BA3D3E900235C
:1000D000C4E900011B4CD4E9000102F017FB1A4BE4
:1000E000C4E900011B785BB111A3D3E90023174CCD
:1000F000D4E9000102F00AFBC4E90001144C0AE053
:10010000144C0BA3D3E90023D4E9000102F0FEFA5A
:10011000C4E90001104CD4E9000107A3D3E900238E
:1001200002F0F4FAC4E9000110BD00BFAFF3008093
:10013000000000607FD9C53F000000007CA9E33FBC
:100140001001002000010020DC000020E800002059
:10015000F0000020E0000020F800002008B50E4B61
:1001600001221A700D4B188802F00BF901280C4976
:100170004FF000024FF0000305D108700949C1E9B2
:100180000023094905E0002008700849C1E900235F
:100190000749C1E9002308BDDD0000201000002050
:1001A000DC000020E8000020F0000020F800002023
:1001B000E000002000221146406800F023BE00222B
:1001C0001146406800F02EBE0EB400B58CB00DAAEA
:1001D00052F8041B20238DE8060003920493016863
:1001E000002304AA1E20059300F0B0FD0CB05DF8BA
:1001F00004EB03B070470121084600F0CDBC0000BD
:1002000037B5174D174C2888002102F0A9F80021B6
:10021000208802F0A5F801F01FFE4FF4165101F0FE
:100220000FFE01F019FE104901F0A9F8642001F059
:10023000BDF92088002400944FF0FF3302220B49BF
:1002400001F060FE288800944FF0FF3322460849F1
:1002500001F058FE03B0BDE8304000F02BBE00BFF7
:100260001000002004000020A83D0A08B9000A0878
:100270005D010A0810B58EB0AF4902A800F097FFE3
:10028000AE490AA800F093FF0AA902A801F00DF8F0
:100290000AA800F045FFAA490AA800F088FF032435
:1002A000A84B0094D3E9002306A800F0D1FF06A9CB
:1002B0000AA801F00DF8A44901F016F8014602A8B9
:1002C00000F0F3FF06A800F02BFF0AA800F028FFBB
:1002D0009E490AA800F06BFF9D4B0094D3E90023D0
:1002E00006A800F0B5FF06A90AA800F0F1FF96499C
:1002F00000F0FAFF014602A800F0D7FF06A800F0C0
:100300000FFF0AA800F00CFF92490AA800F04FFF67
:10031000914B0094D3E9002306A800F099FF06A9A9
:100320000AA800F0D5FF884900F0DEFF014602A8C8
:1003300000F0BBFF06A800F0F3FE0AA800F0F0FEF4
:1003400086490AA800F033FF01F01CF90A22014691
:1003500006A800F06AFF06A90AA800F0B9FF7A49CA
:1003600000F0C2FF014602A800F09FFF06A800F0BF
:10037000D7FE0AA800F0D4FE79490AA800F017FFBA
:1003800001F0F8F80A22014606A800F04EFF06A97F
:100390000AA800F09DFF6C4900F0A6FF014602A8E4
:1003A00000F083FF06A800F0BBFE0AA800F0B8FE2C
:1003B0006C490AA800F0FBFE01F0D2F80A220146BF
:1003C00006A800F032FF06A90AA800F081FF5E49E6
:1003D00000F08AFF014602A800F067FF06A800F0BF
:1003E0009FFE0AA800F09CFE5F490AA800F0DFFE0D
:1003F00001F098F80A22014606A800F016FF06A9A7
:100400000AA800F065FF504900F06EFF014602A8FF
:1004100000F04BFF06A800F083FE0AA800F080FE63
:1004200052490AA800F0C3FE01F086F80A220146EC
:1004300006A800F0FAFE06A90AA800F049FF424902
:1004400000F052FF014602A800F02FFF06A800F0BE
:1004500067FE0AA800F064FE45490AA800F0A7FE5E
:1004600001F074F80A22014606A800F0DEFE06A993
:100470000AA800F02DFF344900F036FF014602A81B
:1004800000F013FF06A800F04BFE0AA800F048FE9B
:1004900038490AA800F08BFE0A22114606A800F08F
:1004A000C4FE06A90AA800F013FF274900F01CFFAC
:1004B000014602A800F0F9FE06A800F031FE0AA8E5
:1004C00000F02EFE2C4902A800F0F3FE02A90AA8B3
:1004D00000F08FFE294B0A9A1B7829498DF80030CD
:1004E00006A83C2301F070FA079C7CB16368013BCD
:1004F00063605BB9236820469B689847A368013B0B
:10050000A3601BB923682046DB6898470AA800F05F
:1005100007FE4FF47A7001F049F801F09DFC19498B
:1005200000F02DFF01F098FC029900F028FF02A8CE
:1005300000F0F6FD0EB010BD6F400A08BF3D0A087E
:10054000C23D0A0810010020C83D0A08CB3D0A0838
:10055000E8000020D13D0A08E0000020D73D0A084D
:10056000DD3D0A08E33D0A08E93D0A08EF3D0A08B7
:10057000F53D0A08FB3D0A08013E0A081801002063
:10058000123E0A081A3E0A082DE9F04FADF2D45D7A
:1005900000245CAE382530193822002102F0E7FF34
:1005A000A5513834B4F58C6FF5D1002416AD382739
:1005B00028193822002102F0DAFF67513834B4F5E7
:1005C0008C7FF5D1294605222D4801F023FE142207
:1005D00031462B4801F00CFE8046DFF8B4905DAC4C
:1005E0000025454548DA382303FB05639A8844F221
:1005F00033739A4233D101F02FFC224900F0ACFE54
:1006000001F02AFC214600F0BAFE204603F00DF866
:10061000D9F80070834627B1384603F006F88246C1
:1006200000E0BA464C231A46002103A8019302F0C9
:100630009EFF019B1248039303238DF82030002373
:1006400003AA194640680494CDF814B00697CDF873
:100650001CA000F00FFC0C4B01221A7009E001F005
:10066000FBFB0A4900F078FE01F0F6FB214600F0A2
:1006700086FE01353834B4E70DF2D45DBDE8F08F65
:10068000C0010020383E0A0800400240303E0A08FF
:100690000C00002010B5124B1A68124B1B689A42CE
:1006A0001DDA114C00231A461946606800F0C2FB9F
:1006B000002319461A46606800F09CFB0B490C4861
:1006C000FFF782FD0B4B1B780BB9FFF75DFF0A4963
:1006D0000748FFF779FDBDE8104000F00FB810BDE6
:1006E0000C01002000000020C00100203F3E0A084D
:1006F0002001002000400240523E0A08F8B54E4852
:10070000FFF75DFD38BB4C48FFF754FD18BB4B4C61
:100710004B494C48FFF758FD2368012B03DD4A493C
:100720004848FFF751FD236801332360FFF7B2FF0C
:1007300000F0C8FB00287DD100F0C4FB434B4449C6
:1007400018704048FFF740FD00F0B4FB41493D48B8
:10075000FFF73AFDF8BD3848FFF731FD18B13E49C3
:100760003848FFF731FD3448FFF724FD18B13B4905
:100770003448FFF729FD3A4B00201C6800F004FACA
:10078000064600270025002000F0FEF9801B61EBE3
:100790000701A94208BFA04206D22748FFF70FFD74
:1007A00010B900F07FFBEEE72348FFF708FD48B3E0
:1007B0002C492448FFF708FD2B4D2C4B01241C70BD
:1007C0002C7000F077FB00F07DFBA0B128491D489C
:1007D000FFF7FAFC00F076FB1C4B00221870174B59
:1007E000214620462A701A6000F0D0FA21491548A7
:1007F000FFF7EAFC10E017491248FFF7E5FC00F0AC
:1008000059FB09E01C490F48FFF7DEFC0B4A13684F
:1008100001331360FFF73EFF0748FFF7CBFC0028CA
:1008200086D016490748FFF7CFFC044A1368013306
:1008300013607BE7F8BD00BFC00100200C01002061
:10084000DF3F0A0820010020953F0A080801002028
:10085000C33F0A08033F0A08693E0A08783E0A08AF
:10086000080000208C3E0A08D4000020D50000209B
:10087000B93E0A08D43E0A08243F0A08573F0A082E
:100880002DE9F0418EB0FFF739FF01F0E5FA0624BB
:100890000546704906A8704F00F089FC0094D7E91E
:1008A000002302A800F0D4FC02A906A800F010FD65
:1008B0006A4900F019FD8046694E0094D6E900238C
:1008C0000AA800F0C5FC0AA9404600F001FD6549F0
:1008D00000F00AFD0168284600F051FD0AA800F06A
:1008E0001FFC614D02A800F01BFC06A800F018FCDC
:1008F0002B78002B00F0A68001F0AEFA5B4900F0E7
:100900003EFD01F0A9FA5A4B5A491A785A4BD34284
:100910005A4B08BF194600F032FD01F09DFA4D49CF
:10092000804606A800F043FC0094D7E9002302A803
:1009300000F08EFC02A906A800F0CAFC474900F0AE
:10094000D3FC07460094D6E900230AA800F080FCF7
:100950000AA9384600F0BCFC424900F0C5FC016819
:10096000404600F00CFD0AA800F0DAFB02A800F0F7
:10097000D7FB06A800F0D4FB01F06EFA404906460A
:1009800006A800F014FC3F4B0094D3E9002302A812
:1009900000F05EFC02A906A800F09AFC2F4900F0C6
:1009A000A3FC0746384B0094D3E900230AA800F0C3
:1009B0004FFC0AA9384600F08BFC2A4900F094FC51
:1009C0000168304600F0DBFC0AA800F0A9FB02A891
:1009D00000F0A6FB06A800F0A3FB01F03DFA2B49AE
:1009E000064606A800F0E3FB294B0094D3E9002358
:1009F00002A800F02DFC02A906A800F069FC174926
:100A000000F072FC0746234B0094D3E900230AA8A8
:100A100000F01EFC0AA9384600F05AFC114900F00B
:100A200063FC0168304600F0AAFC0AA800F078FBDD
:100A300002A800F075FB06A800F072FBFFF71AFC95
:100A400000232B704FF47A7000F0B0FD0EB0BDE8BB
:100A5000F08100BF21400A080001002032400A084E
:100A60001001002035400A08DD00002039400A0846
:100A7000DC0000201A400A0853400A081D400A08FA
:100A80005D400A08F0000020E800002070400A08DD
:100A9000F8000020E0000020094B10B500241C7075
:100AA00000F012F84FF6FF72064B02201C705C80BB
:100AB0009A8000F05BF9BDE81040FFF79CBB00BFD7
:100AC00018010020D600002008B5024B1B681B68E7
:100AD000019308BDB001060808B5024B1B689B686E
:100AE000019308BDB001060808B5024B1B68DB681E
:100AF000019308BDB001060808B5024B1B685B698D
:100B0000019308BDB001060808B5024B1B689B693C
:100B1000019308BDB001060808B5024B1B68DB69EC
:100B2000019308BDB001060808B5024B1B68DB69DC
:100B3000019308BDB401060808B5024B1B681B6A87
:100B4000019308BDB401060808B5024B1B685B6839
:100B5000019308BD9C01060808B5024B1B685B6940
:100B6000019308BD9C01060808B5024B1B68DB69B0
:100B7000019308BD9C01060808B5024B1B689B6DDC
:100B8000019308BD9C01060808B5024B1B68DB6D8C
:100B9000019308BD9C01060808B5024B1B685B6EFB
:100BA000019308BDB801060808B5024B1B681B6B12
:100BB000019308BDD001060808B5024B1B689B696C
:100BC000019308BDC401060808B5024B1B685B6AA7
:100BD000019308BDC401060808B5024B1B689B6A57
:100BE000019308BDC401060808B5024B1B68DB6A07
:100BF000019308BDC401060808B5024B1B681B6BB6
:100C0000019308BDC401060808B5024B1B685B6B65
:100C1000019308BDC401060808B5024B1B689B6B15
:100C2000019308BDC401060808B5024B1B681B6C84
:100C3000019308BDC401060808B5024B1B681B6E72
:100C4000019308BDAC01060808B5024B1B685B6E3A
:100C5000019308BDAC01060808B5024B1B689B6EEA
:100C6000019308BDAC01060808B5024B1B68DB6E9A
:100C7000019308BDAC01060808B5024B1B681B6F49
:100C8000019308BDAC01060808B5024B1B685B6FF9
:100C9000019308BDAC01060808B5034B1B68D3F8E7
:100CA0008030019308BD0000AC01060808B5024B76
:100CB0001B681B68019308BDD801060808B5024BE4
:100CC0001B685B68019308BDD801060808B5024B94
:100CD0001B681B69019308BDD801060808B5024BC3
:100CE0001B685B69019308BDD801060808B5024B73
:100CF0001B689B69019308BDD801060808B5024B23
:100D00001B68DB69019308BDD801060808B5024BD2
:100D10001B681B6A019308BDD801060808B5024B81
:100D20001B689B6C019308BDC001060808B5024B07
:100D30001B68DB6D019308BDC001060808B5024BB6
:100D40001B681B6E019308BDC001060808B5024B65
:100D50001B685B6D019308BDA801020808B5024B32
:100D60001B681B68019308BDA401060808B5024B67
:100D70001B685B68019308BDA401060808B5024B17
:100D80001B685B69019308BDA401060808B5024B06
:100D90001B689B6B019308BDA401060808B5024BB4
:100DA0001B68DB6C019308BDA401060808B5024B63
:100DB0001B685B6D019308BDA401060808B5024BD2
:100DC0001B689B6D019308BDA401060808B5034B81
:100DD0001B68D3F89030019308BD0000A4010608F9
:100DE00008B5034B1B68D3F89C30019308BD000085
:100DF000A401060808B5024B1B685B68019308BD97
:100E0000C801060808B5024B1B689B68019308BD22
:100E1000C801060808B5024B1B68DB68019308BDD2
:100E2000C801060808B5024B1B681B69019308BD81
:100E3000C801060808B5024B1B685B69019308BD31
:100E4000C801060808B5024B1B689B69019308BDE1
:100E5000C801060808B5024B1B68DB69019308BD91
:100E6000C801060808B5024B1B681B6A019308BD40
:100E7000C801060808B5024B1B689B6A019308BDB0
:100E8000C801060808B5024B1B681B6B019308BD1F
:100E9000C801060808B5024B1B685B6B019308BDCF
:100EA000C801060808B5024B1B689B68019308BD82
:100EB000CC01060808B5024B1B68DB68019308BD2E
:100EC000CC01060808B5024B1B685B69019308BD9D
:100ED000CC01060808B5024B1B681B6A019308BDCC
:100EE000CC01060808B5024B1B681B6B019308BDBB
:100EF000CC01060808B5024B1B68DB6B019308BDEB
:100F0000CC01060808B5024B1B681B68019308BD9D
:100F1000A001060808B5024B1B685B68019308BD79
:100F2000A001060808B5024B1B689B68019308BD29
:100F3000A001060808B5024B1B689B69019308BD18
:100F4000A001060808B5024B1B68DB6A019308BDC7
:100F5000A001060808B5024B1B681B6B019308BD76
:100F6000A0010608704710B50446102101F07BFA75
:100F7000204610BD70B504460E46074B00250360A1
:100F800040F80C5FFFF710FE30462671FFF7CCFDEE
:100F9000A560204670BD00BFD0400A080079FFF769
:100FA000CBBD00004FF6FF72034B00201870588035
:100FB0009A80FFF7DBBE00BF1A01002010B504467F
:100FC00002F033FB013823182046984206D20278FB
:100FD000197800F8011B03F80129F6E710BD70B578
:100FE0000C46911E222920D82546294610B92344B3
:100FF00030220EE0B0FBF2F602FB1600C1B2092867
:1010000005F8011B94BF3031573105F8011C3046FB
:10101000EBE7994202D201F8012BFAE700232046C0
:101020000B70FFF7CBFF204670BD002070BD38B5B8
:10103000031E0C4615460BDAB3F1004F4FF02D029C
:1010400014BF5842184601230A702A46194400E08A
:101050000123FFF7C4FF204638BD00002DE9F14F02
:1010600080460D4617461E4600220023404629466C
:1010700001F070FF20B12D23337005F100450136DA
:10108000002301240A22D9B28F4202D954430133EA
:10109000F9E7204601F086FC42462B4601F0E8FCC9
:1010A00082468B4601F0B6FF8046894601F0AAFCD5
:1010B00002460B465046594601F026FB0022174BCC
:1010C00001F05CFF18B118F1010849F10009E517BA
:1010D00022462B464046494601F084FF01230A225E
:1010E0003146FFF77CFFAFB1304602F09EFA2E2367
:1010F00033540130064422462B464046494601F00F
:1011000071FF3B46104631460A2201B0BDE8F04F60
:10111000FFF765BF01B0BDE8F08F00BF0000E03F02
:1011200010B504460068FFF7F5FE204610BD10B567
:101130000446006808B1FFF7EDFE00232360A360BA
:10114000636010BD38B504460D4600680131FFF7F5
:10115000E9FE10B184E82100012038BD10B5036814
:10116000044613B143688B4207D22046FFF7EAFFDB
:1011700020B1A3680BB922681370012010BD70B5AF
:101180000E46114604461546FFF7E8FF18B92046FB
:10119000FFF7CDFF09E02A463146A560206802F03E
:1011A000DBF92268A3680021D154204670BD38B510
:1011B0000023044603604360836003730D4639B126
:1011C000084602F032FA294602462046FFF7D7FFCA
:1011D000204638BD884210B50B46044607D0096842
:1011E00019B19A68FFF7CBFF01E0FFF7A0FF204697
:1011F00010BD10B504460023036043608360037391
:10120000FFF7E8FF204610BD38B505460C4641B152
:10121000084602F00AFA214602462846FFF7AFFFC9
:1012200001E0FFF784FF284638BD10B504460023CF
:101230008AB023606360A3602373084601A9FFF7A7
:10124000F6FE01A92046FFF7DFFF20460AB010BDD9
:1012500010B504468AB01946002310462360636027
:10126000A36023739DF8302001ABFFF7F7FE01A9BF
:101270002046FFF7C9FF20460AB010BD70B50446EE
:101280000E4609B9002070BD6AB18368D518294699
:10129000FFF764FF0028F5D02068A36831461844A2
:1012A00002F0A0F9A560012070BD8A680968FFF707
:1012B000E5BF38B505460C46084641B102F0B5F920
:1012C000214602462846BDE83840FFF7D7BF38BD63
:1012D00010B58A6809680446FFF7D0FF10B92046A8
:1012E000FFF725FF204610BD38B504460D4641B135
:1012F000084602F09AF9294602462046FFF7BEFF4B
:1013000010B92046FFF713FF204638BDF8B5064652
:101310000D468F180024BD420CD0336815F8011B10
:101320009B6830469847002801DB0444F3E7002C13
:1013300008BF04462046F8BD70B505460C46084671
:1013400049B102F072F92B68024621462846BDE8F1
:101350007040DB68184770BD08B5FFF7EDFF08BDAA
:1013600003689B68184738B50D210546FFF7F8FF5D
:101370000A2104462846FFF7F3FF204438BD38B55C
:101380000546FFF7D9FF04462846FFF7ECFF204447
:1013900038BD012A98BF0A2230B50B468BB0002118
:1013A0008DF824100DF12304B3FBF2F505FB123385
:1013B000DBB2092B94BF30333733DBB2214604F85C
:1013C00001392B46002DEFD1FFF7B6FF0BB030BD32
:1013D00010B422B90368C9B29B6810BC1847D2B2D6
:1013E00010BCFFF7D6BFFFF7F3BF00231A4619461C
:1013F0004068FFF71FBD38B5046805467CB16368D7
:10140000013B63605BB9236820469B689847A368EB
:10141000013BA3601BB923682046DB689847284638
:1014200038BD0B68036013B15A6801325A607047C7
:10143000014A024B1A6070474E410A082001002001
:10144000F0B5144B144F1E68144B064418683B68E3
:1014500006449E428BB01BD00AA840F8286D01F0CC
:1014600083FF0446436901AD03F26C7343610FCC03
:101470000FC50FCC0FC5D4F800E0094CC5F800E04B
:1014800001AD0FCD0FC40FCD0FC43E60C4F800E016
:101490000BB0F0BD54010020500100204C01002091
:1014A0002401002008B50020FFF71CFD28B1FFF73C
:1014B00009FD80F00100C0B208BD012008BD000098
:1014C00008B5FFF7BDFF024B1869013008BD00BF2A
:1014D0002401002010B50020FFF74EFB044668B938
:1014E000FFF73CFC01280BD12046FFF767FC38B919
:1014F000FFF7D8FF30B9FFF7D5FCF9E7012010BDA1
:10150000002010BDFFF7CEFF0020FFF735FB0030B5
:1015100018BF012010BD08B5FFF7DCFFBDE808408B
:10152000FFF722BB08B5FFF7F6FFFFF789FF014B76
:10153000986808BD2401002008B5FFF7ECFFFFF70D
:101540007FFF014B586808BD2401002008B5FFF754
:10155000E2FFFFF775FF014B186808BD240100206A
:1015600008B5FFF7D8FFFFF76BFF014BD86808BD40
:101570002401002008B5FFF7CEFFBDE80840FFF7C3
:101580009FBF000008B5FFF7C6FFFFF759FF014BEB
:10159000586908BD24010020024B1A68024B1A60EA
:1015A000704700BF14000020480100200021FFF711
:1015B000E5BB10B58368044613B103220146984782
:1015C000204610BD10B50446FFF7F3FF204610BDBE
:1015D00013B50B46044603C88DE8030093E80300E7
:1015E00084E803009DE8030083E8030002B010BD17
:1015F000034800238360034A034900F02FBF00BF64
:1016000058010020D0000020C5150A0808B5144B69
:1016100033B100F021FC03681B699847002816DCF1
:10162000104B33B100F0F0FC03681B6998470028A9
:1016300010DC0D4B0BB1AFF300800C4B7BB100F015
:1016400039FC03681B699847002806DC08BDAFF326
:101650000080E5E7AFF30080EBE7AFF3008008BD63
:10166000000000000000000000000000000000007A
:1016700008B5FFF7CBFFFFF76FFA014B186008BD05
:10168000F00100200248034A0349121A01F064BF26
:10169000004002400840024048450A0807B50023C0
:1016A00000931A466FF07701FFF79AFB03B05DF8DD
:1016B00004FB000007B543880A2B08D0502B09D142
:1016C000094B1B683BB103B05DF804EB1847FFF70B
:1016D000E5FF06E0002300931A466FF07701FFF75D
:1016E0007FFB03B05DF804FB6801002038B5104CA7
:1016F000104D2368AB42104B0CBF012200221A7020
:1017000002D0FFF7BFFF2560FFF71EFA044601F085
:1017100037FF0A4B13B12046AFF300800021074882
:10172000FFF7E8FBBDE8384000210548FFF74EBB56
:10173000044002401E1C279A6C010020000000009B
:10174000B5160A0870470020704710B504461021EE
:1017500000F089FE204610BD08B508B1FFF7F5FF7F
:1017600008BD002202604FF69C72828010B5B1F96C
:10177000044084808A8002680C6804600A6010BD9E
:1017800010B504460068FFF7C5FB204610BD38B50C
:10179000C468F4B12378022B03D104F10C00FFF7E5
:1017A000EFFF656835B12846FFF703FF1021284693
:1017B00000F059FEA56835B12846FFF7FAFE102162
:1017C000284600F050FE2046BDE83840142100F0C5
:1017D0004ABE38BD13B5044691E8050000234B60AE
:1017E0000B602060626001A801930093FFF703FE85
:1017F000204602B010BDF7B50C4606460F4654F819
:10180000043B02AD45F8083D214601A8FFF709FE5B
:1018100029463046FFF7DEFF01A8FFF7ECFD204622
:10182000FFF7E9FD3846082100F01DFE304603B001
:10183000F0BD000038B500230446036010200D46BB
:10184000FEF72DFC28B1012343608360024BC56085
:1018500003602060204638BDE8410A08826810B560
:101860000AB900F002FEC368BDE81040184708B589
:10187000006800F11001FFF7F1FF08BD826810B5A4
:101880000AB900F0F2FDC368BDE81040184708B57A
:10189000006800F11001FFF7F1FF08BD38B5002323
:1018A00083608B6804460D462BB102229847EB6893
:1018B000E360AB68A360204638BD0000F0B589B096
:1018C00004686846FFF74DFF4FF0020200238DF8D1
:1018D0000830D4E84F3F002B03D1C4E8412F002942
:1018E000F7D102D08DF8083063E014F10C0503D075
:1018F00069462846FFF735FFBFF35F8F012363700A
:10190000BFF35F8F04F10803002053E8006F43E842
:101910000002002AF9D1BFF35F8F002E49D0FFF7F4
:101920003DFA20B129463046FFF798FF3AE03146AC
:1019300002A8FFF7B3FFE068B4F9105008B101F056
:1019400059FE06901020ADF81C50FEF7A8FB054686
:10195000E8B1002787601820FEF7A1FB044688B194
:101960000146876002A8FFF733FE049BA268A360CC
:10197000059B0492E26806A9E36004F11000059259
:10198000FFF7EFFE0D4B2C60EB600D4BAB6006A834
:10199000FFF7F6FE02A8FFF70CFE002229460948D1
:1019A000FFF704FA3046FFF704FE1021304600F03E
:1019B0005AFD6846FFF7E4FE09B0F0BD6F180A084B
:1019C000E51A0A0889200A082DE9F04F8BB006466F
:1019D0000F46904699469DF850A0FFF773FA07AD61
:1019E000834630BB4FF62E73059005A92846ADF807
:1019F0001830FFF7B6FE1420FEF751FB044658B12D
:101A00000223037001234370C0F804B0C0F808B08B
:101A100029460C30FFF7A5FE3046214640F8044B1E
:101A2000FFF708FF2846FFF7ABFE05A8FFF7A8FE63
:101A300052E000240C2314206C60AC600793FEF786
:101A40002EFB014618B1047044704460846004A801
:101A50000391FFF7EFFE224B08200893FEF71FFBD0
:101A6000044628B1039B04A940F8043BFFF7D9FCC6
:101A700000955FFA8AF34A46414638460994FFF7D3
:101A800029FA20B9039B5B7803F0FF0283B1039B23
:101A900004A906A80593FFF7C4FC05A93046FFF783
:101AA00099FE06A8FFF7A7FC04A8FFF7A4FC13E023
:101AB0004FF69C7305A903A80592ADF81830FFF7FF
:101AC000FDFE05A8FFF75CFE05A80999FFF793FE48
:101AD00006A8FFF790FCDAE730460BB0BDE8F08FC0
:101AE000551C0A08022AF8B5044606D0032A17D066
:101AF000012A22D10B6803601FE018200E68FEF750
:101B0000CEFA054650B13146FFF7C8FE3069B6F946
:101B1000147008B101F06EFD2861AF8225600CE001
:101B2000046854B104F11000FFF72AFE2046FFF7C5
:101B300040FD1821204600F096FC0020F8BD38B585
:101B4000002383608B6804460D462BB10222984720
:101B5000EB68E360AB68A360204638BD022A70B52D
:101B6000044606D0032A11D0012A18D10B6803605D
:101B700015E014200E68FEF792FA054620B13146B2
:101B8000FFF7DDFF337C2B74256008E0046834B177
:101B90002046FFF70EFD1421204600F064FC0020D3
:101BA00070BD0000F0B50C46BFF35F8F87B0002317
:101BB00050E8006F40E80032002AF9D1BFF35F8F90
:101BC000002E3FD01846FFF7E9F8074620B121461E
:101BD0003046FFF753FE2EE0314601A8FFF7AFFF76
:101BE000237810208DF81430FEF759FA0546D0B14D
:101BF00087601420FEF753FA044678B187600146E7
:101C000001A8FFF7E5FC039BA268A360049B039275
:101C1000E268E3609DF81430049223740A4B2C6050
:101C2000EB600A4BAB6001A8FFF7C3FC002229461A
:101C30000748FFF7BBF83046FFF7BBFC10213046E2
:101C400000F011FC07B0F0BD8F180A085D1B0A08F0
:101C500089200A0830B5044685B00D46684611460D
:101C6000FFF7C9FD7CB124B228460DB101F0C2FCDA
:101C7000029002A96846ADF80C40FFF71FFE02A8CB
:101C8000FFF77EFD1DE04FF0010200988DF808403F
:101C9000D0E84F3FA34203D1C0E8412F0029F7D13C
:101CA00002D08DF808300CE010F10C014FF0010368
:101CB00018BF0373BFF35F8F043000F8033CFFF7D6
:101CC00071FF01A8FFF797FB05B030BD704710B555
:101CD0000446182100F0C7FB204610BDF8B50F469A
:101CE00000F10806051D002416F8011D0A223846D9
:101CF000FFF779FBAE42044407D0002CF4D02E212C
:101D00003846FFF72DFB0444EEE72046F8BD0000FF
:101D100010B50446044B112240F8043B002101F0A9
:101D200026FC204610BD00BF04420A080346074AAD
:101D300010B543F8042B01F1100251F8044B914205
:101D400043F8044BF9D10A781A7010BD04420A080E
:101D5000024A4160026004220275704704420A0888
:101D600010B59DF8084044EA032343EA024242EAE0
:101D7000016104234160037510BD000037B5044DB7
:101D800005609DF818500095FFF7EAFF03B030BDDD
:101D900004420A0841747047704708B50021007C6E
:101DA000FEF7A4FF30EA200028BF4FF0FF3008BD47
:101DB00008B50121007CFEF799FF30EA200028BF1A
:101DC0004FF0FF3008BD08B5007CFEF787FF20EA22
:101DD000E07008BD08B5007CFEF778FF20EAE070EF
:101DE00008BD007CFEF792BF10B50446142100F038
:101DF0003AFB204610BD38B50446007C0D46FEF780
:101E00006DFF002801DC607C28B12946207CFEF7AC
:101E100075FF20EAE07038BD10B50446002363600A
:101E20004FF47A73A360054B0846236001232174A5
:101E300063741146FEF73AFF204610BD18420A08A7
:101E40000022007CFEF73ABF10B5044614220021A0
:101E500001F08DFB204610BD30B50E4D87B001A8B6
:101E6000FFF7F2FF296811F0010410D12846FEF7B0
:101E70001AF960B101AA21460748FFF7CDFF2846AD
:101E8000FEF716F9054A0649034800F0E7FA02484A
:101E900007B030BD7001002078010020D000002084
:101EA000991D0A0810B504461422002101F05FFBB9
:101EB000204610BD10B50E4C86B001A8FFF7F2FF0A
:101EC0002368DB0710D42046FEF7EDF860B101AAC5
:101ED00001210848FFF7A0FF2046FEF7E9F8064A6F
:101EE0000649044800F0BAFA024806B010BD00BF27
:101EF000740100208C010020D0000020991D0A08E8
:101F000000470000F0B51C4685B005460E46174652
:101F1000FEF702FE002084424FF0040303908DF888
:101F20000C30B4BF03469DF828302846A4BF8DF876
:101F30000E3003AB009332463B460449A8BF8DF8F0
:101F40000D40FEF7E1FD012005B0F0BD011F0A08BC
:101F500070474174704708B5007CFEF765FE20EAC3
:101F6000E07008BD08B5007CFEF736FE20EAE070A0
:101F700008BD08B5007CFEF73FFE30EA200028BF10
:101F80004FF0FF3008BD08B5007CFEF72DFE30EAAB
:101F9000200028BF4FF0FF3008BD007CFEF734BEA4
:101FA00010B50446142100F05EFA204610BD70B54D
:101FB000457C04460E4625B9007CFEF735FE002818
:101FC00005DD3146207CBDE87040FEF7FDBD2846AA
:101FD00070BD000010B5044608461146002262603C
:101FE0004FF47A72A260054A207422600122627462
:101FF0001A46FEF7E1FD204610BD00BF48420A0820
:10200000007CFEF709BE0000F8B5194C25684DB9F3
:102010008420FEF744F8064618B18422294601F0D0
:10202000A6FA2660134D2E684EB98420FEF737F8C5
:10203000074618B18422314601F099FA2F600E4FFD
:10204000396811F0010611D13846FEF72CF868B155
:10205000226831462B680948FFF7BCFF3846FEF777
:1020600027F8074A0749054800F0F8F90348F8BD82
:10207000BC010020B4010020B8010020A001002014
:10208000D0000020511F0A0810B5836804460BB920
:1020900000F0EBF9C3689847A3681BB103222146FF
:1020A000204698472046BDE81040102100F0DBB9DB
:1020B0007047F8B5064615460C468F18BC4206D048
:1020C000336814F8011B9B6830469847F6E72846AA
:1020D000F8BD0022007CFEF7AFBD0021007CFEF7BA
:1020E000B3BD0021007CFEF7B7BD0021007CFEF7E8
:1020F000BBBD0021007CFEF7BFBD10B50446142116
:1021000000F0B1F9204610BD10B5044608464FF462
:102110007A73A360044B0021207461602360FEF792
:10212000BBFD204610BD00BF78420A080021007C9C
:10213000FEF7AABD30B54B688A68934210DA0546AF
:102140000A685C1C4C60382404FB03240FCD0FC4C8
:102150000FCD0FC40FCD0FC495E8030084E8030032
:1021600030BDF0B5164689B011220F460446002155
:1021700003A801F0FCF9304601F057FA002500955C
:1021800081B27B6803AA3046FEF7C8FD20B129461C
:102190002046FFF7DDFD03E003A92046FFF7C6FD5B
:1021A000204609B0F0BD002211464068FEF75ABE35
:1021B000002211464068FEF76DBE00224068FEF71F
:1021C00061BE002281F001014068FEF743BE00239A
:1021D0001A4619464068FEF735BE002202214068C3
:1021E000FEF718BE00231A464068FEF703BE000043
:1021F0001FB500230191064801A902930392FEF73F
:1022000095FD039B9842A8BF184605B05DF804FBF6
:1022100035210A081FB500230191064801A9029340
:102220000392FEF78BFD039B9842A8BF184605B0AA
:102230005DF804FB35210A08024B04225A60024A69
:102240001A607047C0010020A0420A0800231A4605
:102250004068FEF7CFBD002202214068FEF7DABDDC
:10226000002211464068FEF7CDBD002211464068AD
:10227000FEF7D8BD00231A4619464068FEF7DABDBE
:1022800000231A4619464068FEF7DCBD002281F0A3
:1022900001014068FEF7DEBD00224068FEF7F2BD96
:1022A000002211464068FEF7F5BD00221146406845
:1022B000FEF7D8BD70B516468EB0044608A8FFF7E5
:1022C00027FD1122002103A801F051F9304601F049
:1022D000ACF900250A4B009581B25B6803AA304631
:1022E000FEF71CFD20B129462046FFF731FD03E033
:1022F00003A92046FFF71AFD20460EB070BD00BFAF
:10230000C0010020024B034A1A6000225A60704745
:10231000C8010020D4420A0810B504460F48FEF751
:102320003DFE28B1A4F10D03022B01D8002010BD01
:1023300000F074F8FFF7FAFE08B1012CF6D9FFF7A8
:1023400063FEFFF75DFE18B1A4F11203012BEDD976
:10235000172C8CBF0020012010BD00BFD001002031
:10236000172838B504460D460AD8FF2908D0FFF7CC
:10237000D3FF28B129462046BDE83840FEF7ACBB64
:1023800038BD10B50446FEF7AFFB0438C0B20128D3
:1023900008D92046FFF7C0FF20B12046BDE8104015
:1023A000FEF7AABB002010BD70B50C4C0C4E0D4DB5
:1023B00000212046FEF7DEFD20460B4C3246294622
:1023C00000F04CF801212046FEF7D4FD32462946A4
:1023D0002046BDE8704000F041B800BFD0010020A9
:1023E000D0000020650F0A08E001002013B5084C5A
:1023F00000231A46194600932046FFF7BFFC2046EB
:10240000044A054902B0BDE8104000F027B800BFFB
:10241000F4010020D0000020CD1C0A0838B50B4D77
:10242000296811F001040FD12846FDF73CFE58B190
:1024300021460748FFF768FE2846FDF739FE054AA2
:102440000549034800F00AF8014838BD0C02002095
:1024500010020020D0000020B1200A080B460146DF
:10246000184600F073BFFDF71CBE08B5FEF76AFD05
:10247000184B1A68D1075CBF01221A60164B1A6804
:10248000D2075CBF01221A60144B1A68D0075CBFE8
:1024900001221A60124B1A68D1075CBF01221A6030
:1024A000104B1A68D2075CBF01221A600E4B1A68E3
:1024B000D0075CBF01221A600C4B1A68D1075CBFC1
:1024C00001221A600A4B1A68D2075CBF01221A6007
:1024D000704700BF400200203C020020380200206C
:1024E00034020020300200202C02002028020020AC
:1024F00024020020244B1A68D0075CBF01221A6016
:10250000224B1A68D1075CBF01221A60204B1A685F
:10251000D2075CBF01221A601E4B1A68D0075CBF4D
:1025200001221A601C4B1A68D1075CBF01221A6095
:102530001A4B1A68D2075CBF01221A60184B1A683E
:10254000D0075CBF01221A60164B1A68D1075CBF26
:1025500001221A60144B1A68D2075CBF01221A606C
:10256000124B1A68D0075CBF01221A60104B1A6820
:10257000D1075CBF01221A600E4B1A68D2075CBFFC
:1025800001221A60704700BF700200206C02002018
:102590006802002064020020600200205C0200202B
:1025A0005802002054020020500200204C0200205B
:1025B0004802002044020020244B1A68D0075CBF68
:1025C00001221A60224B1A68D1075CBF01221A60EF
:1025D000204B1A68D2075CBF01221A601E4B1A6892
:1025E000D0075CBF01221A601C4B1A68D1075CBF80
:1025F00001221A601A4B1A68D2075CBF01221A60C6
:10260000184B1A68D0075CBF01221A60164B1A6873
:10261000D1075CBF01221A60144B1A68D2075CBF55
:1026200001221A60124B1A68D0075CBF01221A609F
:10263000104B1A68D1075CBF01221A600E4B1A6852
:10264000D2075CBF01221A60704700BFA0020020C1
:102650009C0200209802002094020020900200209A
:102660008C020020880200208402002080020020CA
:102670007C0200207802002074020020184B1A68A7
:10268000D1075CBF01221A60164B1A68D2075CBFE3
:1026900001221A60144B1A68D0075CBF01221A602D
:1026A000124B1A68D1075CBF01221A60104B1A68DE
:1026B000D2075CBF01221A600E4B1A68D0075CBFBC
:1026C00001221A600C4B1A68D1075CBF01221A6004
:1026D0000A4B1A68D2075CBF01221A60704700BF1C
:1026E000C0020020BC020020B8020020B40200207A
:1026F000B0020020AC020020A8020020A4020020AA
:1027000081F0004102E000BF83F0004330B54FEAA2
:1027100041044FEA430594EA050F08BF90EA020F0F
:102720001FBF54EA000C55EA020C7FEA645C7FEAA2
:10273000655C00F0E2804FEA5454D4EB5555B8BFC5
:102740006D420CDD2C4480EA020281EA030382EA36
:10275000000083EA010180EA020281EA0303362DC8
:1027600088BF30BD11F0004F4FEA01314FF4801C9B
:102770004CEA113102D0404261EB410113F0004FAD
:102780004FEA03334CEA133302D0524263EB430364
:1027900094EA050F00F0A780A4F10104D5F1200E02
:1027A0000DDB02FA0EFC22FA05F2801841F100015D
:1027B00003FA0EF2801843FA05F359410EE0A5F131
:1027C00020050EF1200E012A03FA0EFC28BF4CF062
:1027D000020C43FA05F3C01851EBE37101F0004518
:1027E00007D54FF0000EDCF1000C7EEB00006EEB25
:1027F0000101B1F5801F1BD3B1F5001F0CD34908AF
:102800005FEA30004FEA3C0C04F101044FEA445205
:1028100012F5800F80F09A80BCF1004F08BF5FEA8C
:10282000500C50F1000041EB045141EA050130BD6C
:102830005FEA4C0C404141EB010111F4801FA4F10F
:102840000104E9D191F0000F04BF01460020B1FA64
:1028500081F308BF2033A3F10B03B3F120020CDA9C
:102860000C3208DD02F1140CC2F10C0201FA0CF07A
:1028700021FA02F10CE002F11402D8BFC2F1200CDF
:1028800001FA02F120FA0CFCDCBF41EA0C01904095
:10289000E41AA2BF01EB0451294330BD6FEA0404DE
:1028A0001F3C1CDA0C340EDC04F11404C4F12002C9
:1028B00020FA04F001FA02F340EA030021FA04F3DB
:1028C00045EA030130BDC4F10C04C4F1200220FA32
:1028D00002F001FA04F340EA0300294630BD21FA70
:1028E00004F0294630BD94F0000F83F4801306BF36
:1028F00081F480110134013D4EE77FEA645C18BF2A
:102900007FEA655C29D094EA050F08BF90EA020FC0
:1029100005D054EA000C04BF1946104630BD91EAB8
:10292000030F1EBF0021002030BD5FEA545C05D1BB
:102930004000494128BF41F0004130BD14F58004FA
:102940003CBF01F5801130BD01F0004545F0FE416E
:1029500041F470014FF0000030BD7FEA645C1ABFA3
:10296000194610467FEA655C1CBF0B46024650EADA
:10297000013406BF52EA033591EA030F41F4002106
:1029800030BD00BF90F0000F04BF0021704730B58C
:102990004FF4806404F132044FF000054FF0000161
:1029A00050E700BF90F0000F04BF0021704730B522
:1029B0004FF4806404F1320410F0004548BF4042F7
:1029C0004FF000013EE700BF42004FEAE2014FEA4C
:1029D00031014FEA02701FBF12F07F4393F07F4F27
:1029E00081F06051704792F0000F14BF93F07F4F59
:1029F000704730B54FF4607401F0004521F000419C
:102A000020E700BF50EA010208BF704730B54FF021
:102A100000050AE050EA010208BF704730B511F026
:102A2000004502D5404261EB41014FF4806404F15E
:102A300032045FEA915C3FF4DCAE4FF003025FEAE0
:102A4000DC0C18BF03325FEADC0C18BF033202EB68
:102A5000DC02C2F1200300FA03FC20FA02F001FAC2
:102A600003FE40EA0E0021FA02F11444C1E600BF61
:102A700070B54FF0FF0C4CF4E06C1CEA11541DBF14
:102A80001CEA135594EA0C0F95EA0C0F00F0DEF8DF
:102A90002C4481EA030621EA4C5123EA4C5350EAC4
:102AA000013518BF52EA033541F4801143F4801315
:102AB00038D0A0FB02CE4FF00005E1FB02E506F0A6
:102AC0000042E0FB03E54FF00006E1FB03569CF0FB
:102AD000000F18BF4EF0010EA4F1FF04B6F5007F01
:102AE00064F5407404D25FEA4E0E6D4146EB060673
:102AF00042EAC62141EA55514FEAC52040EA5E50FC
:102B00004FEACE2EB4F1FD0C88BFBCF5E06F1ED8A5
:102B1000BEF1004F08BF5FEA500E50F1000041EBDC
:102B2000045170BD06F0004646EA010140EA020089
:102B300081EA0301B4EB5C04C2BFD4EB0C0541EAAB
:102B4000045170BD41F480114FF0000E013C00F3C0
:102B5000AB8014F1360FDEBF002001F0004170BDE4
:102B6000C4F10004203C35DA0C341BDC04F11404FD
:102B7000C4F1200500FA05F320FA04F001FA05F289
:102B800040EA020001F0004221F0004110EBD37056
:102B900021FA04F642EB06015EEA430E08BF20EA82
:102BA000D37070BDC4F10C04C4F1200500FA04F325
:102BB00020FA05F001FA04F240EA020001F00041B7
:102BC00010EBD37041F100015EEA430E08BF20EA2A
:102BD000D37070BDC4F1200500FA05F24EEA020E72
:102BE00020FA04F301FA05F243EA020321FA04F0A1
:102BF00001F0004121FA04F220EA020000EBD37058
:102C00005EEA430E08BF20EAD37070BD94F0000F57
:102C10000FD101F00046400041EB010111F4801F8B
:102C200008BF013CF7D041EA060195F0000F18BF3C
:102C3000704703F00046520043EB030313F4801F78
:102C400008BF013DF7D043EA0603704794EA0C0F32
:102C50000CEA135518BF95EA0C0F0CD050EA410648
:102C600018BF52EA4306D1D181EA030101F00041C5
:102C70004FF0000070BD50EA410606BF10461946ED
:102C800052EA430619D094EA0C0F02D150EA0136F9
:102C900013D195EA0C0F05D152EA03361CBF10463A
:102CA00019460AD181EA030101F0004141F0FE41D9
:102CB00041F470014FF0000070BD41F0FE4141F45D
:102CC000780170BD70B54FF0FF0C4CF4E06C1CEA5D
:102CD00011541DBF1CEA135594EA0C0F95EA0C0F12
:102CE00000F0A7F8A4EB050481EA030E52EA0335CD
:102CF0004FEA013100F088804FEA03334FF08055EE
:102D000045EA131343EA12634FEA022245EA11151A
:102D100045EA10654FEA00260EF000419D4208BFCB
:102D2000964244F1FD0404F5407402D25B084FEA78
:102D30003202B61A65EB03055B084FEA32024FF424
:102D400080104FF4002CB6EB020E75EB030E22BF81
:102D5000B61A754640EA0C005B084FEA3202B6EB41
:102D6000020E75EB030E22BFB61A754640EA5C00F0
:102D70005B084FEA3202B6EB020E75EB030E22BF80
:102D8000B61A754640EA9C005B084FEA3202B6EB81
:102D9000020E75EB030E22BFB61A754640EADC0040
:102DA00055EA060E18D04FEA051545EA16754FEAA2
:102DB00006164FEAC30343EA52734FEAC2025FEAC0
:102DC0001C1CC0D111F4801F0BD141EA00014FF04F
:102DD00000004FF0004CB6E711F4801F04BF014320
:102DE0000020B4F1FD0C88BFBCF5E06F3FF6AFAE3C
:102DF000B5EB030C04BFB6EB020C5FEA500C50F1CC
:102E0000000041EB045170BD0EF0004E4EEA11314E
:102E100014EB5C04C2BFD4EB0C0541EA045170BD55
:102E200041F480114FF0000E013C90E645EA060E99
:102E30008DE60CEA135594EA0C0F08BF95EA0C0FC7
:102E40003FF43BAF94EA0C0F0AD150EA01347FF40F
:102E500034AF95EA0C0F7FF425AF104619462CE7E6
:102E600095EA0C0F06D152EA03353FF4FDAE104649
:102E7000194622E750EA410618BF52EA43067FF49A
:102E8000C5AE50EA41047FF40DAF52EA43057FF42A
:102E9000EBAE12E74FF0FF3C06E000BF4FF0010C35
:102EA00002E000BF4FF0010C4DF804CD4FEA410C99
:102EB0007FEA6C5C4FEA430C18BF7FEA6C5C1BD066
:102EC00001B050EA410C0CBF52EA430C91EA030FE7
:102ED00002BF90EA020F0020704710F1000F91EA44
:102EE000030F58BF994208BF90422CBFD8176FEA12
:102EF000E37040F0010070474FEA410C7FEA6C5CE0
:102F000002D150EA013C07D14FEA430C7FEA6C5CE6
:102F1000D6D152EA033CD3D05DF8040B704700BF12
:102F20008446104662468C461946634600E000BF60
:102F300001B5FFF7B7FF002848BF10F1000F01BD32
:102F40004DF808EDFFF7F4FF0CBF012000205DF8FD
:102F500008FB00BF4DF808EDFFF7EAFF34BF012082
:102F600000205DF808FB00BF4DF808EDFFF7E0FF1B
:102F700094BF012000205DF808FB00BF4DF808ED6C
:102F8000FFF7CEFF94BF012000205DF808FB00BFD3
:102F90004DF808EDFFF7C4FF34BF012000205DF8B5
:102FA00008FB00BF4A0011D212F5001211D20DD554
:102FB0006FF47873B3EB62520ED44FEAC12343F03F
:102FC000004343EA505323FA02F070474FF00000E9
:102FD000704750EA013002D14FF0FF3070474FF098
:102FE0000000704753B94AB9002908BF00281CBF28
:102FF0004FF0FF314FF0FF3000F0A6B9ADF1080CF3
:103000006DE904CE00F02AF8DDF804E0DDE90223E2
:1030100004B07047D0B500220E4B06460F46FFF7AE
:1030200027FDFFF7BFFF0446FFF7ACFC00220A4B69
:10303000FFF71EFD02460B4630463946FFF764FB9C
:10304000FFF7B0FF2346002242EA0002104619466D
:10305000D0BD00BF0000F03D0000F0412DE9F04F71
:103060008C460C460546099E002B4FD18A421746D6
:103070006BD9B2FA82FEBEF1000F0BD0CEF1200563
:1030800020FA05F501FA0EF345EA030C02FA0EF7F1
:1030900000FA0EF5390CBCFBF1F0BAB201FB10C31B
:1030A00000FB02F84FEA154C4CEA0344A04509D94D
:1030B000E41900F1FF3380F02881A04540F225811A
:1030C00002383C44C8EB0404B4FBF1F301FB134C9D
:1030D00003FB02F2ACB244EA0C418A4209D9C91995
:1030E00003F1FF3480F00F818A4240F20C81023BF1
:1030F00039448A1A43EA00400021002E63D022FAA4
:103100000EF2002386E80C00BDE8F08F8B4207D951
:10311000002E56D0002186E811000846BDE8F08F49
:10312000B3FA83F1002940F09380A34202D3824294
:1031300000F2FE80851A64EB03039C460120002EFA
:1031400041D086E82010BDE8F08F12B90127B7FB07
:10315000F2F7B7FA87FEBEF1000F36D1E41B4FEA53
:1031600017481FFA87F90121B4FBF8F308FB134451
:1031700009FB03F24FEA154C4CEA0444A24207D97A
:10318000E41903F1FF3002D2A24200F2D3800346D9
:10319000A41AB4FBF8F008FB104809FB00F9ACB224
:1031A00044EA0842914507D9D21900F1FF3402D20E
:1031B000914500F2BA802046C9EB020240EA034082
:1031C0009BE731463046BDE8F08F07FA0EF7CEF1A7
:1031D000200C24FA0CF34FEA1748B3FBF8FA1FFA55
:1031E00087F908FB1A3520FA0CFC04FA0EF40AFBE6
:1031F00009FB4CEA040C4FEA1C4242EA05439B459A
:1032000000FA0EF50AD9DB190AF1FF3280F08B8043
:103210009B4540F28880AAF1020A3B44CBEB0303B2
:10322000B3FBF8F008FB103300FB09F41FFA8CFC29
:103230004CEA03439C4207D9DB1900F1FF326ED2FE
:103240009C426CD902383B441C1B40EA0A418BE784
:10325000C1F1200E8B4022FA0EFC4CEA030C24FA3A
:103260000EF74FEA1C49B7FBF9FA1FFA8CF309FB7A
:103270001A7720FA0EF88C400AFB03F548EA04049A
:103280004FEA144848EA0747BD4202FA01F200FA41
:1032900001FB09D917EB0C070AF1FF3041D2BD42FF
:1032A0003FD9AAF1020A67447F1BB7FBF9F509FB76
:1032B000157705FB03F3A4B244EA0747BB4208D9DC
:1032C00017EB0C0705F1FF3027D2BB4225D9023D91
:1032D000674445EA0A40A0FB0289FF1A4F4545466C
:1032E0004C4614D329D066B3BBEB050367EB040748
:1032F00007FA0EFECB40CF404EEA030386E8880073
:103300000021BDE8F08F2346F3E61846DAE6B8EB75
:10331000020569EB0C040138E5E70546D9E71046DC
:1033200092E78246C0E7924678E702383A4443E79C
:10333000084604E7023B3C442AE7C345E7D33C4642
:10334000D1E73146BDE8F08F704700BF10B5054C9E
:1033500013462CB10A4601460220AFF3008010BD8F
:10336000204610BD0000000038B5074B05461C681C
:10337000E36B1BB92420FDF7C5FDE063E16B284634
:10338000BDE8384000F002B87C0000202DE9F04193
:103390000C46804600F062FC21460746404600F09D
:1033A00061FC4669044606F26C76B30705D16422D7
:1033B00096FBF2F302FB13634BB94FF4C87596FB0F
:1033C000F5F305FB1365B5FA85F35B0900E001230E
:1033D0005F4A302505FB032500F074FA00F074FA0B
:1033E0005C4B1B68F3B17B689E4205D13968D8F805
:1033F0000030FA6941B90AE0304600F0BBF9002814
:10340000F4D14FF0FF330DE0934208DB01E093422B
:1034100007DABA6B9342ACBF0023012302E000231A
:1034200000E001232362236A3C20012B0CBFF96BCF
:10343000396A4FF4616391FBF3F603FB161393FBB8
:10344000F0F200FB123061682368891AA2681B1A27
:10345000921B3B2B23606160A26003DD0131616040
:103460003C3B04E0002B03DA013961603C3323600C
:1034700063683B2B03DD0132A2603C3B04E0002B80
:1034800003DA013AA2603C336360A368172B22DDA4
:10349000E269183B0132E261A269A3600132062AA7
:1034A000C8BF0022A261E26823690132E26055F8D8
:1034B00023108A4246DD01330C2B08BF6369A2EB5F
:1034C0000102E26005BF013300222361226104BFD3
:1034D0006361E26136E0002B34DAE2691833013AC5
:1034E000E261A269A360013A48BF0622A261E268D4
:1034F000013AE26032BB2369013B01D423611DE044
:103500000B23236163695A1E12F0030F626103F2F9
:103510006B7305D1642193FBF1F201FB12324AB9BE
:103520004FF4C87193FBF1F201FB1233B3FA83F34A
:103530005B0900E0012303F5B673E361236955F8E5
:103540002330E36000F0BFF92046BDE8F08100BF02
:1035500068440A08E002002010B5431E0A44914264
:1035600004D011F8014B03F8014FF8E710BD0346F2
:103570000244934202D003F8011BFAE770470000AF
:1035800038B5124B05461C68A36BD3B91820FDF75C
:10359000B9FC43F20E33A06303804AF6CD33438077
:1035A00041F2342383804EF26D63C3804DF6EC63A9
:1035B0000381052343810B23838101220023C0E97A
:1035C0000423A36B00221D615A6138BD7C000020DA
:1035D00010F8012B11F8013B012A28BF9A42F7D0BD
:1035E000D01A7047034611F8012B03F8012B002A6B
:1035F000F9D17047024B0146186800F003B800BFCC
:103600007C00002070B5064608460C4600F00DF818
:10361000451C29463046FDF79DFC064618B12A4652
:103620002146FFF799FF304670BD034613F8012B82
:10363000002AFBD1181A0138704730B582B1451EF7
:10364000013915F8013F11F8014FA34206D1EC43AF
:103650001444E04201D0002BF3D11C46181B30BDAE
:10366000104630BD2DE9F0470E4680463B48D0F865
:103670000090354615F8014B09EB0400407800F046
:10368000080000F0FF0708B12E46F2E72D2C03D109
:10369000B51C7478012703E02B2C04BF7478B51C8B
:1036A00013B1102B0AD153E0302C4FD1287800F001
:1036B000DF00582845D16C78102302354FF0FF3CCD
:1036C000BCFBF3FC03FB0CFA00266FEA0A0A304647
:1036D00009EB040E9EF801E01EF0040F01D0303C0F
:1036E0000BE01EF0030E1AD0BEF1010F0CBF4FF01D
:1036F000370E4FF0570ECEEB0404A3420FDD002E21
:1037000008DB604506D801D1544503DC03FB0040CB
:10371000012601E04FF0FF3615F8014BD8E7002EE7
:1037200007DA2223C8F800304FF0FF302AB9BDE88D
:10373000F08707B1404272B106B1691E1160BDE861
:10374000F0873024002BB9D10823B7E70A23B5E767
:10375000302CABD0B2E7BDE8F08700BF18000020E6
:1037600013460A46014602480068FFF77BBF00BFC8
:103770007C0000202DE9F74F044600F06FFA40F27C
:10378000B1739C4240F3968040F26D156FF4F6637E
:10379000E318A4F2B2729B1005FB0235A4F26D721D
:1037A0006FF0630392FBF3F36FF4C8622B44A51828
:1037B0004FF4C87294FBF2F795FBF2F502FB174742
:1037C0001D44642394FBF3F6B7FA87FE014603FB1E
:1037D000164600F13803019304F0030344604FEAF6
:1037E0005E1E00934FF0070C0B7A4A2B0ED14B69EB
:1037F000009AEC1802B906B927B93B2BD4BF0023B5
:10380000012300E000232344013B3FE0442B02D18D
:103810004B692B443AE0009B2BB9002E0CBFF046BD
:103820004FF0010800E0F046A946244B302202FB8D
:103830000838CC68A8F1040A0123A34204DA5AF834
:1038400004BF0133D944F8E709F1040393FBFCFBFF
:10385000CBEBCB0ACAEB030A4B69012CB8BF01249E
:10386000B3EB0A0A0B6904F1804403F1FF3304F15E
:10387000FF3448BF0AF1070AC3EBC30358F82440DA
:103880005344A34201DB073BFBE74B448C690C4AE2
:1038900002FB03430C6A234441F81C3F019B9942FD
:1038A000A2D1C369826B9342ACBF002301230360A2
:1038B000012000E0002003B0BDE8F08F68440A0852
:1038C0008051010070477047014B186800F002B842
:1038D0007C0000202DE9F04F8DB0074600F0BEF9C6
:1038E000B0490446384600F0B1F9AF4E054660B91C
:1038F000AE4BAF4A1860AF4B1860AF4B30681A60E0
:103900005A60FDF707FB356048E1316879B93068E6
:10391000FDF700FB2846FFF788FE411C3846FDF7FF
:1039200019FB306048B12946FFF75CFE05E0FFF760
:103930004FFE002800F03281E9E72B780AAE3A2BDF
:1039400008BF013533469D4A9D492846FDF7F2FAE6
:10395000002840F323810A9BEF18EB5C2D2B03D149
:1039600001374FF0FF3503E02B2B08BF013701254E
:103970000DF1200A0DF11E0B4FF000080396CDF853
:1039800008A00196CDF800B0334607AA8D49384605
:10399000ADF81E80ADF82080FDF7CCFA404540F32D
:1039A000FD80BDF81E20BDF820303C2101FB023314
:1039B000BDF81C204FF4616101FB02335D437F4B76
:1039C00025627D4DDFF808922B600A9B4A461F4412
:1039D0007B4933463846FDF7ADFA404508DC2B6895
:1039E000226A6B60714B1A60724BC3F80080D5E09D
:1039F0000A9BC5F80490FD18FB5C2D2B03D1013503
:103A00004FF0FF3703E02B2B08BF013501270023C0
:103A1000ADF81C30ADF81E30ADF820300A93039697
:103A2000CDF808A00196CDF800B0334607AA654945
:103A30002846FDF77FFA002804DC236AA3F56163BA
:103A4000E3630EE0BDF81E20BDF820303C2101FBF1
:103A50000233BDF81C204FF4616101FB02335F4368
:103A6000E76327460A9B4FF000091D442B782C2B57
:103A700008BF013595F80080B8F14D0F26D10DF142
:103A80002603029309AB00930396019633460DF18A
:103A900022024D492846FDF74DFA03287ED1BDF894
:103AA00022104B1E0B2B79D8BDF82420531E042B5B
:103AB00074D8BDF82630062B70D887F80880F960D6
:103AC0003A617B610A9B05EB03082AE0B8F14A0FD3
:103AD00006BF4346013544230A220BA92846059315
:103AE000FFF73EFEDDF82C80ADF826004545059B2E
:103AF00014D14D23B9F1000F07D123720323E360E2
:103B000002232361C4F814900BE084F824300B23C3
:103B1000A3620123E3620023236302E080B23B72CD
:103B200078610223ADF81C300023ADF81E30ADF8EB
:103B300020300A9398F800302F2B0BD10396CDF844
:103B400008A00196CDF800B0334607AA1F494046A9
:103B5000FDF7F0F9BDF81E20BDF820303C2101FB37
:103B60000233BDF81C204FF4616101FB0233BB61DD
:103B70000A9D09F10109B9F1020F454407F11C073B
:103B80007FF474AF6068FFF7F5FD226A074B1A6097
:103B9000E36B9B1A074A18BF012313600DB0BDE801
:103BA000F08F00BFC8440A08DC020020E4020020B5
:103BB000CB440A08E002002080000020CF02002051
:103BC000CF440A08F2440A08DE440A08F1440A080D
:103BD000C40200202DE9F84F07468B46904600F0BE
:103BE000D7F8194B1D689A463DB15C46234613F839
:103BF000012B42B13D2A1C46F8D1384600F0C9F8E5
:103C00000020BDE8F88FCBEB0404A94659F8040B5B
:103C10000028F2D022465946FFF70FFD88B959F81F
:103C2000043C1E191B5D3D2B0BD1DAF800303846E1
:103C3000ED1AAD10C8F8005000F0ABF8701CBDE8EC
:103C4000F88F4D46E1E700BFC800002007B501AA84
:103C5000FFF7C0FF03B05DF804FB000000487047A9
:103C6000880000200268464BF0B592FBF3F403FB9A
:103C70001422002ABCBF02F5A83202F5C0724FF42C
:103C8000616092FBF0F300FB13224FF03C008B606D
:103C900092FBF0F300FB132204F52F24ACBF04F6D3
:103CA0006C2404F66B244B600A600723E21C92FB31
:103CB000F3F3344DC3EBC30394FBF5F5D31A48F685
:103CC000AC6240F2B4578B612F4B304803FB054484
:103CD000B4FBF2F2B4FBF7F3B4FBF0F02244D21AD7
:103CE00048F69466131A40F26D12B3FBF6F6B3FB76
:103CF000F2F0B3FBF7F33444E31A02FB103303EBA7
:103D0000830299240232B2FBF4F25443A61C052428
:103D1000B6FBF4F40A2A34BF02266FF009061644F3
:103D20004FF4C87202FB05055F1C012E98BF0135D8
:103D3000B3F5997FA7EB040702D3A3F5997214E0BA
:103D4000820705D16424B0FBF4F204FB12024AB9E5
:103D50004FF4C872B0FBF2F402FB1400B0FA80F228
:103D6000520900E001223B331A44A5F26C7500238E
:103D7000CA614D610E61CF600B620846F0BD00BFA5
:103D800080510100B13A02004FC5FDFFB03A020078
:103D90007047704721000A0861000A088D000A0870
:103DA00091000A080000000052756E6E696E67206F
:103DB000536574757020666F72206C6F6F70007B36
:103DC0002000224274223A002C2000224270223A23
:103DD00000224268223A00225972223A00224D6F94
:103DE000223A00224461223A00224872223A0022FA
:103DF0004D69223A00225363223A00225A6F223A36
:103E000000224476223A2022506F776572312220B8
:103E10007D004275726E6C65790053656E74207416
:103E20006F2074686520636C6F75642E2E2E2000E1
:103E3000556E6B6E6F776E20535349443A200043A2
:103E40006F6E6E656374696E6720576946692E2EC2
:103E50002E00436F6E6E656374696E6720746F2009
:103E6000436C6F75642E2E2E005769666920697346
:103E70002072656164792E00576966692069732034
:103E8000636F6E6E656374696E672E00576966694D
:103E90002069732072656164792E206E6F772074BB
:103EA0006F20636F6E6E65637420746F2074686535
:103EB00020636C6F75642E2000436F6E6E656374B3
:103EC000656420746F2074686520636C6F75642E60
:103ED0002E2E2000416C6C2073657475702C20634D
:103EE0006F6E6E656374656420616E6420726561D7
:103EF000647920746F2064616E63652E2048617A56
:103F000061720073686F756C6420626520636F6E08
:103F10006E656374656420746F20636C6F75642EC6
:103F20002E2E20005769466920636F6E6E6563749C
:103F3000696F6E2074696D6564206F75742C2077CD
:103F4000696C6C2074727920616E6420636F6E6E90
:103F50006563742E2E2E0057652061726520737480
:103F6000696C6C20636F6E6E656374696E67207434
:103F70006F2074686520636C6F75642E2057696CC0
:103F80006C2074727920636F6E6E65637420616754
:103F900061696E2E004E6F7420636F6E6E65637480
:103FA000656420746F2074686520636C6F75642E7F
:103FB0002077696C6C2074727920616761696E2E5C
:103FC0002E2E00436F6E6E656374696E6720746F8A
:103FD0002074686520636C6F75642E2E2E20004956
:103FE00073206120636C6F7564206C6F6F7020624A
:103FF00075742057696669206973206E6F74206537
:104000006E61626C65642C2077696C6C206E6F77D2
:1040100020636F6E6E6563742E004F6E006F666670
:1040200000546F74616C20706F7765722069732023
:1040300009004309006D416800506F776572206F79
:104040006620646576696365207377697463686563
:10405000642E00506F776572206973200057686581
:104060006E20706F776572206973206F6E20090073
:104070005768656E20706F776572206973206F6670
:10408000660900345169756432392D646100334723
:10409000207546695F394530003347207546695FB2
:1040A000363142003347207546695F433833003369
:1040B00047207546695F39453300334720754669A7
:1040C0005F433642000000000000000000000000D6
:1040D000650F0A08670F0A0862617564005365720C
:1040E00069616C0055534253657269616C310074AB
:1040F00079706500706172616D00636D6400696460
:1041000000686E64007374726D0066696C74006C94
:10411000766C0061646448616E646C6572007265FF
:104120006D6F766548616E646C657200656E756D65
:1041300048616E646C657273004A534F4E537472DB
:1041400065616D4C6F6748616E646C65720061708B
:104150007000253031307520005D20002564002876
:10416000293A2000205B00636F6465203D20002514
:10417000690064657461696C73203D20000D0A005C
:104180006C6E00666E00636F6465006465746169DF
:104190006C006E6F6E6500747261636500696E66B7
:1041A0006F007761726E006572726F720070616E7F
:1041B000696300616C6C00252B3033643A25303222
:1041C000750025592D256D2D25645425483A254D1A
:1041D0003A2553257A0061736374696D65000000A8
:1041E000000000000000000045170A084B170A08ED
:1041F0008F170A0859170A0847170A080000000015
:1042000000000000DD1C0A08CD1C0A08CF1C0A08AB
:104210000000000000000000991D0A08E91D0A08BE
:10422000F71D0A080D130A08D51D0A089B1D0A0868
:10423000B11D0A08E31D0A08C71D0A08951D0A08D2
:104240000000000000000000511F0A08A11F0A081A
:10425000AF1F0A080D130A08651F0A08871F0A08FE
:10426000731F0A089B1F0A08531F0A08571F0A08D2
:104270000000000000000000B1200A08FB200A082E
:10428000D3200A08B3200A08DB200A08E3200A0822
:10429000EB200A08F3200A080000000000000000DC
:1042A000E5210A08DB210A08B5010A08BF010A084E
:1042B000EB130A08CF210A08C3210A08BB210A0808
:1042C000B1210A08A7210A0863210A08000000009A
:1042D000000000004D220A0857220A0861220A083D
:1042E0006B220A0875220A0881220A088D220A0810
:1042F00099220A08A1220A08AB220A08B5220A0854
:1043000000202020202020202020282828282820A5
:10431000202020202020202020202020202020209D
:104320002088101010101010101010101010101005
:1043300010040404040404040404041010101010F5
:1043400010104141414141410101010101010101BF
:104350000101010101010101010101011010101011
:104360001010424242424242020202020202020291
:1043700002020202020202020202020210101010E5
:10438000200000000000000000000000000000000D
:10439000000000000000000000000000000000001D
:1043A000000000000000000000000000000000000D
:1043B00000000000000000000000000000000000FD
:1043C00000000000000000000000000000000000ED
:1043D00000000000000000000000000000000000DD
:1043E00000000000000000000000000000000000CD
:1043F00000000000000000000000000000000000BD
:1044000000000000000000000000000000000000AC
:10441000000000000000000000000000000000009C
:10442000000000000000000000000000000000008C
:10443000000000000000000000000000000000007C
:10444000000000000000000000000000000000006C
:10445000000000000000000000000000000000005C
:1044600000000000430000001F0000001C000000CE
:104470001F0000001E0000001F0000001E000000C2
:104480001F0000001F0000001E0000001F000000B1
:104490001E0000001F0000001F0000001D000000A3
:1044A0001F0000001E0000001F0000001E00000092
:1044B0001F0000001F0000001E0000001F00000081
:1044C0001E0000001F000000545A00474D540025F4
:1044D00031305B5E302D392C2B2D5D256E004D2546
:1044E0006875256E2E256875256E2E256875256ED6
:1044F000002F256875256E3A256875256E3A256862
:1045000075256E00990A0A08A50F0A0831140A08D1
:1045100099150A08F1150A0839220A0805230A081C
:10452000A9230A08ED230A0871240A08F5240A08B9
:10453000B9250A087D260A080000000000000000D6
:084540001CEBFF7F01000000ED
:0845480000000000000000006B
:1045500003000000050000008813000083400A08E3
:1045600002000000D6410A0800430A0800000000CB
:1045700004440A0824440A0844440A0800000000CD
:1045800000000000000000000000000064440A0871
:10459000000000000000000000000000000000001B
:1045A000000000000000000000000000000000000B
:1045B00000000000000000000000000000000000FB
:1045C0000000000000000000000000001C000020AF
:1045D000CB440A08CB440A08010000000000000098
:1045E0004A00000000000000000000000000000081
:1045F0000000000000000000000000004A00000071
:1046000000000000000000000000000000000000AA
:0C4610000000000000000000E802002094
:10461C00FFFFFFFF00000102030405060708090A5B
:10462C000B0C0D0E0F101112131415161718191A56
:08463C001B1C1D1E1F2028009D
:04464400785634125E
:04000005080A0020C5
:00000001FF
