:02000004080AE8
:1000000000000A088C170A08000006000600050117
:080010000402150500000000C8
:10001800FC130A0809480A4908B5884205D0094A64
:10002800824202D0121A01F099F90748074A0021C2
:10003800121A01F09EF9064808BD00BF000300200F
:10004800F4160A0870030020700300200805002039
:100058000805002070B500F09DFC074B074C1E46B4
:10006800E41AA4080025A54204D056F8253098477C
:100078000135F8E770BD00BFB0160A08E4160A0893
:1000880000F014B808B500F02FF8BDE8084000F0FB
:1000980043BC00F025BA00F02BBA0078B0FA80F023
:1000A80040097047012303707047000008B500F04D
:1000B80063FD4FF4165100F053FD084B00211888DA
:1000C80000F070FF064B0021188800F06BFF054B0D
:1000D80000211888BDE8084000F064BF0003002034
:1000E8008803002004030020F0B52C4B91B0188839
:1000F80000F069FF2A4E2B4D30600A2000F0BAFB51
:10010800294B2A4C188800F05EFF28600A2000F06E
:10011800B1FB274B188800F056FF20600A2000F03A
:10012800A9FB00F029FD2349074604A800F0B2FA0C
:100138000A223168684600F0D1FA694604A800F03E
:10014800F7FA1D4900F000FB06460A22296808A8AC
:1001580000F0C4FA08A9304600F0EAFA174900F09E
:10016800F3FA05460A2221680CA800F0B7FA0CA990
:10017800284600F0DDFA0168384600F02CFB0CA890
:1001880000F041FA08A800F03EFA684600F03BFA91
:1001980004A800F038FA11B0F0BD00BF0003002039
:1001A800780300207C0300208803002074030020CB
:1001B8000403002010140A0818140A0820140A0856
:1001C80008B500F00FF8064B00221A705A804FF657
:1001D800FF729A800220BDE8084000F005B900BF10
:1001E8008003002008B5024B1B681B68019308BDFB
:1001F800B001060808B5024B1B689B68019308BD4F
:10020800B001060808B5024B1B68DB68019308BDFE
:10021800B001060808B5024B1B685B69019308BD6D
:10022800B001060808B5024B1B68DB69019308BDDD
:10023800B401060808B5024B1B681B6A019308BD88
:10024800B401060808B5024B1B685B68019308BD3A
:100258009C01060808B5024B1B685B69019308BD41
:100268009C01060808B5024B1B681B6B019308BD6F
:10027800D001060808B5024B1B689B69019308BDAD
:10028800C401060808B5024B1B685B6A019308BDE8
:10029800C401060808B5024B1B689B6A019308BD98
:1002A800C401060808B5024B1B68DB6A019308BD48
:1002B800C401060808B5024B1B681B6B019308BDF7
:1002C800C401060808B5024B1B685B6B019308BDA7
:1002D800C401060808B5024B1B689B6B019308BD57
:1002E800C401060808B5024B1B681B6C019308BDC6
:1002F800C401060808B5024B1B681B6E019308BDB4
:10030800AC01060808B5024B1B685B6E019308BD7B
:10031800AC01060808B5024B1B689B6E019308BD2B
:10032800AC01060808B5024B1B68DB6E019308BDDB
:10033800AC01060808B5024B1B681B6F019308BD8A
:10034800AC01060808B5024B1B685B6F019308BD3A
:10035800AC01060808B5034B1B68D3F8803001933D
:1003680008BD0000AC01060808B5024B1B681B68F5
:10037800019308BDD801060808B5024B1B685B68E5
:10038800019308BDD801060808B5024B1B681B6914
:10039800019308BDD801060808B5024B1B685B69C4
:1003A800019308BDD801060808B5024B1B689B6974
:1003B800019308BDD801060808B5024B1B68DB6924
:1003C800019308BDD801060808B5024B1B681B6AD3
:1003D800019308BDD801060808B5024B1B689B6C41
:1003E800019308BDC001060808B5024B1B685B688D
:1003F800019308BDA401060808B5024B1B685B6998
:10040800019308BDA401060808B5034B1B68D3F87F
:100418009030019308BD0000A401060808B5034BFD
:100428001B68D3F89C30019308BD0000A40106089E
:1004380008B5024B1B685B68019308BDC801060834
:1004480008B5024B1B689B68019308BDC8010608E4
:1004580008B5024B1B68DB68019308BDC801060894
:1004680008B5024B1B681B69019308BDC801060843
:1004780008B5024B1B685B69019308BDC8010608F3
:1004880008B5024B1B689B69019308BDC8010608A3
:1004980008B5024B1B68DB69019308BDC801060853
:1004A80008B5024B1B681B6A019308BDC801060802
:1004B80008B5024B1B681B6B019308BDC8010608F1
:1004C80008B5024B1B685B6B019308BDC8010608A1
:1004D80008B5024B1B68DB6B019308BDCC0106080D
:1004E80008B5024B1B681B68019308BDA0010608EC
:1004F80008B5024B1B685B68019308BDA00106089C
:1005080008B5024B1B689B68019308BDA00106084B
:10051800704710B50446102100F0C7FD204610BDF5
:1005280070B504460E46074B0025036040F80C5F83
:10053800FFF798FE30462671FFF774FEA560204647
:1005480070BD00BF30140A080079FFF773BE0000C1
:100558004FF6FF72034B0020187058809A80FFF7FF
:1005680043BF00BF8C03002010B5044600F03AFFDB
:10057800013823182046984206D20278197800F8E4
:10058800011B03F80129F6E710BD70B50C46911E52
:10059800222920D82546294610B9234430220EE0C6
:1005A800B0FBF2F602FB1600C1B2092805F8011BE0
:1005B80094BF3031573105F8011C3046EBE79942BA
:1005C80002D201F8012BFAE7002320460B70FFF74F
:1005D800CBFF204670BD002070BD38B5031E0C4609
:1005E80015460BDAB3F1004F4FF02D0214BF5842F5
:1005F800184601230A702A46194400E00123FFF730
:10060800C4FF204638BD10B504460068FFF770FFE8
:10061800204610BD10B50446006808B1FFF768FF12
:1006280000232360A360636010BD38B504460D46FF
:1006380000680131FFF764FF10B184E82100012050
:1006480038BD10B50368044613B143688B4207D21E
:100658002046FFF7EAFF20B1A3680BB922681370A0
:10066800012010BD70B50E46114604461546FFF729
:10067800E8FF18B92046FFF7CDFF09E02A463146C2
:10068800A560206800F06AFE2268A3680021D154A2
:10069800204670BD38B5002304460360436083607C
:1006A80003730D4639B1084600F09CFE2946024600
:1006B8002046FFF7D7FF204638BD38B505460C461B
:1006C80041B1084600F08EFE214602462846FFF753
:1006D800C9FF01E0FFF79EFF284638BD10B5044664
:1006E80000238AB023606360A3602373084601A9CE
:1006F800FFF773FF01A92046FFF7DFFF20460AB086
:1007080010BD70B504460E4609B9002070BD6AB127
:100718008368D5182946FFF794FF0028F5D020688C
:10072800A3683146184400F055FEA560012070BD4D
:1007380010B58A6809680446FFF7E3FF10B9204638
:10074800FFF768FF204610BD38B504460D4641B195
:10075800084600F047FE294602462046FFF7D1FF2B
:1007680010B92046FFF756FF204638BDF8B50646B3
:100778000D468F180024BD420CD0336815F8011BB4
:100788009B6830469847002801DB0444F3E7002CB7
:1007980008BF04462046F8BD70B505460C46084615
:1007A80049B100F01FFE2B68024621462846BDE8E5
:1007B8007040DB68184770BD03689B68184738B5F8
:1007C8000D210546FFF7F8FF0A2104462846FFF7E2
:1007D800F3FF204438BD38B50546FFF7DDFF044672
:1007E8002846FFF7ECFF204438BD012A98BF0A22AB
:1007F80030B50B468BB000218DF824100DF1230481
:10080800B3FBF2F505FB1233DBB2092B94BF30338F
:100818003733DBB2214604F801392B46002DEFD1DE
:10082800FFF7BAFF0BB030BD10B422B90368C9B2E4
:100838009B6810BC1847D2B210BCFFF7D6BFFFF7B1
:10084800F3BF00231A4619464068FFF711BE00009F
:10085800014A024B1A607047F3140A0894030020F7
:10086800024B1A68024B1A60704700BF0803002049
:10087800980300200021FFF7BFBD10B58368044628
:1008880013B1032201469847204610BD10B504460F
:10089800FFF7F3FF204610BD034800238360034A97
:1008A800034900F0FDBB00BF9C030020700300203B
:1008B80095080A0808B5144B33B100F05DF90368D0
:1008C8001B699847002816DC104B33B100F004FA76
:1008D80003681B699847002810DC0D4B0BB1AFF378
:1008E80000800C4B7BB100F075F903681B699847D1
:1008F800002806DC08BDAFF30080E5E7AFF3008011
:10090800EBE7AFF3008008BD000000000000000026
:10091800000000000000000008B5FFF7CBFFFFF75C
:1009280099FC014B186008BD340400200248034AB2
:100938000349121A00F012BD004002400440024070
:10094800F0160A0807B5002300931A466FF07701DE
:10095800FFF764FD03B05DF804FB000007B54388AA
:100968000A2B08D0502B09D1094B1B683BB103B0A7
:100978005DF804EB1847FFF7E5FF06E00023009356
:100988001A466FF07701FFF749FD03B05DF804FBE5
:10099800AC03002038B5104C104D2368AB42104B07
:1009A8000CBF012200221A7002D0FFF7BFFF25609A
:1009B800FFF748FC044600F0E5FC0A4B13B120465B
:1009C800AFF3008000210748FFF782FDBDE83840FB
:1009D80000210548FFF718BD004002401E1C279A59
:1009E800B00300200000000065090A08704710B530
:1009F8000446182100F059FB204610BDF8B50F46F3
:100A080000F10806051D002416F8011D0A223846C3
:100A1800FFF715FFAE42044407D0002CF4D02E2176
:100A28003846FFF7C9FE0444EEE72046F8BD00004B
:100A380010B50446044B112240F8043B002100F095
:100A480098FC204610BD00BF50150A080346074A07
:100A580010B543F8042B01F1100251F8044B9142F0
:100A680043F8044BF9D10A781A7010BD50150A08DA
:100A7800024A4160026004220275704750150A0854
:100A880010B59DF8084044EA032343EA024242EACB
:100A9800016104234160037510BD000037B5044DA2
:100AA80005609DF818500095FFF7EAFF03B030BDC8
:100AB80050150A0841747047704708B50021007C3A
:100AC800FFF772FC30EA200028BF4FF0FF3008BD66
:100AD80008B50121007CFFF767FC30EA200028BF39
:100AE8004FF0FF3008BD08B5007CFFF755FC20EA41
:100AF800E07008BD08B5007CFFF746FC20EAE0700E
:100B080008BD007CFFF760BC10B50446142100F056
:100B1800CCFA204610BD38B50446007C0D46FFF7D8
:100B28003BFC002801DC607C28B12946207CFFF7CB
:100B380043FC20EAE07038BD10B50446002363602A
:100B48004FF47A73A360054B084623600123217490
:100B580063741146FFF708FC204610BD64150A08A7
:100B68000022007CFFF708BC10B5044614220021BF
:100B780000F0FFFB204610BD30B50E4D87B001A830
:100B8800FFF7F2FF296811F0010410D12846FFF79A
:100B980084FA60B101AA21460748FFF7CDFF28462D
:100BA800FFF780FA054A0649034800F079FA024837
:100BB80007B030BDB4030020BC0300207003002040
:100BC800C10A0A0810B504461422002100F0D1FB1E
:100BD800204610BD10B50E4C86B001A8FFF7F2FFF5
:100BE8002368DB0710D42046FFF757FA60B101AA43
:100BF80001210848FFF7A0FF2046FFF753FA064AED
:100C08000649044800F04CFA024806B010BD00BF7F
:100C1800B8030020D003002070030020C10A0A088E
:100C280070474174704708B5007CFFF75BFB20EA0A
:100C3800E07008BD08B5007CFFF72CFB20EAE070E7
:100C480008BD08B5007CFFF735FB30EA200028BF57
:100C58004FF0FF3008BD08B5007CFFF723FB30EAF2
:100C6800200028BF4FF0FF3008BD007CFFF72ABBEB
:100C780010B50446142100F018FA204610BD70B5CE
:100C8800457C04460E4625B9007CFFF72BFB00285F
:100C980005DD3146207CBDE87040FFF7F3BA2846F1
:100CA80070BD000010B50446084611460022626077
:100CB8004FF47A72A260054A20742260012262749D
:100CC8001A46FFF7D7FA204610BD00BF94150A0848
:100CD800007CFFF7FFBA0000F8B5194C25684DB93C
:100CE8008420FFF7D6F9064618B18422294600F079
:100CF80040FB2660134D2E684EB98420FFF7C9F9D2
:100D0800074618B18422314600F033FB2F600E4F9E
:100D1800396811F0010611D13846FFF7BEF968B1FC
:100D2800226831462B680948FFF7BCFF3846FFF7B1
:100D3800B9F9074A0749054800F0B2F90348F8BD70
:100D480000040020F8030020FC030020E403002036
:100D580070030020290C0A087047F8B506461546A6
:100D68000C468F18BC4206D0336814F8011B9B68E8
:100D780030469847F6E72846F8BD0022007CFFF782
:100D8800B9BA0021007CFFF7BDBA0021007CFFF74B
:100D9800C1BA0021007CFFF7C5BA0021007CFFF72B
:100DA800C9BA10B50446142100F07FF9204610BDD9
:100DB80010B5044608464FF47A73A360044B00212B
:100DC800207461602360FFF7C5FA204610BD00BF9C
:100DD800C4150A080021007CFFF7B4BA00221146A6
:100DE8004068FFF73DBBF0B5164689B011220F46A3
:100DF8000446002103A800F0BCFA304600F0F2FADD
:100E08000025009581B27B6803AA3046FFF7E4FA13
:100E180020B129462046FFF72BFE03E003A9204610
:100E2800FFF714FE204609B0F0BD002211464068C5
:100E3800FFF736BB002211464068FFF741BB00228E
:100E48004068FFF735BB002281F001014068FFF7D9
:100E58001FBB00231A4619464068FFF711BB002242
:100E680011464068FFF7ECBA002202214068FFF7FC
:100E7800EFBA00231A464068FFF7DABA024B042299
:100E88005A60024A1A60704704040020EC150A08E8
:100E980000231A464068FFF7CBBA002202214068B7
:100EA800FFF7D6BA002211464068FFF7C9BA0022F8
:100EB80011464068FFF7D4BA00231A46194640681D
:100EC800FFF7D6BA00231A4619464068FFF7D8BA82
:100ED800002281F001014068FFF7DABA0022406879
:100EE800FFF7E6BA002211464068FFF7E9BA002288
:100EF80011464068FFF7D4BA70B516468EB004465E
:100F080008A8FFF795FD1122002103A800F031FA87
:100F1800304600F067FA00250A4B009581B25B68FD
:100F280003AA3046FFF758FA20B129462046FFF7B2
:100F38009FFD03E003A92046FFF788FD20460EB079
:100F480070BD00BF04040020024B034A1A6000224F
:100F58005A6070470C04002020160A0810B5044691
:100F68000F48FFF7F1FA28B1A4F10D03022B01D8BD
:100F7800002010BD00F074F8FFF72CFF08B1012C19
:100F8800F6D9FFF7A9FEFFF7A3FE18B1A4F11203E3
:100F9800012BEDD9172C8CBF0020012010BD00BFFC
:100FA80014040020172838B504460D460AD8FF292E
:100FB80008D0FFF7D3FF28B129462046BDE83840BE
:100FC800FFF718B938BD10B50446FFF71BF9043808
:100FD800C0B2012808D92046FFF7C0FF20B120463B
:100FE800BDE81040FFF716B9002010BD70B50C4CD5
:100FF8000C4E0D4D00212046FFF792FA20460B4C6F
:101008003246294600F04CF801212046FFF788FABD
:10101800324629462046BDE8704000F041B800BF7E
:10102800140400207003002019050A082404002075
:1010380013B5084C00231A46194600932046FFF7BB
:101048002DFD2046044A054902B0BDE8104000F0D5
:1010580027B800BF3804002070030020F5090A08EB
:1010680038B50B4D296811F001040FD12846FFF758
:1010780014F858B121460748FFF79AFE2846FFF7AB
:1010880011F8054A0549034800F00AF8014838BD37
:10109800500400205404002070030020610D0A0849
:1010A8000B460146184600F04BB9FEF7F4BF0000A6
:1010B800184B1A68D1075CBF01221A60164B1A68D0
:1010C800D2075CBF01221A60144B1A68D0075CBFB4
:1010D80001221A60124B1A68D1075CBF01221A60FC
:1010E800104B1A68D2075CBF01221A600E4B1A68AF
:1010F800D0075CBF01221A600C4B1A68D1075CBF8D
:1011080001221A600A4B1A68D2075CBF01221A60D2
:10111800704700BF84040020800400207C04002065
:101128007804002074040020700400206C0400205F
:1011380068040020244B1A68D0075CBF01221A609B
:10114800224B1A68D1075CBF01221A60204B1A682B
:10115800D2075CBF01221A601E4B1A68D0075CBF19
:1011680001221A601C4B1A68D1075CBF01221A6061
:101178001A4B1A68D2075CBF01221A60184B1A680A
:10118800D0075CBF01221A60164B1A68D1075CBFF2
:1011980001221A60144B1A68D2075CBF01221A6038
:1011A800124B1A68D0075CBF01221A60104B1A68EC
:1011B800D1075CBF01221A600E4B1A68D2075CBFC8
:1011C80001221A60704700BFB4040020B004002058
:1011D800AC040020A8040020A4040020A0040020DF
:1011E8009C0400209804002094040020900400200F
:1011F8008C04002088040020244B1A68D0075CBFA8
:1012080001221A60224B1A68D1075CBF01221A60BA
:10121800204B1A68D2075CBF01221A601E4B1A685D
:10122800D0075CBF01221A601C4B1A68D1075CBF4B
:1012380001221A601A4B1A68D2075CBF01221A6091
:10124800184B1A68D0075CBF01221A60164B1A683F
:10125800D1075CBF01221A60144B1A68D2075CBF21
:1012680001221A60124B1A68D0075CBF01221A606B
:10127800104B1A68D1075CBF01221A600E4B1A681E
:10128800D2075CBF01221A60704700BFE404002047
:10129800E0040020DC040020D8040020D40400204E
:1012A800D0040020CC040020C8040020C40400207E
:1012B800C0040020BC040020B8040020184B1A68A1
:1012C800D1075CBF01221A60164B1A68D2075CBFAF
:1012D80001221A60144B1A68D0075CBF01221A60F9
:1012E800124B1A68D1075CBF01221A60104B1A68AA
:1012F800D2075CBF01221A600E4B1A68D0075CBF88
:1013080001221A600C4B1A68D1075CBF01221A60CF
:101318000A4B1A68D2075CBF01221A60704700BFE7
:101328000405002000050020FC040020F80400202B
:10133800F4040020F0040020EC040020E80400205D
:1013480010B5054C13462CB10A4601460220AFF3EE
:10135800008010BD204610BD0000000010B5431EDF
:101368000A44914204D011F8014B03F8014FF8E701
:1013780010BD03460244934202D003F8011BFAE76A
:101388007047000038B5124B05461C68A36BD3B9EB
:101398001820FFF7A5F843F20E33A06303804AF63E
:1013A800CD33438041F2342383804EF26D63C38092
:1013B8004DF6EC630381052343810B2383810122CE
:1013C8000023C0E90423A36B00221D615A6138BDC4
:1013D8006C030020034611F8012B03F8012B002AA7
:1013E800F9D17047034613F8012B002AFBD1181ACC
:1013F800013870471D000A085D000A0889000A08BC
:101408008D000A080000000052696768743A2000DD
:10141800094C6566743A200009426F74683A2000E6
:10142800000000000000000019050A081B050A0852
:1014380066006C6E00666E00636F646500646574B8
:1014480061696C000D0A00253031307520005D207F
:10145800002564002C200028293A2000205B006326
:101468006F6465203D200025690064657461696CBE
:1014780073203D2000626175640053657269616C78
:101488000055534253657269616C31007479706517
:1014980000706172616D00636D6400696400686E5C
:1014A80064007374726D0066696C74006C766C000D
:1014B80061646448616E646C65720072656D6F7614
:1014C8006548616E646C657200656E756D48616E25
:1014D800646C657273004A534F4E53747265616D44
:1014E8004C6F6748616E646C657200617070006E65
:1014F8006F6E6500747261636500696E666F007770
:1015080061726E006572726F720070616E6963005D
:10151800616C6C005A00252B3033643A25303275E3
:101528000025592D256D2D25645425483A254D3A19
:101538002553257A0061736374696D6500000000A6
:101548000000000000000000050A0A08F5090A0862
:10155800F7090A080000000000000000C10A0A0894
:10156800110B0A081F0B0A0875070A08FD0A0A0862
:10157800C30A0A08D90A0A080B0B0A08EF0A0A085C
:10158800BD0A0A080000000000000000290C0A0833
:10159800790C0A08870C0A0875070A083D0C0A081E
:1015A8005F0C0A084B0C0A08730C0A082B0C0A0873
:1015B8002F0C0A080000000000000000610D0A0856
:1015C800AB0D0A08830D0A08630D0A088B0D0A087B
:1015D800930D0A089B0D0A08A30D0A0800000000D5
:1015E800000000007B0E0A08710E0A08670E0A0840
:1015F800E50D0A084B080A085B0E0A084F0E0A0890
:10160800470E0A083D0E0A08330E0A08EF0D0A08AD
:101618000000000000000000990E0A08A30E0A0846
:10162800AD0E0A08B70E0A08C10E0A08CD0E0A0840
:10163800D90E0A08E50E0A08ED0E0A08F70E0A0880
:10164800010F0A0800000000000000000000000070
:101658000000000000000000000000000000000082
:101668000000000000000000000000000000000072
:101678000000000000000000000000000000000062
:101688000000000000000000000000000000000052
:101698000000000000000000000000000000000042
:1016A8000000000043000000C9010A0859050A08A3
:1016B80059080A0869080A08A1080A08850E0A08CC
:1016C800510F0A08F50F0A0839100A08B9100A0854
:1016D8003D110A0801120A08C5120A080000000094
:0816E8000000000000000000FA
:0416F00000000000F6
:1016F40001000000020000003D150A08000000007F
:101704004C160A086C160A088C160A080000000019
:10171400000000000000000000000000AC160A08F1
:1017240000000000000000000000000000000000B5
:1017340000000000000000000000000000000000A5
:101744000000000000000000000000000000000095
:101754000000000000000000000000000C03002056
:10176400FFFFFFFF00000102030405060708090A42
:101774000B0C0D0E0F101112131415161718191A3D
:081784001B1C1D1E1F20280084
:04178C007856341245
:04000005080A0018CD
:00000001FF
