:02000004080AE8
:1000000000000A082C2F0A0800000600060005015F
:08001000040279050000000064
:0400180068290A0841
:1000200009480A4908B5884205D0094A824202D0E7
:10003000121A02F01BFC0748074A0021121A02F0AC
:1000400020FC064808BD00BF00000020842E0A08DE
:10005000800000208000002054050020540500206E
:1000600070B501F075FA074B074C1E46E41AA40858
:100070000025A54204D056F8253098470135F8E709
:1000800070BD00BFF02D0A08802E0A0800F064BD84
:1000900008B500F07FFDBDE8084001F01BBA01F093
:1000A000ADB801F0B3B8000008B5034A00210C2038
:1000B00001F020F8FEE700BF010F0A080078B0FA4F
:1000C00080F040097047012303707047012070479A
:1000D00010B50446236820465B6898470028F9D08D
:1000E00010BD0379032BFCD001207047817170474C
:1000F00041717047C1727047017370474173704717
:10010000837B23EA0202114381737047C0797047F1
:10011000007A7047407A7047807A704700207047B5
:1001200070B504460E4600F0F3FE054600F0F0FE02
:10013000401BB04206D2236820465B6898470028DF
:10014000F4D070BD002070BD70B504460E4600F0BE
:10015000DFFE054600F0DCFE401BB04204D22379EE
:10016000032BF7D0012070BD002070BD70B58369EE
:100170000446B3B100F0CCFE064664252368204651
:100180009B6A984768B100F0C3FEA369801B984240
:1001900009D80A21012001F038FC684301F048F930
:1001A000ECE7012070BD002070BD0000074AFF2170
:1001B00002600022027141710282C17242820173A7
:1001C0004273827382828261704700BF84290A0869
:1001D00000F016BE00F014BE00F012BE00F010BE1B
:1001E00070470000014801F085B800BF600400209E
:1001F00010B5044601F0A4FA1A4901F0CAF8A17931
:1002000039B1012905D0022903D0032914BF0021E7
:100210000321154801F033F863791348012B0CBF13
:100220000021012101F028F82379013B032B03D899
:10023000DFE803F005080B0E0C4A01210AE00B4A27
:10024000022107E0094A042104E0084A082101E0EC
:10025000064A1021044801F02BF8BDE8104002487E
:1002600000F0F8BFDC290A086004002040420F00BB
:10027000014800F0F4BF00BF6004002010B5044640
:1002800000F01EF8014B2046236010BDEC290A083F
:1002900010B500F0B5FDBDE8104000231A46194620
:1002A0000148FFF7EBBF00BF8400002000F0A8BDAD
:1002B0007047704741717047817170470171704795
:1002C00030B5034D017105604271837130BD00BFCF
:1002D000142A0A0800F094BD00F092BD00F090BD11
:1002E00000F08EBD00F08CBD00F08ABDFB20704791
:1002F00010B503790446052B0AD00722012100F02E
:1003000004FD80224021204600F0FFFC05232371DC
:100310002379052BFCD0A07D10BD172938B50546E3
:100320000C4604DC04290BDD142901DC09E0172448
:1003300007224D212846033C00F0E7FC64B205E0AB
:10034000052404224D21284600F0DFFC621F62F0E4
:100350007F022846BDE83840D2B2092100F0D5BC62
:1003600010B503790446012B05D00022012100F0CD
:10037000CCFC01232371012010BD000038B50446D8
:1003800015461A4600F090FC054B84F82150236076
:10039000002384F82331FF2384F82230204638BD1F
:1003A000742A0A0890F82330032B1BD990F82430C4
:1003B000C37190F82530037290F82630437290F89C
:1003C00027308372837933B9C37942799A4202D054
:1003D000C379FF2B06D1438A01339BB243820123A9
:1003E00080F82331704710B5044600F099FD0023D2
:1003F00084F8233184F82330BDE8104000F098BD24
:100400002DE9F041036804465B680F46154698479E
:100410000646D8B1BFB1B5B100F082FD804694F870
:1004200023302A78033B9342D8BF94F8233004F159
:100430002801DCBF043B2B702A78384602F016FAFC
:10044000404600F075FD2046FFF7CDFF3046BDE881
:10045000F08100000000000070B5044608460E461A
:1004600001F0FAFE14A3D3E9002301F049FF14A31D
:10047000D3E9002302F06EF802F054F90546C0F308
:1004800007420621204600F040FCC5F30722072161
:10049000204600F03AFCEAB20821204600F035FC84
:1004A000094930464FF0010502F0BEF900B9054692
:1004B00084F82451012070BD0000000080842E418A
:1004C0000000000080844E4000C0424410B5037913
:1004D0000446022B05D00122114600F016FC02232F
:1004E000237110BD70B50446122100F0EDFB237995
:1004F000042B02D110F0A00F06D12579EDB2042D06
:1005000059D141060BD456E0238A01339BB2238292
:100510002046BDE87040FF22122100F0F6BB1321F7
:10052000204600F0D1FB10210646204600F0CCFB0F
:100530000D210246204600F0E8FB334604F1240278
:100540000021204600F003FCFF22122184F82360E2
:10055000204600F0DAFB1921204600F0B5FB40B23E
:1005600090FBF5F51A2184F82551204600F0ACFBEC
:1005700094F9253140B2002BE07302DAE27B134498
:1005800005E0E37B0F225BB21B0193FBF2F35BB24E
:10059000E37394F8243113B1E37B633301E0E37B2D
:1005A0005C335BB2E3732046FFF7FCFE94F8233123
:1005B000002BADD008E02379032B09D1020707D522
:1005C000A38A01339BB2A3822046FFF77FFF9FE7F8
:1005D0002379052B9CD143079AD500F00100A07523
:1005E000F2E70000024B186808B1FFF77BBF7047C5
:1005F0008C000020024B586808B1FFF773BF7047AA
:100600008C000020024B986808B1FFF76BBF704761
:100610008C00002010B503790446042B0AD0052273
:10062000012100F072FB00224021204600F06DFB0A
:100630000423237110BD10B503790446032B05D0A4
:10064000FFF7E8FF94F82301C0B210BD002010BDF1
:1006500010B503790446032B0AD00322012100F0D0
:1006600054FB40221146204600F04FFB0323237128
:1006700010BDFB2AF8B504460F46154601D90026E1
:1006800034E003689B6998472046FFF71FFF236803
:1006900020465B6A984706460028F0D000220D21CC
:1006A000204600F032FBE27A0021204600F02DFBCC
:1006B000227B0021204600F028FB627B002120469F
:1006C00000F023FBA27B0021204600F01EFB2B46FE
:1006D0003A460021204600F065FB2A1DD2B22221B5
:1006E000204600F012FB2046FFF7B2FF3046F8BD6F
:1006F00038B505460C460A781D2100F006FB6278E5
:100700001E21284600F001FBA2782846BDE83840AB
:10071000262100F0FABA0000122907B50EDC094BB9
:1007200001EB410119440A888B7801A9ADF8042036
:100730008DF80630FFF7DCFF012000E0002003B059
:100740005DF804FB342A0A0838B505460C460A0A47
:10075000202100F0DAFAE2B22846BDE83840212133
:1007600000F0D3BA00F04CBB73B5044600F086FA33
:10077000054608B900255CE080220121204694F856
:10078000216000F0C2FA0A2000F052FE012120464A
:1007900000F09AFA8028EDD1002194F8210001F0B0
:1007A00023FA94F82230FF2B07D1234A1378032B26
:1007B000E0D8591C117084F8223094F822201F4B85
:1007C00043F822402AB900924FF0FF3301221C491E
:1007D0000FE0012A4FF0000304D1009319494FF0B4
:1007E000FF3306E0022AC5D11749009301224FF0DA
:1007F000FF33304600F0FAFF00220E21204600F0C1
:1008000084FA00220F21204600F07FFA2046FFF7ED
:100810005DFE0A212046FFF77FFF08212046FFF7F3
:1008200093FF0A492046FFF717FE0D212046FFF7E8
:1008300074FD284602B070BD980000208C00002096
:10084000E5050A08F5050A0805060A080000D94367
:10085000016002717047006803685B6818470068B0
:1008600003689B691847006803681B6A184700689B
:1008700003681B6B184770B506460C4615461946AB
:10088000FFF7F5FF30682A4603682146BDE870404F
:10089000DB681847006803685B6B184738B5044687
:1008A0000D4600680368DB6A984729462046FFF733
:1008B000F1FF257138BD38B50446006803681B6830
:1008C0009847054618B121792046FFF7E7FF2846EB
:1008D00038BD006803689B6B184700680368DB6BD2
:1008E0001847006803685B6C1847006803689B6CD6
:1008F000184700680368DB6C1847006803681B6DC5
:1009000018472DE9F8430446006899460368DDF866
:1009100020809B68099F0A9E98470546C8B1B9F197
:10092000000F04D02046FFF7E0FF89F80000B8F17F
:10093000000F04D02046FFF7D4FF88F800001FB155
:100940002046FFF7D6FF38701EB12046FFF7D5FFCF
:1009500030702846BDE8F88300F052BA00F050BA73
:1009600010B50446FFF774FF00214FF44873A160EF
:100970002173E38121744FF4807204F1110001F0BE
:1009800080FF204610BD37B504461546FFF7A1FF8E
:10099000204600228021FFF7A0FF02A9212301F8B1
:1009A000013D01222B462046FFF765FF2046FFF759
:1009B00056FF03B030BD2DE9F04F044689469246FC
:1009C000067B98460136F6B289B0067300234FF4D1
:1009D000807B227C5F1C9A42FFB265D33146204661
:1009E000FFF777FF802200212046FFF776FF43467E
:1009F000524649462046FFF73EFF2046FFF72FFFAD
:100A0000B8F1FF0F52D0012F82BFA3680133A3605A
:100A100000F07EFAE38905464FF4807100200593CB
:100A200000F0F3FF059B584390FBFBF0184480B2A5
:100A3000054400F06DFA291A00293B46C9DD89B248
:100A40002046FFF710FF0028F3D00DF11F0302939B
:100A50000DF11E03019300220DF11D0300931146B9
:100A600007AB2046FFF74DFF0028E2D09DF81C2081
:100A70009DF91F3090450BD194F804E09DF81D10AE
:100A80008E4505D1002B03DA9DF81E10B1420ED021
:100A9000002BCEDBA3185B7C9DF81E109942C8D1B9
:100AA0002046FFF770FFC4E7002000E0012009B0F6
:100AB000BDE8F08F2DE9F04786B00EAF044697E809
:100AC00080030D4692461E46FFF7C5FE38B30DF172
:100AD000170302930DF1160301930DF11503009313
:100AE000294605AB52462046FFF70BFF0546B0B13D
:100AF0009DF91730002B12DB9DF81530FF2B06D027
:100B00009DF814209DF816102046FFF73CFF9DF835
:100B100014209DF816301444617C994201D10025BF
:100B200012E006B1327017B19DF815203A70B8F195
:100B3000000F01D088F80030B9F1000F03D09DF804
:100B4000172089F800206374284606B0BDE8F087B6
:100B500000F056B900F054B908B500F0F1FD4FF4BB
:100B6000165100F0DBFD00F0EBFD00F0DEFD00288B
:100B7000F9D00648FFF79FFE30B900F0E1FDBDE86F
:100B80000840034900F005BC08BD00BFC4010020B7
:100B9000CC2A0A087FB51D48FFF75DFE90B3FB2302
:100BA0008DF8163000230293019300930DF1160285
:100BB0000DF1170316491548FFF77CFF10B300F03D
:100BC000BFFD144900F0D2FB00F0BAFD10229DF8E1
:100BD000171000F012FC00F0B3FD0F4900F0C6FB47
:100BE00000F0AEFD0A4900F0D4FB9DF81730162244
:100BF0000A490648FFF7DFFE20B900F0A1FD0849C9
:100C000000F0C7FB07B05DF804FB00BFC401002083
:100C1000DE020020D82A0A08042C0A08000000205E
:100C2000EE2A0A0810B500F0EBF80C4B00221A70FF
:100C30005A804FF6FF720A4C9A80022000F062FA46
:100C400002220C212046074BFFF798FB2146BDE806
:100C5000104002220448FFF783BE00BFD8020020E4
:100C60009C00002084000020C401002000F0C8B8CF
:100C700000F0C6B800F0C4B800F0C2B810B5044621
:100C8000C0690368DB68984794F82000012100F0F0
:100C9000ABFF012194F8200000F0B7FF642000F0C2
:100CA000C7FB012010BD000070B504460D46164676
:100CB000FFF77CFA034BE661236084F8205020465E
:100CC00070BD00BF082B0A0870B504460D4600F041
:100CD00027F90021064694F8200000F096FFE0690D
:100CE00005F07F0103681B689847E06900210368ED
:100CF0001B6898470546012194F8200000F085FF05
:100D0000304600F015F9284670BDF8B51746044680
:100D10000D4600F005F90021064694F8200000F089
:100D200074FFE06945F0800103681B689847054639
:100D3000E069394603681B689847012194F8200050
:100D400000F063FF304600F0F3F82846F8BD2DE9C7
:100D5000F0410F4615461E46044600F0E1F800211A
:100D6000804694F8200000F050FFE06907F07F0112
:100D700003682E441B6898470746B54207D0E069D0
:100D8000002103681B68984705F8010BF5E701216E
:100D900094F8200000F039FF404600F0C9F83846CA
:100DA000BDE8F0812DE9F0410F4615461E46044688
:100DB00000F0B6F80021804694F8200000F025FFEE
:100DC000E06947F0800103682E441B689847074696
:100DD000B54206D0E06915F8011B03681B68984707
:100DE000F6E7012194F8200000F00FFF404600F0E4
:100DF0009FF83846BDE8F08100F002B800F000B876
:100E000008B5024B1B681B68019308BDB0010608BA
:100E100008B5024B1B689B68019308BDB00106082A
:100E200008B5024B1B68DB68019308BDB0010608DA
:100E300008B5024B1B681B69019308BDB001060889
:100E400008B5024B1B689B69019308BDB0010608F9
:100E500008B5024B1B68DB69019308BDB0010608A9
:100E600008B5024B1B681B68019308BDB401060856
:100E700008B5024B1B685B68019308BDB401060806
:100E800008B5024B1B689B68019308BDB4010608B6
:100E900008B5024B1B68DB68019308BDB401060866
:100EA00008B5024B1B681B69019308BDB401060815
:100EB00008B5024B1B685B69019308BDB4010608C5
:100EC00008B5024B1B68DB69019308BDB401060835
:100ED00008B5024B1B681B6A019308BDB4010608E4
:100EE00008B5024B1B685B6A019308BDB401060894
:100EF00008B5024B1B685B68019308BD9C0106089E
:100F000008B5024B1B68DB68019308BD9C0106080D
:100F100008B5024B1B685B69019308BD9C0106087C
:100F200008B5024B1B689B6B019308BD9C0106082A
:100F300008B5024B1B68DB6B019308BD9C010608DA
:100F400008B5024B1B681B6B019308BDD001060856
:100F500008B5024B1B68DB6B019308BDD001060886
:100F600008B5024B1B681B6C019308BDD001060835
:100F700008B5024B1B689B69019308BDC4010608B4
:100F800008B5024B1B685B6A019308BDC4010608E3
:100F900008B5024B1B689B6A019308BDC401060893
:100FA00008B5024B1B68DB6A019308BDC401060843
:100FB00008B5024B1B681B6B019308BDC4010608F2
:100FC00008B5024B1B685B6B019308BDC4010608A2
:100FD00008B5024B1B689B6B019308BDC401060852
:100FE00008B5024B1B681B6C019308BDC4010608C1
:100FF00008B5024B1B681B6E019308BDAC010608C7
:1010000008B5024B1B685B6E019308BDAC01060876
:1010100008B5024B1B689B6E019308BDAC01060826
:1010200008B5024B1B68DB6E019308BDAC010608D6
:1010300008B5024B1B681B6F019308BDAC01060885
:1010400008B5024B1B685B6F019308BDAC01060835
:1010500008B5034B1B68D3F88030019308BD00002E
:10106000AC01060808B5024B1B681B68019308BD5C
:10107000D801060808B5024B1B685B68019308BDE0
:10108000D801060808B5024B1B681B69019308BD0F
:10109000D801060808B5024B1B685B69019308BDBF
:1010A000D801060808B5024B1B689B69019308BD6F
:1010B000D801060808B5024B1B68DB69019308BD1F
:1010C000D801060808B5024B1B681B6A019308BDCE
:1010D000D801060808B5024B1B685B6A019308BD7E
:1010E000D801060808B5024B1B689B6C019308BD2C
:1010F000C001060808B5024B1B685B6B019308BD75
:10110000A801020808B5024B1B685B68019308BD83
:10111000A401060808B5024B1B685B69019308BD72
:10112000A401060808B5034B1B68D3F8903001935F
:1011300008BD0000A401060808B5034B1B68D3F8DE
:101140009C30019308BD0000A401060808B5024BBD
:101150001B685B68019308BDC801060808B5024B0F
:101160001B689B68019308BDC801060808B5024BBF
:101170001B68DB68019308BDC801060808B5024B6F
:101180001B681B69019308BDC801060808B5024B1E
:101190001B685B69019308BDC801060808B5024BCE
:1011A0001B689B69019308BDC801060808B5024B7E
:1011B0001B68DB69019308BDC801060808B5024B2E
:1011C0001B681B6A019308BDC801060808B5024BDD
:1011D0001B681B6B019308BDC801060808B5024BCC
:1011E0001B685B6B019308BDC801060808B5024B7C
:1011F0001B68DB6B019308BDCC01060808B5024BE8
:101200001B681B68019308BDA001060808B5024BC6
:101210001B685B68019308BDA0010608704710B504
:101220000446102100F069FD204610BD70B504464B
:101230000E46074B0025036040F80C5FFFF780FE69
:1012400030462671FFF73CFEA560204670BD00BF0A
:10125000682B0A084FF6FF710079FFF701BE10B541
:101260000446C068FFF774FEE068FFF779FE207956
:10127000BDE81040FFF7FCBD0079FFF701BE007923
:10128000FFF706BE400830B5186000241868E5B2C4
:10129000884206D90134082C02D040081860F5E7CE
:1012A0000725024B5B5D137030BD00BF702B0A0831
:1012B00070B5044602FB01F588B0067914220021BE
:1012C00003A801F0DEFA0B2303A930460022ADF893
:1012D0000C30FFF705FE02AB0DF10702294604981A
:1012E000FFF7D0FF20799DF80710FFF7D9FD02988E
:1012F00008B070BD08B50079FFF7DAFDC0B208BDCF
:101300000079FFF7E5BD00004FF6FF72034B0020A8
:10131000187058809A80FFF7F5BE00BFDA030020EE
:10132000F8B506460D468F180024BD420CD0336830
:1013300015F8011B9B6830469847002801DB0444E0
:10134000F3E7002C08BF04462046F8BD70B50546FB
:101350000C46084649B101F0FFFA2B6802462146C7
:101360002846BDE87040DB68184770BD08B5FFF738
:10137000EDFF08BD03689B68184738B50D21054689
:10138000FFF7F8FF0A2104462846FFF7F3FF204441
:1013900038BD38B50546FFF7D9FF04462846FFF7A4
:1013A000ECFF204438BD012A98BF0A2230B50B4615
:1013B0008BB000218DF824100DF12304B3FBF2F55E
:1013C00005FB1233DBB2092B94BF30333733DBB26A
:1013D000214604F801392B46002DEFD1FFF7B6FF67
:1013E0000BB030BD10B422B90368C9B29B6810BC01
:1013F0001847D2B210BCFFF7D6BFFFF7F3BF0023E8
:101400001A4619464068FFF7C1BE0000014A024B68
:101410001A607047EE2B0A08E0030020024B1A689E
:10142000024B1A60704700BF18000020E403002040
:101430000021FFF76FBE10B58368044613B1032285
:1014400001469847204610BD10B50446FFF7F3FF4C
:10145000204610BD034800238360034A034900F07F
:1014600047BC00BFE80300208000002049140A08A0
:1014700008B5144B33B100F063F903681B69984752
:10148000002816DC104B33B100F032FA03681B69F8
:101490009847002810DC0D4B0BB1AFF300800C4BCC
:1014A0007BB100F07BF903681B699847002806DCD4
:1014B00008BDAFF30080E5E7AFF30080EBE7AFF3E3
:1014C000008008BD000000000000000000000000D7
:1014D0000000000008B5FFF7CBFFFFF719FD014B37
:1014E000186008BD800400200248034A0349121A0C
:1014F00001F0BCB90040024004400240802E0A08BE
:1015000007B5002300931A466FF07701FFF714FE2A
:1015100003B05DF804FB000007B543880A2B08D030
:10152000502B09D1094B1B683BB103B05DF804EBAC
:101530001847FFF7E5FF06E0002300931A466FF017
:101540007701FFF7F9FD03B05DF804FBF803002015
:1015500038B5104C104D2368AB42104B0CBF012224
:1015600000221A7002D0FFF7BFFF2560FFF7C0FC12
:10157000044601F08FF90A4B13B12046AFF3008007
:1015800000210748FFF732FEBDE83840002105483A
:10159000FFF7C8BD004002401E1C279AFC03002034
:1015A0000000000019150A08704710B504461821FC
:1015B00000F0A3FB204610BDF8B50F4600F1080669
:1015C000051D002416F8011D0A223846FFF715FFF5
:1015D000AE42044407D0002CF4D02E213846FFF749
:1015E000C9FE0444EEE72046F8BD000010B50446ED
:1015F000044B112240F8043B002101F042F920463F
:1016000010BD00BF902C0A080346074A10B543F8E6
:10161000042B01F1100251F8044B914243F8044BA2
:10162000F9D10A781A7010BD902C0A08024A41605C
:101630000260042202757047902C0A0810B59DF8CC
:10164000084044EA032343EA024242EA01610423D8
:101650004160037510BD000037B5044D05609DF86D
:1016600018500095FFF7EAFF03B030BD902C0A0830
:1016700041747047704708B50021007CFFF712FDE8
:1016800030EA200028BF4FF0FF3008BD08B5012127
:10169000007CFFF707FD30EA200028BF4FF0FF3045
:1016A00008BD08B5007CFFF7F5FC20EAE07008BD36
:1016B00008B5007CFFF7E6FC20EAE07008BD007C7E
:1016C000FFF700BD10B50446142100F016FB2046BC
:1016D00010BD38B50446007C0D46FFF7DBFC002842
:1016E00001DC607C28B12946207CFFF7E3FC20EA7E
:1016F000E07038BD10B50446002363604FF47A7380
:10170000A360054B084623600123217463741146CE
:10171000FFF7A8FC204610BDA42C0A080022007C7C
:10172000FFF7A8BC007CFFF7D5BCFFF7FBBF10B5E7
:1017300004461422002101F0A4F8204610BD000048
:1017400030B50E4D87B001A8FFF7F1FF296811F001
:10175000010410D12846FEF7B1FC60B101AA214670
:101760000748FFF7C7FF2846FEF7ADFC054A0649C4
:10177000034800F0BDFA024807B030BD0004002065
:10178000080400208000002075160A0810B50446E1
:101790001422002101F075F8204610BD10B50E4C42
:1017A00086B001A8FFF7F2FF2368DB0710D42046BC
:1017B000FEF784FC60B101AA01210848FFF79AFFF7
:1017C0002046FEF780FC064A0649044800F090FADD
:1017D000024806B010BD00BF040400201C04002015
:1017E0008000002075160A0800470000F0B51C466E
:1017F00085B005460E461746FFF72AFB00208442B7
:101800004FF0040303908DF80C30B4BF03469DF8ED
:1018100028302846A4BF8DF80E3003AB0093324623
:101820003B460449A8BF8DF80D40FFF709FB012096
:1018300005B0F0BDE9170A0870474174704708B554
:10184000007CFFF7CDFB20EAE07008BD08B5007C06
:10185000FFF79EFB20EAE07008BD08B5007CFFF7AB
:10186000A7FB30EA200028BF4FF0FF3008BD08B5C5
:10187000007CFFF795FB30EA200028BF4FF0FF30D7
:1018800008BD007CFFF79CBB10B50446142100F096
:1018900034FA204610BD70B5457C04460E4625B985
:1018A000007CFFF79DFB002805DD3146207CBDE86C
:1018B0007040FFF765BB284670BD000010B50446B8
:1018C00008461146002262604FF47A72A260054A0F
:1018D00020742260012262741A46FFF749FB2046F9
:1018E00010BD00BFD42C0A08007CFFF771BB0000BC
:1018F000F8B5194C25684DB98420FEF7D0FB064693
:1019000018B18422294600F0BCFF2660134D2E68D2
:101910004EB98420FEF7C3FB074618B18422314636
:1019200000F0AFFF2F600E4F396811F0010611D1A2
:101930003846FEF7C3FB68B1226831462B68094878
:10194000FFF7BCFF3846FEF7BEFB074A07490548CC
:1019500000F0CEF90348F8BD4C04002044040020F8
:1019600048040020300400208000002039180A08B4
:101970007047F8B5064615460C468F18BC4206D08F
:10198000336814F8011B9B6830469847F6E72846F1
:10199000F8BD0022007CFFF72BBB0021007CFFF785
:1019A0002FBB0021007CFFF733BB0021007CFFF739
:1019B00037BB0021007CFFF73BBB10B50446142168
:1019C00000F09BF9204610BD10B5044608464FF4C0
:1019D0007A73A360044B0021207461602360FFF7D9
:1019E00037FB204610BD00BF042D0A080021007CF3
:1019F000FFF726BB10B5044630B100F073FF90FB33
:101A0000F4F303FB140010BD10BD884210B504466A
:101A100004DA081AFFF7EEFF204410BD10BD0022C3
:101A200011464068FFF7AABBF0B5164689B01122EF
:101A30000F460446002103A800F023FF304600F0C3
:101A40008BFF0025009581B27B6803AA3046FFF723
:101A500049FB20B129462046FFF7E8FD03E003A932
:101A60002046FFF7D1FD204609B0F0BD0022114607
:101A70004068FFF7A3BB002211464068FFF7AEBBEA
:101A800000224068FFF7A2BB002281F001014068FC
:101A9000FFF78CBB00231A4619464068FFF77EBB50
:101AA000002211464068FFF759BB0022022140681E
:101AB000FFF75CBB00231A464068FFF747BB0000F6
:101AC000024B04225A60024A1A60704750040020F8
:101AD0002C2D0A0800231A464068FFF737BB002266
:101AE00002214068FFF742BB002211464068FFF721
:101AF00035BB002211464068FFF740BB00231A4661
:101B000019464068FFF742BB00231A461946406851
:101B1000FFF744BB002281F001014068FFF746BB9C
:101B200000224068FFF752BB002211464068FFF7D1
:101B300055BB002211464068FFF740BB70B5164602
:101B40008EB0044608A8FFF751FD1122002103A81A
:101B500000F097FE304600F0FFFE00250A4B00958E
:101B600081B25B6803AA3046FFF7BCFA20B1294670
:101B70002046FFF75BFD03E003A92046FFF744FD85
:101B800020460EB070BD00BF50040020024B034A37
:101B90001A6000225A60704758040020602D0A081D
:101BA00010B504460F48FFF7ABFB28B1A4F10D03B5
:101BB000022B01D8002010BD00F07AF8FFF716FFC5
:101BC00008B1012CF6D9FFF793FEFFF78DFE18B18F
:101BD000A4F11203012BEDD9172C8CBF002001209A
:101BE00010BD00BF60040020172838B504460D461C
:101BF0000AD8FF2908D0FFF7D3FF28B1294620468D
:101C0000BDE83840FFF704B938BD38B504460D4685
:101C1000FFF706F9FF2810D0062804D84D2323FA31
:101C200000F0C30709D42046FFF7BAFF28B12946C0
:101C30002046BDE83840FFF7FBB838BD70B50C4C06
:101C40000C4E0D4D00212046FFF7F0FA20460B4CBC
:101C50003246294600F04CF801212046FFF7E6FA0B
:101C6000324629462046BDE8704000F041B800BF2A
:101C700060040020800000201D120A08700400206B
:101C800013B5084C00231A46194600932046FFF767
:101C9000E3FC2046044A054902B0BDE8104000F0CC
:101CA00027B800BF8404002080000020A9150A087E
:101CB00038B50B4D296811F001040FD12846FEF705
:101CC000FDF958B121460748FFF77EFE2846FEF78A
:101CD000FAF9054A0549034800F00AF8014838BDF9
:101CE0009C040020A00400208000002071190A0834
:101CF0000B460146184600F0ABBDFEF7D2B9000016
:101D0000184B1A68D1075CBF01221A60164B1A687B
:101D1000D2075CBF01221A60144B1A68D0075CBF5F
:101D200001221A60124B1A68D1075CBF01221A60A7
:101D3000104B1A68D2075CBF01221A600E4B1A685A
:101D4000D0075CBF01221A600C4B1A68D1075CBF38
:101D500001221A600A4B1A68D2075CBF01221A607E
:101D6000704700BFD0040020CC040020C80400202D
:101D7000C4040020C0040020BC040020B8040020DB
:101D8000B4040020244B1A68D0075CBF01221A60FB
:101D9000224B1A68D1075CBF01221A60204B1A68D7
:101DA000D2075CBF01221A601E4B1A68D0075CBFC5
:101DB00001221A601C4B1A68D1075CBF01221A600D
:101DC0001A4B1A68D2075CBF01221A60184B1A68B6
:101DD000D0075CBF01221A60164B1A68D1075CBF9E
:101DE00001221A60144B1A68D2075CBF01221A60E4
:101DF000124B1A68D0075CBF01221A60104B1A6898
:101E0000D1075CBF01221A600E4B1A68D2075CBF73
:101E100001221A60704700BF00050020FC0400206A
:101E2000F8040020F4040020F0040020EC0400205A
:101E3000E8040020E4040020E0040020DC0400208A
:101E4000D8040020D4040020244B1A68D0075CBFBB
:101E500001221A60224B1A68D1075CBF01221A6066
:101E6000204B1A68D2075CBF01221A601E4B1A6809
:101E7000D0075CBF01221A601C4B1A68D1075CBFF7
:101E800001221A601A4B1A68D2075CBF01221A603D
:101E9000184B1A68D0075CBF01221A60164B1A68EB
:101EA000D1075CBF01221A60144B1A68D2075CBFCD
:101EB00001221A60124B1A68D0075CBF01221A6017
:101EC000104B1A68D1075CBF01221A600E4B1A68CA
:101ED000D2075CBF01221A60704700BF30050020A6
:101EE0002C050020280500202405002020050020C6
:101EF0001C050020180500201405002010050020F6
:101F00000C0500200805002004050020184B1A6865
:101F1000D1075CBF01221A60164B1A68D2075CBF5A
:101F200001221A60144B1A68D0075CBF01221A60A4
:101F3000124B1A68D1075CBF01221A60104B1A6855
:101F4000D2075CBF01221A600E4B1A68D0075CBF33
:101F500001221A600C4B1A68D1075CBF01221A607B
:101F60000A4B1A68D2075CBF01221A60704700BF93
:101F7000500500204C0500204805002044050020A5
:101F8000400500203C0500203805002034050020D5
:101F900081F0004102E000BF83F0004330B54FEA1A
:101FA00041044FEA430594EA050F08BF90EA020F87
:101FB0001FBF54EA000C55EA020C7FEA645C7FEA1A
:101FC000655C00F0E2804FEA5454D4EB5555B8BF3D
:101FD0006D420CDD2C4480EA020281EA030382EAAE
:101FE000000083EA010180EA020281EA0303362D40
:101FF00088BF30BD11F0004F4FEA01314FF4801C13
:102000004CEA113102D0404261EB410113F0004F24
:102010004FEA03334CEA133302D0524263EB4303DB
:1020200094EA050F00F0A780A4F10104D5F1200E79
:102030000DDB02FA0EFC22FA05F2801841F10001D4
:1020400003FA0EF2801843FA05F359410EE0A5F1A8
:1020500020050EF1200E012A03FA0EFC28BF4CF0D9
:10206000020C43FA05F3C01851EBE37101F000458F
:1020700007D54FF0000EDCF1000C7EEB00006EEB9C
:102080000101B1F5801F1BD3B1F5001F0CD3490826
:102090005FEA30004FEA3C0C04F101044FEA44527D
:1020A00012F5800F80F09A80BCF1004F08BF5FEA04
:1020B000500C50F1000041EB045141EA050130BDE4
:1020C0005FEA4C0C404141EB010111F4801FA4F187
:1020D0000104E9D191F0000F04BF01460020B1FADC
:1020E00081F308BF2033A3F10B03B3F120020CDA14
:1020F0000C3208DD02F1140CC2F10C0201FA0CF0F2
:1021000021FA02F10CE002F11402D8BFC2F1200C56
:1021100001FA02F120FA0CFCDCBF41EA0C0190400C
:10212000E41AA2BF01EB0451294330BD6FEA040455
:102130001F3C1CDA0C340EDC04F11404C4F1200240
:1021400020FA04F001FA02F340EA030021FA04F352
:1021500045EA030130BDC4F10C04C4F1200220FAA9
:1021600002F001FA04F340EA0300294630BD21FAE7
:1021700004F0294630BD94F0000F83F4801306BFAD
:1021800081F480110134013D4EE77FEA645C18BFA1
:102190007FEA655C29D094EA050F08BF90EA020F38
:1021A00005D054EA000C04BF1946104630BD91EA30
:1021B000030F1EBF0021002030BD5FEA545C05D133
:1021C0004000494128BF41F0004130BD14F5800472
:1021D0003CBF01F5801130BD01F0004545F0FE41E6
:1021E00041F470014FF0000030BD7FEA645C1ABF1B
:1021F000194610467FEA655C1CBF0B46024650EA52
:10220000013406BF52EA033591EA030F41F400217D
:1022100030BD00BF90F0000F04BF0021704730B503
:102220004FF4806404F132044FF000054FF00001D8
:1022300050E700BF90F0000F04BF0021704730B599
:102240004FF4806404F1320410F0004548BF40426E
:102250004FF000013EE700BF42004FEAE2014FEAC3
:1022600031014FEA02701FBF12F07F4393F07F4F9E
:1022700081F06051704792F0000F14BF93F07F4FD0
:10228000704730B54FF4607401F0004521F0004113
:1022900020E700BF50EA010208BF704730B54FF099
:1022A00000050AE050EA010208BF704730B511F09E
:1022B000004502D5404261EB41014FF4806404F1D6
:1022C00032045FEA915C3FF4DCAE4FF003025FEA58
:1022D000DC0C18BF03325FEADC0C18BF033202EBE0
:1022E000DC02C2F1200300FA03FC20FA02F001FA3A
:1022F00003FE40EA0E0021FA02F11444C1E600BFD9
:1023000070B54FF0FF0C4CF4E06C1CEA11541DBF8B
:102310001CEA135594EA0C0F95EA0C0F00F0DEF856
:102320002C4481EA030621EA4C5123EA4C5350EA3B
:10233000013518BF52EA033541F4801143F480138C
:1023400038D0A0FB02CE4FF00005E1FB02E506F01D
:102350000042E0FB03E54FF00006E1FB03569CF072
:10236000000F18BF4EF0010EA4F1FF04B6F5007F78
:1023700064F5407404D25FEA4E0E6D4146EB0606EA
:1023800042EAC62141EA55514FEAC52040EA5E5073
:102390004FEACE2EB4F1FD0C88BFBCF5E06F1ED81D
:1023A000BEF1004F08BF5FEA500E50F1000041EB54
:1023B000045170BD06F0004646EA010140EA020001
:1023C00081EA0301B4EB5C04C2BFD4EB0C0541EA23
:1023D000045170BD41F480114FF0000E013C00F338
:1023E000AB8014F1360FDEBF002001F0004170BD5C
:1023F000C4F10004203C35DA0C341BDC04F1140475
:10240000C4F1200500FA05F320FA04F001FA05F200
:1024100040EA020001F0004221F0004110EBD370CD
:1024200021FA04F642EB06015EEA430E08BF20EAF9
:10243000D37070BDC4F10C04C4F1200500FA04F39C
:1024400020FA05F001FA04F240EA020001F000412E
:1024500010EBD37041F100015EEA430E08BF20EAA1
:10246000D37070BDC4F1200500FA05F24EEA020EE9
:1024700020FA04F301FA05F243EA020321FA04F018
:1024800001F0004121FA04F220EA020000EBD370CF
:102490005EEA430E08BF20EAD37070BD94F0000FCF
:1024A0000FD101F00046400041EB010111F4801F03
:1024B00008BF013CF7D041EA060195F0000F18BFB4
:1024C000704703F00046520043EB030313F4801FF0
:1024D00008BF013DF7D043EA0603704794EA0C0FAA
:1024E0000CEA135518BF95EA0C0F0CD050EA4106C0
:1024F00018BF52EA4306D1D181EA030101F000413D
:102500004FF0000070BD50EA410606BF1046194664
:1025100052EA430619D094EA0C0F02D150EA013670
:1025200013D195EA0C0F05D152EA03361CBF1046B1
:1025300019460AD181EA030101F0004141F0FE4150
:1025400041F470014FF0000070BD41F0FE4141F4D4
:10255000780170BD70B54FF0FF0C4CF4E06C1CEAD4
:1025600011541DBF1CEA135594EA0C0F95EA0C0F89
:1025700000F0A7F8A4EB050481EA030E52EA033544
:102580004FEA013100F088804FEA03334FF0805565
:1025900045EA131343EA12634FEA022245EA111592
:1025A00045EA10654FEA00260EF000419D4208BF43
:1025B000964244F1FD0404F5407402D25B084FEAF0
:1025C0003202B61A65EB03055B084FEA32024FF49C
:1025D00080104FF4002CB6EB020E75EB030E22BFF9
:1025E000B61A754640EA0C005B084FEA3202B6EBB9
:1025F000020E75EB030E22BFB61A754640EA5C0068
:102600005B084FEA3202B6EB020E75EB030E22BFF7
:10261000B61A754640EA9C005B084FEA3202B6EBF8
:10262000020E75EB030E22BFB61A754640EADC00B7
:1026300055EA060E18D04FEA051545EA16754FEA19
:1026400006164FEAC30343EA52734FEAC2025FEA37
:102650001C1CC0D111F4801F0BD141EA00014FF0C6
:1026600000004FF0004CB6E711F4801F04BF014397
:102670000020B4F1FD0C88BFBCF5E06F3FF6AFAEB3
:10268000B5EB030C04BFB6EB020C5FEA500C50F143
:10269000000041EB045170BD0EF0004E4EEA1131C6
:1026A00014EB5C04C2BFD4EB0C0541EA045170BDCD
:1026B00041F480114FF0000E013C90E645EA060E11
:1026C0008DE60CEA135594EA0C0F08BF95EA0C0F3F
:1026D0003FF43BAF94EA0C0F0AD150EA01347FF487
:1026E00034AF95EA0C0F7FF425AF104619462CE75E
:1026F00095EA0C0F06D152EA03353FF4FDAE1046C1
:10270000194622E750EA410618BF52EA43067FF411
:10271000C5AE50EA41047FF40DAF52EA43057FF4A1
:10272000EBAE12E74A0011D212F5001211D20DD50C
:102730006FF47873B3EB62520ED44FEAC12343F0C7
:10274000004343EA505323FA02F070474FF0000071
:10275000704750EA013002D14FF0FF3070474FF020
:10276000000070474FF0FF3C06E000BF4FF0010C47
:1027700002E000BF4FF0010C4DF804CD4FEA4002DB
:102780004FEA41037FEA226C18BF7FEA236C11D025
:1027900001B052EA530C18BF90EA010F58BFB2EBD8
:1027A000030088BFC81738BF6FEAE17018BF40F058
:1027B000010070477FEA226C02D15FEA402C05D10C
:1027C0007FEA236CE4D15FEA412CE1D05DF8040B91
:1027D000704700BF844608466146FFE70FB5FFF724
:1027E000C9FF002848BF10F1000F0FBD4DF808EDDC
:1027F000FFF7F4FF0CBF012000205DF808FB00BFCD
:102800004DF808EDFFF7EAFF34BF012000205DF826
:1028100008FB00BF4DF808EDFFF7E0FF94BF012073
:1028200000205DF808FB00BF4DF808EDFFF7D2FF70
:1028300094BF012000205DF808FB00BF4DF808EDB3
:10284000FFF7C8FF34BF012000205DF808FB00BF80
:1028500010B5054C13462CB10A4601460220AFF3D1
:10286000008010BD204610BD0000000010B5431EC2
:102870000A44914204D011F8014B03F8014FF8E7E4
:1028800010BD03460244934202D003F8011BFAE74D
:102890007047000038B5124B05461C68A36BD3B9CE
:1028A0001820FEF7ABFC43F20E33A06303804AF618
:1028B000CD33438041F2342383804EF26D63C38075
:1028C0004DF6EC630381052343810B2383810122B1
:1028D0000023C0E90423A36B00221D615A6138BDA7
:1028E0007C000020194B10B51C68A36BD3B91820CD
:1028F000FEF784FC43F20E33A06303804AF6CD3327
:10290000438041F2342383804EF26D63C3804DF6E1
:10291000EC630381052343810B2383810122002380
:10292000C0E90423A16B0A4C0B6948695C43094A5E
:1029300002FB0040A3FB02230132034443F10003E6
:10294000C1E9042323F0004010BD00BF7C0000203B
:102950002DF451582D7F954C034613F8012B002A76
:10296000FBD1181A0138704721000A0861000A08D3
:102970008D000A0891000A08000000000000000015
:1029800000000000CD000A08A9000A08A9000A08F2
:10299000A9000A08A9000A08D1000A08E3000A08E9
:1029A00049010A0821010A086D010A081D010A08E7
:1029B000F1000A08F5000A08F9000A08FD000A08F3
:1029C00001010A08ED000A080D010A0811010A08B0
:1029D00015010A0819010A081D010A08484552454F
:1029E000000000000000000000000000E5010A08EF
:1029F000E1010A08E1010A08F1010A0871020A0866
:102A0000B5020A08B9020A08BD020A08000000005F
:102A100000000000A9000A08B1020A08B3020A086F
:102A2000A9000A08A9000A08B5020A08B9020A089A
:102A3000BD020A0872740092740048940078C400C1
:102A400052940052A400529400827400727000628A
:102A5000700074900062840064A40063B40073B4D6
:102A600000737400428400528400000000000000E3
:102A70000000000069070A0837060A0801040A086E
:102A800073060A08ED020A08D1000A08E3000A08E2
:102A900049010A0821010A086D010A08F1020A0821
:102AA000F1000A08F5000A08F9000A08FD000A0802
:102AB00001010A08ED000A080D010A0811010A08BF
:102AC00015010A0819010A0861030A08696E697488
:102AD000206661696C656400676F7420726571754A
:102AE0006573742066726F6D203A203078007365CC
:102AF0006E64746F57616974206661696C65640007
:102B000000000000000000007D0C0A08A9000A086F
:102B1000A9000A08A9000A08A9000A08D1000A08A1
:102B2000E3000A0849010A0821010A086D010A08A0
:102B30001D010A08F1000A08F5000A08F9000A0850
:102B4000FD000A0801010A08ED000A080D010A0843
:102B500011010A0815010A0819010A081D010A08CD
:102B600000000000000000001D120A081F120A08E1
:102B700000081018202830386261756400536572AF
:102B800069616C0055534253657269616C31007420
:102B900079706500706172616D00636D64006964D5
:102BA00000686E64007374726D0066696C74006C0A
:102BB000766C0061646448616E646C657200726575
:102BC0006D6F766548616E646C657200656E756DDB
:102BD00048616E646C657273004A534F4E53747251
:102BE00065616D4C6F6748616E646C657200617001
:102BF0007000253031307520005D20002564002CE8
:102C0000200028293A2000205B00636F6465203D86
:102C1000200025690064657461696C73203D2000A3
:102C20000D0A0066006C6E00666E00636F646500DE
:102C300064657461696C006E6F6E650074726163C7
:102C40006500696E666F007761726E006572726F03
:102C5000720070616E696300616C6C005A00252B14
:102C60003033643A253032750025592D256D2D25D8
:102C7000645425483A254D3A2553257A00617363FB
:102C800074696D6500000000000000000000000095
:102C9000B9150A08A9150A08AB150A0800000000B2
:102CA0000000000075160A08C5160A08D3160A089F
:102CB00021130A08B1160A0877160A088D160A08A1
:102CC000BF160A08A3160A0871160A0800000000B9
:102CD0000000000039180A0889180A0897180A081D
:102CE00021130A084D180A086F180A085B180A0809
:102CF00083180A083B180A083F180A080000000059
:102D00000000000071190A08BB190A0893190A0883
:102D100073190A089B190A08A3190A08AB190A08AB
:102D2000B3190A080000000000000000B51A0A08E4
:102D3000AB1A0A08A11A0A081F1A0A08FF130A0880
:102D4000951A0A08891A0A08811A0A08771A0A08BD
:102D50006D1A0A08291A0A08000000000000000085
:102D6000D51A0A08DF1A0A08E91A0A08F31A0A0823
:102D7000FD1A0A08091B0A08151B0A08211B0A0864
:102D8000291B0A08331B0A083D1B0A080000000023
:102D90000000000000000000000000000000000033
:102DA0000000000000000000000000000000000023
:102DB0000000000000000000000000000000000013
:102DC0000000000000000000000000000000000003
:102DD00000000000000000000000000000000000F3
:102DE00000000000000000000000000043000000A0
:102DF000D1010A08D5010A08D9010A08DD010A082B
:102E000091020A08AD020A08D5020A08D9020A0886
:102E1000DD020A08E1020A08E5020A08E9020A08D6
:102E200065070A0859090A085D090A08510B0A08CA
:102E3000550B0A08250C0A086D0C0A08710C0A08C3
:102E4000750C0A08790C0A08F90D0A08FD0D0A0824
:102E500009130A080D140A081D140A0855140A0853
:102E6000C11A0A088D1B0A083D1C0A08811C0A08A1
:102E7000011D0A08851D0A08491E0A080D1F0A08B7
:042E8000000000004E
:102E8400416E642068656C6C6F206261636B2074B2
:102E94006F20796F750000007D2C0A080000000087
:102EA4008C2D0A08AC2D0A08CC2D0A08000000005D
:102EB400000000000000000000000000EC2D0A08E3
:102EC40000000000000000000000000000000000FE
:102ED40000000000000000000000000000000000EE
:102EE40000000000000000000000000000000000DE
:102EF4000000000000000000000000001C00002092
:102F0400FFFFFFFF00000102030405060708090A8A
:102F14000B0C0D0E0F101112131415161718191A85
:082F24001B1C1D1E1F202800CC
:042F2C00785634128D
:04000005080A0020C5
:00000001FF
